:020000040000fa
:080000000001040000000000f3
:020000040000fa
:100200000fa120000eff20000e018800000000005a
:100210000c0007004003210001002000110007002e
:10022000000020000000e000020032000000020098
:10023000000000009a0f0200000000000040da00f9
:100240000000fe004440a900400420000000e0003f
:100250000300320000002000a00188004440a800f4
:100260000000060091018800800078000000eb008b
:1002700015003700e280400032a0b4009101ba00be
:10028000e280400032a0b4009102ba00e280400057
:1002900032a0b4000002eb00472bde00f507b200ed
:1002a000602ce10004003a000059eb008301e900f2
:1002b000fdff3e00040037006128e100010032002c
:1002c0000082eb00040007001101ba000200e00008
:1002d000e8ff3a00000006003159ba008301e90046
:1002e0000c0032002159ba008301e90008003200f5
:1002f0000400e00003003a00e280400032a0b400b5
:10030000f5ff370011d9ba008301e900faff3a007e
:100310008100e800e180400032a0b4000000060047
:1003200000000000000000000040da000000fe00b5
:10033000140020005d003700809fbe00821f7800ff
:100340000001eb0074000700cf027800808abe0035
:100350000001be004f00be0096003a000470a600e7
:100360006000b80003f0a70001f0a0000000060044
:100370000001be00ed0007000470a70003f0a1001b
:1003800003f8a30013003a006509b1001000320021
:10039000090035006928e10002003500010028004d
:1003a0000000050000004000818048008502e9004f
:1003b000fcff3a0000000600f88f420005003500ff
:1003c0008100d1000080d3008502e800fcff3a00e4
:1003d000000006008000eb0000000500889fbe00c2
:1003e0008a9fbe008c1f7800e5000700ec003300f8
:1003f00003866c006450e100240032006420e100b8
:10040000270032006150e100220032006120e1004b
:10041000210032008b854200eb07b1000134b800a7
:10042000003ab8000804420089844a00013ab80042
:100430000030b8008880400009014a000400330001
:100440000000400081804800020149008b05e9005e
:10045000c909dd0083017000010032001300200093
:10046000c814de004814dd004709de001200b200a7
:10047000c808de0008847000d900070001f0a10060
:100480000cf0a70001f0a000ce0037006120e100d1
:10049000d00032000801be000200be00f7ff3700a6
:1004a0006150e100fcff3a00ca003700889fbe009f
:1004b0008a9fbe00841f7800b10007004f007800bb
:1004c00011003300f0ff2f00838f6c0006003b000b
:1004d000040565000a00a7000800370009f0a6001f
:1004e0001000200008003700820f5400838f5c004a
:1004f000030039001000200001003e000000200031
:1005000009f0a7000000ea004f05be004f04be003e
:100510000000e00000000600889fbe008a9fbe0029
:100520000003be008100070085057800828152002b
:10053000020020006220e10004003a00f307b1004d
:10054000040035007718e100040035000600be0005
:10055000140037006000b8000f003700f50f2000ce
:10056000faff2f008502d1000a85d3008301e9003c
:10057000fcff3b008184620000046500890f740069
:10058000f2ff32008582ea000a85ea008184620077
:10059000000465009200070007f0a70001f0a0002a
:1005a0000081eb000200e0004f05be004f04be00da
:1005b0000000060003f0a200889fbe008a9fbe00d4
:1005c0008c1f78006e000700750033006450e10056
:1005d0004f0032006420e1005200320003826c00c0
:1005e00007003b000905d0000306d000820f54002d
:1005f0000c065d000200390002003200890178001b
:10060000030678008582550004003d000003fd00cc
:100610008103fd008502ea008b854200840f720091
:1006200002003b0060001000e08018006011b8007c
:100630000005eb007a28e1000a0039000600780086
:10064000c75ddd00f707b200878075002d00370019
:10065000828171000a017800610560008180d1000b
:100660000080d3008502e900f9ff3b00060440004a
:100670008784480002003b0060041400e0841c00f2
:100680000988a300070032008a817100828171000d
:10069000610164008904d1000884d3008b05e8005f
:1006a000170037000978a30013003a000b00e000a0
:1006b000130034008b05e9000804440089844c00d1
:1006c0000a4474000978a3000d003a000b00e00012
:1006d000070034008b05e9000804440089844c00bd
:1006e00001003a000b0020000978a300f7ff320058
:1006f0000001eb0002003700828171000a017800de
:10070000370007000cf0a70001f0a0002d00370013
:100710006420e10002003a00838f6c002d0033005a
:100720000801be000200be0026003700c70ade0036
:10073000f107b200f50fb20008003200e1cf42002d
:10074000020032000170a00024000500810f70003b
:10075000010032000408050044000500810f70000c
:1007600002003a00140005008502e9000000400084
:1007700081c04800fcff3b000170a0002400050080
:100780000004be00e9ff07000003be000405be0030
:100790000200be00e5ff0700844f75000000060060
:1007a0000200be006450e100050036006420e10054
:1007b000020036000968a30001003a000800be00ec
:1007c0000160a0004f0678004f05be004f04be0038
:1007d00000000600f0ff2f00f1ff2700f9ff3700af
:1007e00081002000618055000b003d000b002000bf
:1007f00061fe2f000100e1001d00340082817100c4
:10080000610164008904d1000884d3000000e8007d
:10081000faff3a00710020006100640003007000dc
:10082000020060000900320061044400e0844c00d2
:100830000988a500050032008b05e8006808e10082
:1008400002003a008904d1000884d300f20f20008e
:100850000258e10005003d00c75ddd00f907b20068
:100860008980750008007800000006000bf827005a
:100870008b007800000005008001eb0002003700cb
:10088000817178008301e800828f5100fcff3a00fb
:04089000000006005e
:020000040000fa
:0200000401f009
:04000000f6bf000047
:020000040000fa
:0200000401f009
:04000400ff7f00007a
:020000040000fa
:0200000401f009
:04000800fcff0000f9
:020000040000fa
:0200000401f009
:04001400ffff0000ea
:020000040000fa
:100008009401000094010000940100009401000094
:100018009401000094010000940100009401000084
:10002800940100009401000094010000e20e000019
:1000380094010000940100000e0f000094010000dc
:100048009401000094010000940100009401000054
:10005800940100009401000094010000020c0000cb
:100068009401000094010000940100009401000034
:100078009401000094010000940100009401000024
:100088009401000094010000940100009401000014
:100098009401000094010000940100009401000004
:1000a80094010000940100009401000094010000f4
:1000b80094010000940100009401000094010000e4
:1000c80094010000940100009401000094010000d4
:1000d80094010000940100009401000094010000c4
:1000e80094010000940100009401000094010000b4
:0800f8009401000094010000d6
:020000040000fa
:100108009401000094010000940100009401000093
:100118009401000094010000940100009401000083
:10012800940100009401000094010000e20e000018
:1001380094010000940100000e0f000094010000db
:100148009401000094010000940100009401000053
:10015800940100009401000094010000020c0000ca
:100168009401000094010000940100009401000033
:100178009401000094010000940100009401000023
:100188009401000094010000940100009401000013
:100198009401000094010000940100009401000003
:1001a80094010000940100009401000094010000f3
:1001b80094010000940100009401000094010000e3
:1001c80094010000940100009401000094010000d3
:1001d80094010000940100009401000094010000c3
:1001e80094010000940100009401000094010000b3
:0801f8009401000094010000d5
:020000040000fa
:100894000001000002040000082800000c01000010
:1008a400060000000000000000000000000000003e
:1008b4000000000000000000000000000000000034
:1008c4000000000000000000000000000000000024
:1008d4000020000020200000202000002020000034
:1008e4002020000020200000202000002020000004
:1008f400200a00002020000020200000202000000a
:1009040020200000202000002020000020200000e3
:0809140020200000000000009b
:020000040000fa
:10091c000200fa00000f780002003700000000000f
:10092c001e0fe9001e00e000fcff3a000080fa00f8
:10093c00000006000200fa00000f780003003700e8
:10094c0080002000f2ff07001e0fe9001e00e000ef
:10095c00fbff3a000080fa00000006000200fa00db
:10096c00000f780003003700803e2000f1ff0700e5
:10097c001e0fe9001e00e000fbff3a000080fa00a9
:10098c00000006000000fa000000eb0030168800a2
:10099c000000eb00901688000080fa0000000600b2
:1009ac000800fa0060479800a044280004000900e1
:1009bc00305f78005e00b1006e4090000080fb005c
:1009cc000e004000104078000080fb00b01688003c
:1009dc000080fa00000006000600fa00004f7800c4
:1009ec001e00fb006101b90020fd2f00f1ff2f005c
:1009fc0002014000838148001207980023079800e9
:100a0c00b0002000010020001e019000ae019000fb
:100a1c00800f5100818f590031003e001e00900064
:100a2c00ae00900000600100290037002c00370058
:100a3c00090037000b0037000d0037000f0037009e
:100a4c00110037001300370015003700170037006e
:100a5c00190037001b003700f003200050168800e7
:100a6c002100370060002000501688001e0037005f
:100a7c00b0052000501688001b003700f004200041
:100a8c0050168800180037006006200050168800a9
:100a9c0015003700d00620005016880012003700d1
:100aac00d0072000501688000f003700700020007f
:100abc00501688000c003700f007200050168800f4
:100acc000900370070062000501688000600370019
:100adc00501680000008b000501688000200370045
:100aec000000eb00501688000080fa0000000600a1
:100afc000000fa0080ff2f00f01688000080fa003a
:100b0c00000006000200fa00600f20001017880099
:100b1c000040800010007800680060000000e000d9
:100b2c0003003a0010032000000f78006400370027
:100b3c000040800010007800700060000000e000b1
:100b4c0003003a0040032000000f78005c003700df
:100b5c0000408000900078000002200000806000bf
:100b6c000000e00003003a0070032000000f780042
:100b7c0053003700004080009000780000042000f3
:100b8c00008060000000e00003003a00a00220009a
:100b9c00000f78004a003700500f20001017880013
:100bac000040800010007800680060000000e00049
:100bbc0003003a0020032000000f780040003700ab
:100bcc000040800010007800700060000000e00021
:100bdc0003003a0050032000000f78003800370063
:100bec00004080009000780000022000008060002f
:100bfc000000e00003003a0080032000000f7800a2
:100c0c002f00370000408000900078000004200086
:100c1c00008060000000e00003003a0000032000a8
:100c2c00000f780026003700300f200010178800c6
:100c3c000040800010007800680060000000e000b8
:100c4c0003003a0030032000000f78001c0037002e
:100c5c000040800010007800700060000000e00090
:100c6c0003003a0060032000000f780014003700e6
:100c7c00004080009000780000022000008060009e
:100c8c000000e00003003a0090032000000f780001
:100c9c000b0037000040800090007800000420001a
:100cac00008060000000e00003003a0030022000e9
:100cbc00000f7800020037000000eb00000f7800f6
:100ccc001e0078000080fa00000006000200fa0006
:100cdc00004f7800114080001e4178006f40610089
:100cec000080fb006f01600000ff2f009108600086
:100cfc00910871001000200005ff0700dca2a8007d
:100d0c00200020000bff0700dca2a9000080fa00e5
:100d1c00000006000200fa00004f7800114798000e
:100d2c00200020000dff07009e40780061c060008d
:100d3c00614060004401dd00c12d2000914078002d
:100d4c00f0ceb30000c0600002407000dce2b700df
:100d5c0010002000eefe0700dca2a9001e4090004f
:100d6c000080fb004400de00d8ff07001e4090000e
:100d7c006f406000d5ff07000080fa0000000600fd
:100d8c000200fa000080eb00401588000000eb0028
:100d9c0030168800d882a900d8a2a900dc82a9004c
:100dac0010002000dafe0700dca2a900f0002000f1
:100dbc00eafe07000040eb00004f7800050037000a
:100dcc0030c0b300c1ff0700f0002000e3fe0700b5
:100ddc001e4fe80020c0b3009e4f1000f8ff3600f5
:100dec0020c0b300b9ff07000040eb00004f7800b3
:100dfc00060037001e80fb00f1442800e0c078009c
:100e0c000040eb00c3ff07001e4fe80030c0b300ea
:100e1c009e4f1000f7ff36000080fa00000006001d
:100e2c000400fa0020479800314798003e4090009b
:100e3c00e14f50000300320000c4b300004f7800b3
:100e4c00020037000040eb00004f78002e4090006d
:100e5c001e4040000040e900004f780000c8b3007d
:100e6c009e4070000040eb00aaff07000080fa00d3
:100e7c00000006000800fa0020479800210798009f
:100e8c002e4090000080fb00300798003e00900040
:100e9c00e30f5000260032003e009000e30f50009c
:100eac000a003c003e009000e10f50001800320098
:100ebc003e009000e10f500019003c003e009000f5
:100ecc000000e0000e0032002c0037003e009000c5
:100edc00e50f50001e0032003e009000e50f500060
:100eec00170035003e009000e60f50001c00320049
:100efc003e009000e70f50001d0032001f0037002d
:100f0c0001c4b3000040eb0082ff07001b00370058
:100f1c0081c4b3000040eb007eff070017003700d0
:100f2c0001c5b3000040eb007aff07001300370047
:100f3c0081c5b3000040eb0076ff07000f003700bf
:100f4c0001c6b3000040eb0072ff07000b00370036
:100f5c0081c6b3000040eb006eff070007003700ae
:100f6c0001c7b3000040eb006aff07000300370025
:100f7c0081c7b3000040eb0066ff07000040eb00a8
:100f8c00004f78000a0037001e80fb000000400074
:100f9c00800078002e009000008040001000780047
:100fac008040780010c0b3005aff07001e4fe800c5
:100fbc0070c0b3009e4f1000f3ff360001c8b300a1
:100fcc000040eb0053ff07000080fa000000060011
:100fdc001200fa000057980040452800070009004d
:100fec00301f78000e01b1008e0078000e5090007a
:100ffc00a0ff07000080fa00000006000200fa00c3
:10100c00004f78009e40780010c0b30041ff0700ed
:10101c000080fa00000006000400fa00004f78007f
:10102c001e00fb00100798009e009000e88f5000f7
:10103c00190032001e009000e80f500005003c0023
:10104c0000fb2f009e009000808f50001600320095
:10105c00190037001e009000ea0f50000a00320001
:10106c009e009000ec8f50000100320012003700ff
:10107c0011c0b3000040eb0026ff07002000200049
:10108c0036fe07000f00370021c0b30010c0b300bc
:10109c0063ff07000b00370001c1b3000040eb00f9
:1010ac001cff070007003700f1cdb30010c0b300e0
:1010bc0018ff0700030037009e40780010c0b300f3
:1010cc0014ff07000080fa00000006000200fa007e
:1010dc00000f7800040037001e00780010407800e4
:1010ec00cdff07001e0fe8001e00780010407800ae
:1010fc000004e000f8ff3a000080fa00000006004f
:10110c000200fa00004f78009e4078000040eb008f
:10111c0000ff07000080fa00000006004000fa0003
:10112c0068005700300f9800910137004eb89700b7
:10113c00104078008000fb0050022000808f50008f
:10114c0001003200840137004eb897000000e8001f
:10115c0040bf9f004eb897009040780050c7b30036
:10116c0080cf50005d003a00f80047004046280050
:10117c00904878000100e8008040eb0001487800be
:10118c000000e8008040eb00014878000000e80017
:10119c008040eb00014878000000e8008040eb0044
:1011ac00014878000000e8008040eb00014878001e
:1011bc000000e8008040eb00014878000040eb00a4
:1011cc00405798003e0890000080e900300f9800ce
:1011dc003e08900090007800110f98009e08900037
:1011ec00f0702200808f50000300360040c0b30026
:1011fc00405798002b0037009e089000703e20004e
:10120c00808f50000300360030c0b3004057980068
:10121c00240037009e08900030062000808f50007c
:10122c000300360020c0b300405798001d00370063
:10123c001e089000e90f50000300360010c0b300e8
:10124c0040579800170037000040eb0040579800bb
:10125c00140037004e5090008001fb001e089000d7
:10126c00a2002000110009000280d8008000fd00bf
:10127c000043b000804078007800470000804100b7
:10128c00014878001e089000a200200011000900ff
:10129c000280d800100f98004e5090000040e900da
:1012ac00405798001e089000e90f5000e9ff3e00df
:1012bc004e5090000001fb001e0890000043b0004f
:1012cc008040780078004700000041000148780019
:1012dc00780047007dff0700220137004eb89700c9
:1012ec009040780040c6b30080cf50006d003a00ab
:1012fc00ff00470040462800904878000100e800b5
:10130c008040eb00014878000000e8008040eb00d2
:10131c00014878000000e8008040eb0001487800ac
:10132c000000e8008040eb00014878000000e80075
:10133c008040eb00014878000000e8008040eb00a2
:10134c00014878000000e8008040eb00014878007c
:10135c000000e8008040eb00014878000040eb0002
:10136c00005798003e0890000080e900300f98006c
:10137c003e08900010017800720798007e009000e3
:10138c000000e00008003d007e0090000000ea0034
:10139c0070079800ff004700d0c2b3008048780067
:1013ac0010c0b30000579800fe009000f0702200af
:1013bc00808f5000040034000e50900064404000b8
:1013cc00005798002a003700fe009000703e200065
:1013dc00808f5000040034000e5090006340400099
:1013ec000057980022003700fe00900030062000c5
:1013fc00808f5000040034000e50900000c0e800b4
:10140c00005798001a0037007e009000e90f50003a
:10141c00170034000e5090000040e8000057980070
:10142c00130037000e5090008001fb007e009000ee
:10143c00a2002000110009000200d8008000fd006d
:10144c0002c3b300824040007f00470081717800e6
:10145c007e009000a2002000110009000200d800bc
:10146c00700798000e5090000040e900005798005b
:10147c007e009000e90f5000eaff3c000e509000f7
:10148c000001fb007e00900003c3b30083404000ca
:10149c007f004700017178007f0047000bff0700b9
:1014ac00b00037004eb897009040780060c6b3008b
:1014bc0080cf5000a4003a00810220008e804000b2
:1014cc0040462800904878000100e80032012000d6
:1014dc008000eb00e5fc07000040eb00504f98004b
:1014ec0040c0b300404f98003e089000640050008c
:1014fc00300f98003e0890001001be004207980083
:10150c00530798006011b8004e009000de00900068
:10151c0084fb07000000e000010035000c003700e0
:10152c004e009000de00900001f0a20040079800f1
:10153c0051079800810220008e804000d0c2b30079
:10154c00804878005e4890000040e800504f9800ba
:10155c00c20320000e0141004e009000de009000fe
:10156c0072fb070020079800310798006e18900056
:10157c00fe1890007bfb0700100798009e0090005f
:10158c00f0702200808f5000040036005e489000fe
:10159c0064404000504f9800160037009e009000a9
:1015ac00703e2000808f5000040036005e48900092
:1015bc0063404000504f98000e0037009e00900092
:1015cc0030062000808f5000040036005e489000ea
:1015dc0000c0e800504f9800060037001e00900035
:1015ec00e90f5000030036005e4890000040e80010
:1015fc00504f980002002000a34724002e009000ba
:10160c00be00900072fb070020079800310798007d
:10161c002e009000be00900052fb0700000f7800d7
:10162c005e4890000000fb008000e8008002200073
:10163c000e00400080804000e0c2b300804878007b
:10164c00180037005e4890008000fb004e48900068
:10165c000000fb00808140001e007800a2002000ea
:10166c00110009000280d8008000fd000043b0008a
:10167c0080407800800220000e0040000080410075
:10168c00014878001e007800a2002000110009001b
:10169c000280d800000f78004e4890000040e9000e
:1016ac00404f98004e489000e14f5000e5ff3c0041
:1016bc00150037005e4890008001fb001e00900072
:1016cc00a2002000110009000280d8008000fd005b
:1016dc000043b00080407800800220000e004000e3
:1016ec0000804100014878001e009000a2002000fc
:1016fc00110009000280d800100798005e48900085
:10170c000040e900504f98001e009000e90f500077
:10171c00e8ff3e005e4890000001fb001e009000b8
:10172c000043b00080407800800220000e00400092
:10173c000000410001487800800220000e004000ab
:10174c0062fe0700070037004eb897001040780083
:10175c0031fe0700030037004eb8970010407800a8
:10176c002dfe07004eb897000000e80040bf9f0018
:10177c004eb89700104078000004e0006bfe3a0071
:10178c000080fa00000006000000fa0011c0b3004f
:10179c0010c0b300a2fd0700b0462800801f7800df
:1017ac005efe07008f87e90011c0b30010c0b300c4
:1017bc009bfd07000080fa00000006000000fa0004
:1017cc000000eb005050880010002000000688003c
:1017dc0085e0a9008de0a8000080fa00000006005a
:1017ec000200fa00000f78001e007800705088008c
:1017fc000080fa00000006003600f800809fbe0052
:10180c00829fbe00849fbe00869fbe000200fa002d
:10181c00cfc2bf000044b2000004e00050003a0008
:10182c0010508000000f78001e007800e20f50006e
:10183c002c0032001e007800e30f50003c003200f8
:10184c001e007800e10f50000b003200cfc2bf0029
:10185c000042b2000004e00041003a008000200089
:10186c00305088000000eb00405088001000200031
:10187c00105088003a00370004cabf000080fb00fb
:10188c000000d10004eab700cfc2bf000042b20092
:10189c000004e0000500320004cabf00804078005c
:1018ac0000c8b30000c0400004eab70004cabf007f
:1018bc008080fb0040508000008068004050880011
:1018cc00305080000000e90030508800305080001b
:1018dc000000e00022003a00200020001050880098
:1018ec001f003700cfc2bf000042b2000004e0006e
:1018fc000400320040508000010820000100680004
:10190c0040508800405080004700de0061006000bd
:10191c000004e0000300320030002000105088006a
:10192c000f0037000000eb00105088000c0037004f
:10193c00cfc2bf000042b2000004e000060032003b
:10194c0004cabf000ceab7001000200050508800f9
:10195c0070508000000001000000eb001050880067
:10196c0085e0a9000080fa004f03be004f02be00c4
:10197c004f01be004f00be003600f90000400600cb
:10198c000000fa0080ff070004c8bf008080fb0045
:10199c00d00720000088b9008000780090802000db
:1019ac007900400000804000801f7800dbfd0700bc
:1019bc008f87e900a0c0b30097fd070004c8bf00e3
:1019cc008080fb00d00720000088b900000178005f
:1019dc0005c8bf000080fb007900b9008000410001
:1019ec00908020002003b00000804000801f780011
:1019fc00cafd07008f87e9000080fa00000006008e
:101a0c000600fa0004c8bf000080fb002007980005
:101a1c002e009000e10f5000170032002e009000b5
:101a2c00e10f500004003c002e0090000000e0008c
:101a3c0008003200480037002e009000e20f5000e2
:101a4c00270032002e009000e30f50003a003200c5
:101a5c0041003700418020009140780005c8bf004c
:101a6c0000c040000040e80004e8b7000040eb0074
:101a7c0005e8b7003800370005c8bf000080fb0040
:101a8c00100798001e009000e10f50000a00320071
:101a9c001e009000e20f50000a0032001e00900061
:101aac000000e000010032000800370020c0b30045
:101abc0006e8b7000500370010c0b30006e8b70011
:101acc00020037000040eb0006e8b7000040eb00d6
:101adc0004e8b7000040eb0005e8b7001e00370033
:101aec0005c8bf000080fb00000f78001e007800c6
:101afc000000e000040032001e007800e10f5000ee
:101b0c000500320007003700000328002008880079
:101b1c00dc62a800030037000003200020088800c6
:101b2c00dc62a9000040eb0004e8b7000040eb00c9
:101b3c0005e8b700080037000040eb0007e8b700e5
:101b4c000040eb0008e8b7000040eb0004e8b700e9
:101b5c000040eb0005e8b7000080fa00000006002a
:101b6c000400fa000000eb00505088000040eb002d
:101b7c00004f78000ccabf000080fb0010079800d3
:101b8c00600620009e009000808f500046003200be
:101b9c00600620009e009000808f50000a003c00e0
:101bac001e009000fa0f50006c0032009e00900056
:101bbc00fc8f5000560032001e009000f50f5000b4
:101bcc004000320077003700300720009e00900064
:101bdc00808f500030003200500720009e00900093
:101bec00808f500005003200200720009e009000de
:101bfc00808f5000180032006a00370005c8bf0003
:101c0c000081fb0004c8bf008080fb00e09f200027
:101c1c0000804000104078000080fb000000410074
:101c2c008001e90004c8bf008080fb00e09f200019
:101c3c0000804000104078000081fb00110009007a
:101c4c008201d8008000fd0005e8b70010c0b30089
:101c5c00004f78005300370005c8bf000080fb0020
:101c6c008001e80004c8bf008080fb00e09f2000da
:101c7c0000804000104078000081fb00110009003a
:101c8c008201d8008000fd0005e8b70010c0b30049
:101c9c00004f78004300370059ff070010c0b30015
:101cac00004f78003f0037000040eb0004e8b7001d
:101cbc000040eb0005e8b70010c0b300004f7800ff
:101ccc003800370004c8bf008080fb00e09f200074
:101cdc0000804000104078000004e0003100320029
:101cec0005c8bf000004e00004003a0044ff0700f0
:101cfc000040eb0005e8b700020037000040eb00a5
:101d0c0005e8b70010c0b300004f7800250037007d
:101d1c0004c8bf008080fb00e09f200000804000d2
:101d2c0010407800e14f50001e00360005c8bf007f
:101d3c00e14f500004003a0031ff07000040eb0077
:101d4c0005e8b7000200370010c0b30005e8b70083
:101d5c0010c0b300004f78001200370004c8bf0059
:101d6c008080fb00e09f2000008040001040780045
:101d7c00e24f50000b00360005c8bf00e24f500088
:101d8c0004003a001eff07000040eb0005e8b70016
:101d9c000200370020c0b30005e8b70010c0b30044
:101dac00004f78001e04e00001003200f4fe070032
:101dbc000080fa0000000600809fbe00821f7800a1
:101dcc000000fa008460a900dcc2bf000080fb00a8
:101ddc004300de006140600000c0ea00614060002a
:101dec00614060004301dd00c12d2000914078006e
:101dfc0070cfb30000c0600002407000dce2b7009e
:101e0c000080fa004f0178004f00be000040060031
:101e1c00809fbe00821f78000200fa0084c0a900d7
:101e2c0006c8bf000080fb00000f78001e00780081
:101e3c00e10f5000130032001e007800e20f50003a
:101e4c00210032001e0078000000e000010032008a
:101e5c0021003700dcc2bf00624060000004e000db
:101e6c0004003200dc22a9000078250060088800fc
:101e7c0029003700dc22a8000058220060088800e6
:101e8c0025003700dcc2bf000080fb000000d10041
:101e9c006140600000c0ea00614060006140600089
:101eac0000414000c12d200091407800d0cfb300fc
:101ebc0000c0600002407000dce2b70000e82300c4
:101ecc006008880014003700dc22a8000090210074
:101edc006008880010003700dcc2bf000080fb00e7
:101eec000000d1006140600000c0ea006140600069
:101efc006140600000414000c12d200091407800fd
:101f0c00d0cfb30000c0600002407000dce2b7002c
:101f1c0000e82300600888000080fa004f01780078
:101f2c004f00be00004006000000fa0094fb0700c2
:101f3c000000eb0050508800cdc2a800cda2a80034
:101f4c000000eb00c01688000000eb0020048800a5
:101f5c008c60a800610480000004200000807000e8
:101f6c006004880000e82300600888000000280056
:101f7c008008880000032000200888000ffe07005e
:101f8c0060db200016fe07007dfe07000000370016
:101f9c0004c8bf00e34f5000fdff3a0007c8bf0064
:101fac000080fb000000e800a201200011000900e5
:101fbc000200d8008000fd0007e8b70020032000d5
:101fcc0066fa070008c8bf000040e80008e8b70040
:101fdc0021c0b30010c0b30091fb070004c8bf00c0
:101fec008080fb00d00720000088b9000001780039
:101ffc0005c8bf000080fb007900b900000041005b
:10200c008000780007c8bf000080fb008080400083
:10201c00908020002003b00000804000801f7800da
:10202c003efc07008f87e90000c2b300fafb0700f3
:10203c00818020009140780020c3b30080cf5000f5
:10204c00d3ff3a000040eb0004e8b7000040eb007f
:0c205c0005e8b7004afe0700cdff370082
:020000040000fa
:10206800000800000202000002000000e002ca00ae
:102078000200000000000000310000000000000025
:102088000000000000000000000000000000000048
:1020980000000000000000000050450052494600c2
:1020a80045524900434f5300000000000000000063
:1020b80000000000000000000000610029566500d3
:1020c8006e746f00696e6800612028005129000055
:1020d800000000000000000000000000622942002b
:1020e800757a7a00657220002841290000000000f6
:1020f800000000000000000000000000006329004c
:102108004d656e0073616700656d2000285a2900cf
:102118000000000000000000000000000000320085
:1021280000000000000000000000000000000000a7
:102138000000000000000000000000000000000097
:1021480056454e00544f49004e48410000000000db
:102158000000000000000000000000000000000077
:10216800003129004475740079637900636c650057
:10217800203130003025250020285100290000009a
:1021880000003200294475007479630079636c009b
:102198006520350030252500202841002900000051
:1021a80000000000332944007574790063796300e6
:1021b8006c65200033302500252028005a290000ae
:1021c80000000000003300000000000000000000d4
:1021d80000000000000000000000000000000000f7
:1021e8000000000000004200555a5a004552000005
:1021f80000000000000000000000000000000000d7
:102208000000000000000000312941006c746500e6
:10221800726e610020656d00203273002028510025
:102228002900000000000000003229004465730006
:102238006c69670061202800412900000000000047
:102248000000000000000000000000000000000086
:102258000000000000000000000000000000000076
:102268000000000000000000000000003400000032
:102278000000000000000000000000000000000056
:10228800000000000000000000000000004d4500b4
:102298004e53410047454d0000000000000000007b
:1022a80000000000000000000000000000004d00d9
:1022b800696372006f636f006e7472006f6c610007
:1022c800646f72006573200032303100332d3100a5
:1022d80000000000000000000000000000000000f6
:1022e80000000000000000000000000000000000e6
:1022f80000000000000000000000000000000000d6
:1023080000000000000000000000000000000000c5
:10231800000004000303020001000000020a00009c
:0c2328000e00000000000000000000009b
:00000001FF
