:020000040000fa
:080000000001040000000000f3
:020000040000fa
:100200004f8120000eff20000e018800000000003a
:100210000c00070080022100010020001f000700e1
:10022000000020000000e000020032000000020098
:1002300000000000e60d0200000000000040da00af
:100240000000fe004440a900c00a20000000e000b9
:100250000300320000002000a00188004440a800f4
:1002600000000600f03fb1000180b100060035003b
:10027000ee03090000000000403fb1000180b10022
:10028000fbff3d001000b000203fb0000200350031
:1002900000800900000000000000060091018800b5
:1002a000800078000000eb0015003700e28040007d
:1002b00032a0b4009101ba00e280400032a0b40044
:1002c0009102ba00e280400032a0b4000002eb00cc
:1002d000472bde00f507b200602ce10004003a0075
:1002e0000059eb008301e900fdff3e0004003700e8
:1002f0006128e100010032000082eb0004000700e9
:100300001101ba000200e000e8ff3a000000060018
:100310003159ba008301e9000c0032002159ba00ba
:100320008301e900080032000400e00003003a0005
:10033000e280400032a0b400f5ff370011d9ba00c6
:100340008301e900faff3a008100e800e180400003
:1003500032a0b400000006000040da000000fe00f9
:100360001400200088003700809fbe00821f7800a4
:100370000001eb009f000700cf027800808abe00da
:100380000001be004f00be00c1003a000470a6008c
:100390006000b80003f0a70001f0a0000000060014
:1003a0000001be00180107000470a70003f0a100bf
:1003b00003f8a30013003a006509b10010003200f1
:1003c000090035006928e10002003500010028001d
:1003d0000000050000004000818048008502e9001f
:1003e000fcff3a0000000600f88f420005003500cf
:1003f0008100d1000080d3008502e800fcff3a00b4
:10040000000006008000eb0000000500889fbe0091
:100410008a9fbe008c1f780010010700170133006f
:1004200003866c006450e100240032006420e10087
:10043000270032006150e100220032006120e1001b
:10044000210032008b854200eb07b1000134b80077
:10045000003ab8000804420089844a00013ab80012
:100460000030b8008880400009014a0004003300d1
:100470000000400081804800020149008b05e9002e
:10048000c909dd0083017000010032001300200063
:10049000c814de004814dd004709de001200b20077
:1004a000c808de00088470000401070001f0a10004
:1004b0000cf0a70001f0a000f90037006120e10076
:1004c000fb0032000801be000200be00f7ff37004b
:1004d0006150e100fcff3a00f5003700889fbe0044
:1004e0008a9fbe00010578000100e000040035008d
:1004f00008003c000000e00020003200050037004a
:1005000060001000e080180002003b0001f02c00a9
:100510001a0037000004be006011b8006b0920000b
:100520000982cf00020039000882cf000441b000e8
:10053000694252000e00320008003b0082817100c7
:10054000610164008904d1000884d3008b05e800b0
:100550000442e800f9ff3a000500370008044400af
:1005600089844c008b05e9000442e900fbff3a0056
:10057000d20007000af0a70001f0a0004f05be005e
:100580004f04be0000000600889fbe008a9fbe0088
:10059000841f7800b10007004f007800110033007d
:1005a000f0ff2f00838f6c0006003b000405650000
:1005b0000a00a7000800370009f0a600100020007c
:1005c00008003700820f5400838f5c00030039005d
:1005d0001000200001003e000000200009f0a700ec
:1005e0000000ea004f05be004f04be000000e0001e
:1005f00000000600889fbe008a9fbe000003be0068
:1006000081000700850578008281520002002000e9
:100610006220e10004003a00f307b1000400350055
:100620007718e100040035000600be001400370012
:100630006000b8000f003700f50f2000faff2f0010
:100640008502d1000a85d3008301e900fcff3b004d
:100650008184620000046500890f7400f2ff32009b
:100660008582ea000a85ea00818462000004650050
:100670009200070007f0a70001f0a0000081eb0046
:100680000200e0004f05be004f04be00000006005f
:1006900003f0a200889fbe008a9fbe008c1f7800d6
:1006a0006e000700750033006450e1004f00320017
:1006b0006420e1005200320003826c0007003b001e
:1006c0000905d0000306d000820f54000c065d001f
:1006d0000200390002003200890178000306780028
:1006e0008582550004003d000003fd008103fd00ec
:1006f0008502ea008b854200840f720002003b00f5
:1007000060001000e08018006011b8000005eb00e8
:100710007a28e1000a00390006007800c75ddd0094
:10072000f707b200878075002d00370082817100c5
:100730000a017800610560008180d1000080d3004b
:100740008502e900f9ff3b00060440008784480069
:1007500002003b0060041400e0841c000988a30030
:10076000070032008a81710082817100610164009a
:100770008904d1000884d3008b05e80017003700f6
:100780000978a30013003a000b00e00013003400c6
:100790008b05e9000804440089844c000a44740075
:1007a0000978a3000d003a000b00e00007003400b8
:1007b0008b05e9000804440089844c0001003a00dc
:1007c0000b0020000978a300f7ff32000001eb00c6
:1007d00002003700828171000a01780037000700ab
:1007e0000cf0a70001f0a0002d0037006420e1000c
:1007f00002003a00838f6c002d0033000801be0018
:100800000200be0026003700c70ade00f107b20072
:10081000f50fb20008003200e1cf420002003200c2
:100820000170a00024000500810f7000010032005b
:100830000408050044000500810f700002003a0022
:10084000140005008502e9000000400081c0480056
:10085000fcff3b000170a000240005000004be0066
:10086000e9ff07000003be000405be000200be0051
:10087000e5ff0700844f7500000006000200be007f
:100880006450e100050036006420e10002003600fb
:100890000968a30001003a000800be000160a00042
:1008a0004f0678004f05be004f04be000000060052
:1008b000f0ff2f00f1ff2700f9ff37008100200033
:1008c000618055000b003d000b00200061fe2f00f1
:1008d0000100e1001d0034008281710061016400ab
:1008e0008904d1000884d3000000e800faff3a0030
:1008f00071002000610064000300700002006000cd
:100900000900320061044400e0844c000988a5001d
:10091000050032008b05e8006808e10002003a009b
:100920008904d1000884d300f20f20000258e100ae
:1009300005003d00c75ddd00f907b2008980750044
:1009400008007800000006000bf827008b007800f4
:10095000000005008001eb00020037008171780083
:100960008301e800828f5100fcff3a00000006007e
:020000040000fa
:0200000401f009
:04000000f6bf000047
:020000040000fa
:0200000401f009
:04000400ff7f00007a
:020000040000fa
:0200000401f009
:04000800fcff0000f9
:020000040000fa
:0200000401f009
:04001400ffff0000ea
:020000040000fa
:10000800ac010000ac010000ac010000ac01000034
:10001800ac010000ac010000ac010000ac01000024
:10002800900d0000200d0000ac010000a00c0000a5
:10003800ac010000ac010000320d0000740d00009e
:10004800ac010000ac010000ac010000ac010000f4
:10005800ac010000ac010000ac010000ac010000e4
:10006800ac010000ac010000ac010000ac010000d4
:10007800ac0100007c0d0000ac010000c40d0000c4
:10008800ac010000ac010000ac010000ac010000b4
:10009800ac010000ac010000ac010000ac010000a4
:1000a800ac010000ac010000ac010000ac01000094
:1000b800ac010000ac010000ac010000ac01000084
:1000c800ac010000ac010000ac010000ac01000074
:1000d800ac010000ac010000ac010000ac01000064
:1000e800ac010000ac010000ac010000ac01000054
:0800f800ac010000ac010000a6
:020000040000fa
:10010800ac010000ac010000ac010000ac01000033
:10011800ac010000ac010000ac010000ac01000023
:10012800900d0000200d0000ac010000a00c0000a4
:10013800ac010000ac010000320d0000740d00009d
:10014800ac010000ac010000ac010000ac010000f3
:10015800ac010000ac010000ac010000ac010000e3
:10016800ac010000ac010000ac010000ac010000d3
:10017800ac0100007c0d0000ac010000c40d0000c3
:10018800ac010000ac010000ac010000ac010000b3
:10019800ac010000ac010000ac010000ac010000a3
:1001a800ac010000ac010000ac010000ac01000093
:1001b800ac010000ac010000ac010000ac01000083
:1001c800ac010000ac010000ac010000ac01000073
:1001d800ac010000ac010000ac010000ac01000063
:1001e800ac010000ac010000ac010000ac01000053
:0801f800ac010000ac010000a5
:020000040000fa
:100970000001000002040000082800000c01000033
:100980000600000000000000000000000000000061
:100990000000000000000000000000000000000057
:1009a0000000000000000000000000000000000047
:1009b000004d00004f4400004f3a0000205000005e
:1009c000415200004144000041200000202000006e
:1009d0000a00000025640000202000002020000004
:1009e0000020000020200000202000002020000027
:1009f00020720000706d0000004d00004f440000a8
:100a00004f3a000020560000454c00004f5a0000ad
:100a100020380000302500000a0000004d4f000083
:100a2000444f00003a2000004d45000044490000ba
:100a30004120000035300000250a0000004d000074
:100a40004f4400004f3a0000204c0000454e00008b
:100a50005441000020330000302500000a0000004f
:100a60007c7c00007c7c00007c7c0000202000005e
:100a70002020000020200000202000002020000076
:100a8000007c00007c7c00007c7c00007c7c000002
:100a90007c7c00007c200000202000002020000042
:100aa000200000007c7c00007c7c00007c7c00003e
:100ab0007c7c00007c7c00007c7c00007c7c000056
:080ac0007c7c00000000000036
:020000040000fa
:100ac8000200fa00000f7800020037000000000062
:100ad8001e0fe9001e00e000fcff3a000080fa004b
:100ae800000006000200fa00000f7800030037003b
:100af80080002000f2ff07001e0fe9001e00e00042
:100b0800fbff3a000080fa00000006000200fa002d
:100b1800000f780003003700803e2000f1ff070037
:100b28001e0fe9001e00e000fbff3a000080fa00fb
:100b3800000006000000fa000000eb0030168800f4
:100b48000000eb00901688000080fa000000060004
:100b58000800fa0060479800804b2800040009004c
:100b6800305f78005e00b1006e4090000080fb00ae
:100b78000e004000104078000080fb00b01688008e
:100b88000080fa00000006000600fa00004f780016
:100b98001e00fb006101b90020fd2f00f1ff2f00ae
:100ba800020140008381480012079800230798003b
:100bb800b0002000010020001e019000ae0190004e
:100bc800800f5100818f590031003e001e009000b7
:100bd800ae00900000600100290037002c003700ab
:100be800090037000b0037000d0037000f003700f1
:100bf80011003700130037001500370017003700c1
:100c0800190037001b003700f00320005016880039
:100c18002100370060002000501688001e003700b1
:100c2800b0052000501688001b003700f004200093
:100c380050168800180037006006200050168800fb
:100c480015003700d0062000501688001200370023
:100c5800d0072000501688000f00370070002000d1
:100c6800501688000c003700f00720005016880046
:100c7800090037007006200050168800060037006b
:100c8800501680000008b000501688000200370097
:100c98000000eb00501688000080fa0000000600f3
:100ca8000000fa0080ff2f00f01688000080fa008c
:100cb800000006000200fa00600f200010178800ec
:100cc8000040800010007800680060000000e0002c
:100cd80003003a0010032000000f7800640037007a
:100ce8000040800010007800700060000000e00004
:100cf80003003a0040032000000f78005c00370032
:100d08000040800090007800000220000080600011
:100d18000000e00003003a0070032000000f780094
:100d28005300370000408000900078000004200045
:100d3800008060000000e00003003a00a0022000ec
:100d4800000f78004a003700500f20001017880065
:100d58000040800010007800680060000000e0009b
:100d680003003a0020032000000f780040003700fd
:100d78000040800010007800700060000000e00073
:100d880003003a0050032000000f780038003700b5
:100d98000040800090007800000220000080600081
:100da8000000e00003003a0080032000000f7800f4
:100db8002f003700004080009000780000042000d9
:100dc800008060000000e00003003a0000032000fb
:100dd800000f780026003700300f20001017880019
:100de8000040800010007800680060000000e0000b
:100df80003003a0030032000000f78001c00370081
:100e08000040800010007800700060000000e000e2
:100e180003003a0060032000000f78001400370038
:100e280000408000900078000002200000806000f0
:100e38000000e00003003a0090032000000f780053
:100e48000b0037000040800090007800000420006c
:100e5800008060000000e00003003a00300220003b
:100e6800000f7800020037000000eb00000f780048
:100e78001e0078000080fa00000006000200fa0058
:100e8800004f7800114080001e4178006f406100db
:100e98000080fb006f01600000ff2f0091086000d8
:100ea800910871001000200005ff0700dca2a800cf
:100eb800200020000bff0700dca2a9000080fa0038
:100ec800000006000200fa00004f78001147980061
:100ed800200020000dff07009e40780061c06000e0
:100ee800614060004401dd00c12d20009140780080
:100ef800f0ceb30000c0600002407000dce2b70032
:100f080010002000eefe0700dca2a9001e409000a1
:100f18000080fb004400de00d8ff07001e40900060
:100f28006f406000d5ff07000080fa00000006004f
:100f38000200fa000080eb00401588000000eb007a
:100f480030168800d882a900d8a2a900dc82a9009e
:100f580010002000dafe0700dca2a900f000200043
:100f6800eafe07000040eb00004f7800050037005c
:100f780030c0b300c1ff0700f0002000e3fe070007
:100f88001e4fe80020c0b3009e4f1000f8ff360047
:100f980020c0b300b9ff07000040eb00004f780005
:100fa800060037001e80fb00d14b2800e0c0780007
:100fb8000040eb00c3ff07001e4fe80030c0b3003d
:100fc8009e4f1000f7ff36000080fa000000060070
:100fd8000400fa0020479800314798003e409000ee
:100fe800e14f50000300320000c4b300004f780006
:100ff800020037000040eb00004f78002e409000c0
:101008001e4040000040e900004f780000c8b300cf
:101018009e4070000040eb00aaff07000080fa0025
:10102800000006000800fa002047980021079800f1
:101038002e4090000080fb00300798003e00900092
:10104800e30f5000260032003e009000e30f5000ee
:101058000a003c003e009000e10f500018003200ea
:101068003e009000e10f500019003c003e00900047
:101078000000e0000e0032002c0037003e00900017
:10108800e50f50001e0032003e009000e50f5000b2
:10109800170035003e009000e60f50001c0032009b
:1010a8003e009000e70f50001d0032001f0037007f
:1010b80001c4b3000040eb0082ff07001b003700ab
:1010c80081c4b3000040eb007eff07001700370023
:1010d80001c5b3000040eb007aff0700130037009a
:1010e80081c5b3000040eb0076ff07000f00370012
:1010f80001c6b3000040eb0072ff07000b00370089
:1011080081c6b3000040eb006eff07000700370000
:1011180001c7b3000040eb006aff07000300370077
:1011280081c7b3000040eb0066ff07000040eb00fa
:10113800004f78000a0037001e80fb0000004000c6
:10114800800078002e009000008040001000780099
:101158008040780010c0b3005aff07001e4fe80017
:1011680070c0b3009e4f1000f3ff360001c8b300f3
:101178000040eb0053ff07000080fa000000060063
:101188001200fa0000579800204c280007000900b8
:10119800301f78000e01b1008e0078000e509000cc
:1011a800a0ff07000080fa00000006000200fa0015
:1011b800004f78009e40780010c0b30041ff070040
:1011c8000080fa00000006000400fa00004f7800d2
:1011d8001e00fb00100798009e009000e88f50004a
:1011e800190032001e009000e80f500005003c0076
:1011f80000fb2f009e009000808f500016003200e8
:10120800190037001e009000ea0f50000a00320053
:101218009e009000ec8f5000010032001200370051
:1012280011c0b3000040eb0026ff0700200020009b
:1012380036fe07000f00370021c0b30010c0b3000e
:1012480063ff07000b00370001c1b3000040eb004b
:101258001cff070007003700f1cdb30010c0b30032
:1012680018ff0700030037009e40780010c0b30045
:1012780014ff07000080fa00000006000200fa00d0
:10128800000f7800040037001e0078001040780036
:10129800cdff07001e0fe8001e0078001040780000
:1012a8000004e000f8ff3a000080fa0000000600a1
:1012b8000200fa00004f78009e4078000040eb00e2
:1012c80000ff07000080fa00000006004000fa0056
:1012d80068005700300f9800910137004eb897000a
:1012e800104078008000fb0050022000808f5000e2
:1012f80001003200840137004eb897000000e80072
:1013080040bf9f004eb897009040780050c7b30088
:1013180080cf50005d003a00f8004700204d2800bb
:10132800904878000100e8008040eb000148780010
:101338000000e8008040eb00014878000000e80069
:101348008040eb00014878000000e8008040eb0096
:10135800014878000000e8008040eb000148780070
:101368000000e8008040eb00014878000040eb00f6
:10137800405798003e0890000080e900300f980020
:101388003e08900090007800110f98009e08900089
:10139800f0702200808f50000300360040c0b30078
:1013a800405798002b0037009e089000703e2000a0
:1013b800808f50000300360030c0b30040579800bb
:1013c800240037009e08900030062000808f5000cf
:1013d8000300360020c0b300405798001d003700b6
:1013e8001e089000e90f50000300360010c0b3003b
:1013f80040579800170037000040eb00405798000e
:10140800140037004e5090008001fb001e08900029
:10141800a2002000110009000280d8008000fd0011
:101428000043b00080407800780047000080410009
:10143800014878001e089000a20020001100090051
:101448000280d800100f98004e5090000040e9002c
:10145800405798001e089000e90f5000e9ff3e0031
:101468004e5090000001fb001e0890000043b000a1
:10147800804078007800470000004100014878006b
:10148800780047007dff0700220137004eb897001b
:101498009040780040c6b30080cf50006d003a00fd
:1014a800ff004700204d2800904878000100e80020
:1014b8008040eb00014878000000e8008040eb0025
:1014c800014878000000e8008040eb0001487800ff
:1014d8000000e8008040eb00014878000000e800c8
:1014e8008040eb00014878000000e8008040eb00f5
:1014f800014878000000e8008040eb0001487800cf
:101508000000e8008040eb00014878000040eb0054
:10151800005798003e0890000080e900300f9800be
:101528003e08900010017800720798007e00900035
:101538000000e00008003d007e0090000000ea0086
:1015480070079800ff004700d0c2b30080487800b9
:1015580010c0b30000579800fe009000f070220001
:10156800808f5000040034000e509000644040000a
:10157800005798002a003700fe009000703e2000b7
:10158800808f5000040034000e50900063404000eb
:101598000057980022003700fe0090003006200017
:1015a800808f5000040034000e50900000c0e80006
:1015b800005798001a0037007e009000e90f50008d
:1015c800170034000e5090000040e80000579800c3
:1015d800130037000e5090008001fb007e00900041
:1015e800a2002000110009000200d8008000fd00c0
:1015f80002c3b300824040007f0047008171780039
:101608007e009000a2002000110009000200d8000e
:10161800700798000e5090000040e90000579800ad
:101628007e009000e90f5000eaff3c000e50900049
:101638000001fb007e00900003c3b300834040001c
:101648007f004700017178007f0047000bff07000b
:10165800b00037004eb897009040780060c6b300dd
:1016680080cf5000a4003a00810220008e80400004
:10167800204d2800904878000100e8003201200041
:101688008000eb00b1fc07000040eb00504f9800d1
:1016980040c0b300404f98003e08900064005000de
:1016a800300f98003e0890001001be0042079800d5
:1016b800530798006011b8004e009000de009000bb
:1016c80025fb07000000e000010035000c00370092
:1016d8004e009000de00900001f0a2004007980044
:1016e80051079800810220008e804000d0c2b300cc
:1016f800804878005e4890000040e800504f98000d
:10170800c20320000e0141004e009000de00900050
:1017180013fb070020079800310798006e18900007
:10172800fe1890001cfb0700100798009e00900010
:10173800f0702200808f5000040036005e48900050
:1017480064404000504f9800160037009e009000fb
:10175800703e2000808f5000040036005e489000e4
:1017680063404000504f98000e0037009e009000e4
:1017780030062000808f5000040036005e4890003c
:1017880000c0e800504f9800060037001e00900087
:10179800e90f5000030036005e4890000040e80062
:1017a800504f980002002000a34724002e0090000c
:1017b800be00900013fb070020079800310798002f
:1017c8002e009000be009000f3fa0700000f78008a
:1017d8005e4890000000fb008000e80080022000c6
:1017e8000e00400080804000e0c2b30080487800ce
:1017f800180037005e4890008000fb004e489000bb
:101808000000fb00808140001e007800a20020003c
:10181800110009000280d8008000fd000043b000dc
:1018280080407800800220000e00400000804100c7
:10183800014878001e007800a2002000110009006d
:101848000280d800000f78004e4890000040e90060
:10185800404f98004e489000e14f5000e5ff3c0093
:10186800150037005e4890008001fb001e009000c4
:10187800a2002000110009000280d8008000fd00ad
:101888000043b00080407800800220000e00400035
:1018980000804100014878001e009000a20020004e
:1018a800110009000280d800100798005e489000d7
:1018b8000040e900504f98001e009000e90f5000ca
:1018c800e8ff3e005e4890000001fb001e0090000b
:1018d8000043b00080407800800220000e004000e5
:1018e8000000410001487800800220000e004000fe
:1018f80062fe0700070037004eb8970010407800d6
:1019080031fe0700030037004eb8970010407800fa
:101918002dfe07004eb897000000e80040bf9f006a
:101928004eb89700104078000004e0006bfe3a00c3
:101938000080fa00000006003600f800809fbe0014
:10194800829fbe00849fbe00869fbe00889fbe0007
:101958000000fa008460a900dac2bf00624060009b
:101968000004e00017003200dc22a900604080007b
:101978006a0010006104b9002640800037408000ea
:101988008800780006007800000ab80007c0b9008f
:10199800050178000001410009b0b90000014100cb
:1019a800820278000400be00cafa0700d2cc2c00dc
:1019b800c3dc230093fa070077fa070010088800b1
:1019c80015003700dc22a800604080006104b900df
:1019d80026408000374080008800780006007800a4
:1019e800000ab80007c0b9000501780000014100ed
:1019f80009b0b90000014100820278000400be006d
:101a0800b4fa0700d2cc2c00c3dc23007dfa07000f
:101a180061fa0700100888000080fa004f04be0031
:101a28004f03be004f02be004f01be004f00be0074
:101a38003600f90000400600801f78000000fa0018
:101a48008420a900404080000000e8004040880051
:101a58000080fa004f00780000400600809fbe001a
:101a6800821f78000000fa0084c0a900c8c2bf0025
:101a78000080fb004600de006140600000c0ea0014
:101a880061406000614060004601dd00812c20005b
:101a980091407800f0cbb30000c0600002407000b5
:101aa800c8e2b700c8c2bf000080fb004600de00e5
:101ab8006140600061416000412d20009140780044
:101ac800e0cfb30000c0600002407000d4e2b7006d
:101ad8000080fa004f0178004f00be000040060069
:101ae8000000fa0084e0a9000080fa000040060027
:101af800801f78000000fa0086a0a90040408000fe
:101b0800904088000000eb00404088000080fa0008
:101b18004f00780000400600809fbe000000fa00d9
:101b28008400a9008040800070408800210880005f
:101b380000002800008070002008880091088000bc
:101b4800000028000080700090088800f1088000dc
:101b58000003280000807000f00888000000eb00f7
:101b6800000888000000eb00500888000000eb0027
:101b7800a00888000080fa004f00be000040060060
:101b88003600f800809fbe00829fbe00849fbe0082
:101b9800869fbe000000fa0000502300c10020000c
:101ba800aef9070086e0a9000080fa004f03be00e6
:101bb8004f02be004f01be004f00be003600f900c4
:101bc800004006000200fa000080eb004015880083
:101bd8000000eb0030168800cda2a80010002000fd
:101be80090168800d222a800d822a900d862a9009d
:101bf8000000eb002004880061048000b00c200085
:101c080000807000600488000000eb003004880049
:101c180071048000000620000080700070048800b5
:101c2800410920009140780080cfb30000c06000d7
:101c38000014a00094e0b7000000eb00100a880030
:101c480042e1a900211420009140780080cfb30020
:101c580000c060000004a00042e1b7000000eb00f3
:101c68002008880020002800800888000000eb0079
:101c78009008880000032000f008880000c82000b1
:101c88001008880070002000600888000080eb00c1
:101c98007008880040422f00d008880000c8200043
:101ca8000100200020408800314088000000eb003f
:101cb800000888000000eb00500888000000eb00d6
:101cc800a0088800dc02a90099fc07000000370082
:101cd80070408000000f78001e007800e10f50006f
:101ce8002a0032001e007800e10f500004003c007a
:101cf8001e0078000000e00008003200f4ff370002
:101d08001e007800e20f5000470032001e007800e5
:101d1800e30f50006b003200edff37001000200089
:101d280080408800d4c2bf00624060000004e00028
:101d38001400320011c0b30010c0b300a4fc0700a7
:101d4800904d28004dfd07000000eb00801f780033
:101d5800a04e2800801f78005cfd0700e48757002c
:101d680021c0b30050c0b30099fc0700104f2800f1
:101d780042fd070000f029004102200037f9070062
:101d8800d3ff370076000700d1ff3700200020007e
:101d9800804088008000200060408800d4c2bf00d6
:101da800624060000004e0001600320011c0b30079
:101db80010c0b30086fc0700d04f28002ffd070095
:101dc80091408000c00320000088b900801f78007f
:101dd800a04e2800801f78003cfd0700e4875700cc
:101de80021c0b30050c0b30079fc0700104f280091
:101df80022fd070000f029004102200017f9070022
:101e0800010037005600070091408000c002200002
:101e1800808f500002003400dc62a800acff37005d
:101e2800dc62a900aaff370030002000804088004b
:101e38005000200060408800d4c2bf0062406000ab
:101e48000004e0001600320011c0b30010c0b30057
:101e58005ffc0700e050280008fd07009140800063
:101e6800c00320000088b900801f7800a04e280019
:101e7800801f780015fd0700e487570021c0b300d4
:101e880050c0b30052fc0700104f2800fbfc0700ad
:101e980000f0290041022000f0f807000100370097
:101ea8002f00070091408000c0022000808f500062
:101eb80002003400dc62a80085ff3700dc62a9005c
:101ec80083ff370010002000804088003000200089
:101ed80060408800d4c2bf00624060000004e00097
:101ee8001600320011c0b30010c0b30038fc070060
:101ef800f0512800e1fc070091408000c003200059
:101f08000088b900801f7800a04e2800801f780044
:101f1800eefc0700e487570021c0b30050c0b300af
:101f28002bfc0700104f2800d4fc070000f0290004
:101f380041022000c9f80700010037000800070027
:101f480091408000c0022000808f500002003400c1
:101f5800dc62a8005eff3700dc62a9005cff370086
:101f68000000fa0090408000f10f50000d003c0086
:101f780011c0b30010c0b30015fc070000532800bf
:101f8800801f7800d1fc07008f87e900a0c0b3004c
:101f98008dfc070000532800801f7800cbfc070049
:101fa8008f87e90090408000fa0f500010003c0035
:101fb80090408000f10f50000d00340011c0b300b4
:101fc80010c0b30002fc070010542800801f7800de
:101fd800befc07008f87e900a0c0b3007afc0700a9
:101fe80010542800801f7800b8fc07008f87e9008c
:101ff8009140800070022000808f500010003c004b
:1020080090408000fb0f50000d00340011c0b30059
:1020180010c0b300eefb070020552800801f780091
:10202800aafc07008f87e900a0c0b30066fc070080
:1020380020552800801f7800a4fc07008f87e9003e
:082048000080fa000000060010
:020000040000fa
:10205000000800001200000002000000e002ca00b8
:10206000020000000000000000000000020000006c
:102070000000000012080000020000000000000044
:04208000000000005c
:00000001FF
