:020000040000fa
:080000000001040000000000f3
:020000040000fa
:100200002f8420000eff20000e0188000000000057
:100210000c00070080802100010020001100070071
:10022000000020000000e000020032000000020098
:100230000000000090140200000000000040da00fe
:100240000000fe004440a900401f20000000e00024
:100250000300320000002000a00188004440a800f4
:100260000000060091018800800078000000eb008b
:1002700015003700e280400032a0b4009101ba00be
:10028000e280400032a0b4009102ba00e280400057
:1002900032a0b4000002eb00472bde00f507b200ed
:1002a000602ce10004003a000059eb008301e900f2
:1002b000fdff3e00040037006128e100010032002c
:1002c0000082eb00040007001101ba000200e00008
:1002d000e8ff3a00000006003159ba008301e90046
:1002e0000c0032002159ba008301e90008003200f5
:1002f0000400e00003003a00e280400032a0b400b5
:10030000f5ff370011d9ba008301e900faff3a007e
:100310008100e800e180400032a0b4000000060047
:100320000040da000000fe0014002000ca00370080
:10033000809fbe00821f78000001eb00e1000700f3
:10034000cf027800808abe000001be004f00be00d0
:1003500003013a000470a6006000b80003f0a70093
:1003600001f0a000000006000001be005a010700d5
:100370000470a70003f0a10003f8a30013003a00e3
:100380006509b10010003200090035006928e1005c
:1003900002003500010028000000050000004000b8
:1003a000818048008502e900fcff3a000000060059
:1003b000f88f4200050035008100d1000080d30095
:1003c0008502e800fcff3a00000006008000eb0018
:1003d00000000500889fbe008a9fbe008c1f780029
:1003e000520107005901330003866c006450e1009c
:1003f000240032006420e100270032006150e10057
:10040000220032006120e100210032008b85420091
:10041000eb07b1000134b800003ab800080442000c
:1004200089844a00013ab8000030b8008880400052
:1004300009014a00040033000000400081804800a8
:10044000020149008b05e900c909dd008301700044
:100450000100320013002000c814de004814dd0043
:100460004709de001200b200c808de0008847000f0
:100470004601070001f0a1000cf0a70001f0a00068
:100480003b0137006120e1003d0132000801be0060
:100490000200be00f7ff37006150e100fcff3a00a8
:1004a00037013700889fbe008a9fbe000105780093
:1004b0000100e0000400350008003c000000e000fe
:1004c000200032000500370060001000e0801800b6
:1004d00002003b0001f02c001a0037000004be00af
:1004e0006011b8006b0920000982cf0002003900ba
:1004f0000882cf000441b000694252000e00320071
:1005000008003b0082817100610164008904d10010
:100510000884d3008b05e8000442e800f9ff3a00a4
:10052000050037000804440089844c008b05e9006d
:100530000442e900fbff3a00140107000af0a7009b
:1005400001f0a0004f05be004f04be0000000600f1
:10055000889fbe008a9fbe008c1f7800f3000700b2
:10056000fa00330003866c006450e1002e00320074
:100570006420e100330032006150e1002f003200be
:100580006120e1003100320085855500eb07b000a5
:10059000090020000804200005003700080444007a
:1005a00089844c000a0031000603430087834b0016
:1005b0000001530081815b00f8ff33000203be009d
:1005c0000800a0000804440089844c00f6ff3900ac
:1005d000c639dd00830173000100320013002000e2
:1005e0008904d1000884d3000998a30005003200d3
:1005f0000800a7000300a0008904d1000884d300ec
:100600008b05e8008904d1000884d3000001eb00c9
:100610000281d200dd00070001f0a1000cf0a7006c
:1006200001f0a000d20037006420e100d4003200c5
:100630000801be000200be00f7ff37006120e100a4
:10064000cf0032006000b800f3ff37000000200048
:1006500001f82700f0ff3700889fbe008a9fbe0088
:10066000841f7800b10007004f00780011003300ac
:10067000f0ff2f00838f6c0006003b00040565002f
:100680000a00a7000800370009f0a60010002000ab
:1006900008003700820f5400838f5c00030039008c
:1006a0001000200001003e000000200009f0a7001b
:1006b0000000ea004f05be004f04be000000e0004d
:1006c00000000600889fbe008a9fbe000003be0097
:1006d0008100070085057800828152000200200019
:1006e0006220e10004003a00f307b1000400350085
:1006f0007718e100040035000600be001400370042
:100700006000b8000f003700f50f2000faff2f003f
:100710008502d1000a85d3008301e900fcff3b007c
:100720008184620000046500890f7400f2ff3200ca
:100730008582ea000a85ea0081846200000465007f
:100740009200070007f0a70001f0a0000081eb0075
:100750000200e0004f05be004f04be00000006008e
:1007600003f0a200889fbe008a9fbe008c1f780005
:100770006e000700750033006450e1004f00320046
:100780006420e1005200320003826c0007003b004d
:100790000905d0000306d000820f54000c065d004e
:1007a0000200390002003200890178000306780057
:1007b0008582550004003d000003fd008103fd001b
:1007c0008502ea008b854200840f720002003b0024
:1007d00060001000e08018006011b8000005eb0018
:1007e0007a28e1000a00390006007800c75ddd00c4
:1007f000f707b200878075002d00370082817100f5
:100800000a017800610560008180d1000080d3007a
:100810008502e900f9ff3b00060440008784480098
:1008200002003b0060041400e0841c000988a3005f
:10083000070032008a8171008281710061016400c9
:100840008904d1000884d3008b05e8001700370025
:100850000978a30013003a000b00e00013003400f5
:100860008b05e9000804440089844c000a447400a4
:100870000978a3000d003a000b00e00007003400e7
:100880008b05e9000804440089844c0001003a000b
:100890000b0020000978a300f7ff32000001eb00f5
:1008a00002003700828171000a01780037000700da
:1008b0000cf0a70001f0a0002d0037006420e1003b
:1008c00002003a00838f6c002d0033000801be0047
:1008d0000200be0026003700c70ade00f107b200a2
:1008e000f50fb20008003200e1cf420002003200f2
:1008f0000170a00024000500810f7000010032008b
:100900000408050044000500810f700002003a0051
:10091000140005008502e9000000400081c0480085
:10092000fcff3b000170a000240005000004be0095
:10093000e9ff07000003be000405be000200be0080
:10094000e5ff0700844f7500000006000200be00ae
:100950006450e100050036006420e100020036002a
:100960000968a30001003a000800be000160a00071
:100970004f0678004f05be004f04be000000060081
:10098000f0ff2f00f1ff2700f9ff37008100200062
:10099000618055000b003d000b00200061fe2f0020
:1009a0000100e1001d0034008281710061016400da
:1009b0008904d1000884d3000000e800faff3a005f
:1009c00071002000610064000300700002006000fc
:1009d0000900320061044400e0844c000988a5004d
:1009e000050032008b05e8006808e10002003a00cb
:1009f0008904d1000884d300f20f20000258e100de
:100a000005003d00c75ddd00f907b2008980750073
:100a100008007800000006000bf827008b00780023
:100a2000000005008001eb000200370081717800b2
:100a30008301e800828f5100fcff3a0000000600ad
:020000040000fa
:0200000401f009
:04000000f6bf000047
:020000040000fa
:0200000401f009
:04000400ff7f00007a
:020000040000fa
:0200000401f009
:04000800fcff0000f9
:020000040000fa
:0200000401f009
:04001400ffff0000ea
:020000040000fa
:1000080090010000900100009001000090010000a4
:100018009001000090010000900100009001000094
:10002800900100009001000090010000a61300005c
:100038009001000090010000601200009001000093
:100048009001000090010000900100009001000064
:100058009001000090010000900100009001000054
:100068009001000090010000900100009001000044
:100078009001000090010000900100009001000034
:100088009a12000090010000900100009001000009
:100098009001000090010000900100009001000014
:1000a8009001000090010000900100009001000004
:1000b80090010000900100009001000090010000f4
:1000c80090010000900100009001000090010000e4
:1000d80090010000900100009001000090010000d4
:1000e80090010000900100009001000090010000c4
:0800f8009001000090010000de
:020000040000fa
:1001080090010000900100009001000090010000a3
:100118009001000090010000900100009001000093
:10012800900100009001000090010000a61300005b
:100138009001000090010000601200009001000092
:100148009001000090010000900100009001000063
:100158009001000090010000900100009001000053
:100168009001000090010000900100009001000043
:100178009001000090010000900100009001000033
:100188009a12000090010000900100009001000008
:100198009001000090010000900100009001000013
:1001a8009001000090010000900100009001000003
:1001b80090010000900100009001000090010000f3
:1001c80090010000900100009001000090010000e3
:1001d80090010000900100009001000090010000d3
:1001e80090010000900100009001000090010000c3
:0801f8009001000090010000dd
:020000040000fa
:100a40000001000002040000082800000c01000062
:100a50000600000000000000000000000000000090
:100a60000000000000000000000000000000000086
:100a70000000000000000000000000000000000076
:100a80000020000020200000202000002020000086
:100a90002020000020200000202000002020000056
:100aa000200a00002020000020200000202000005c
:100ab0002020000020200000202000002020000036
:100ac00020200000000c000000310000295300002d
:100ad000656c000065630000696f00006e650000d2
:100ae000206f000020740000656d0000706f000032
:100af000206400006520000061710000756900003d
:100b000073690000636100006f0a00000d000000bf
:100b100032290000536500006c6500006369000025
:100b20006f6e0000652000006f2000006361000010
:100b30006e6100006c2000006d6100006e750000a9
:100b4000616c00006d6500006e740000650a0000b5
:100b50000d0000006129000041710000756900006e
:100b600073690000636100006f20000061200000d5
:100b70006361000064610000203000002c3500003b
:100b80002073000065670000756e0000646f000050
:100b9000730a00000d00000062290000417100008e
:100ba0007569000073690000636100006f20000038
:100bb00061200000636100006461000020310000da
:100bc0002c3000002073000065670000756e000087
:100bd000646f00000a0d000000630000294100005e
:100be000717500006973000069630000616f0000a7
:100bf00020610000206300006164000061200000ab
:100c0000313000002c3000002073000065670000c8
:100c1000756e0000646f0000730a00000d00000094
:100c200064290000417100007569000073690000cb
:100c3000636100006f20000061200000636100001c
:100c40006461000020310000206d0000696e00002a
:100c5000757400006f0a00000d0000006529000097
:100c60004171000075690000736900006361000054
:100c70006f200000612000006361000064610000db
:100c800020310000206800006f720000610a00003f
:100c90000d00000037290000536500006c6500005e
:100ca000636900006f6e0000652000006f20000087
:100cb000636100006e6100006c200000370a0000d4
:100cc0000d00000038290000536500006c6500002d
:100cd000636900006f6e0000652000006f20000057
:100ce000636100006e6100006c200000380a0000a3
:100cf0000d0000000c430000616e0000616c0000fc
:100d0000203700000d0a0000000c000043610000c5
:100d10006e6100006c200000380d00000a00000029
:100d20000c430000616e0000616c00002037000081
:100d300020090000207c0000200900002043000062
:100d4000616e0000616c0000203800000d0a000098
:100d50000020000020200000256600002020000068
:100d600020200000200d000000430000616e000004
:100d7000616c0000203700002020000020200000cf
:100d80002020000020200000200000002566000038
:100d90002020000020200000202000002020000053
:100da00020200000202000002000000043610000ff
:100db0006e6100006c200000382000002020000040
:100dc000202000002020000020200000002500003e
:100dd00066200000202000002020000020200000cd
:100de0002020000020200000202000002000000023
:100df00020200000202500006620000020200000a8
:100e000020090000207c00002009000020200000b4
:100e10002025000066200000202000002020000087
:080e2000200d0000000000009d
:020000040000fa
:100e28000200fa00000f78000200370000000000fe
:100e38001e0fe9001e00e000fcff3a000080fa00e7
:100e4800000006000200fa00000f780003003700d7
:100e580080002000f2ff07001e0fe9001e00e000de
:100e6800fbff3a000080fa00000006000200fa00ca
:100e7800000f780003003700803e2000f1ff0700d4
:100e88001e0fe9001e00e000fbff3a000080fa0098
:100e9800000006000000fa000000eb003016880091
:100ea8000000eb00901688000080fa0000000600a1
:100eb8000800fa0060479800005228000400090062
:100ec800305f78005e00b1006e4090000080fb004b
:100ed8000e004000104078000080fb00b01688002b
:100ee8000080fa00000006000600fa00004f7800b3
:100ef8001e00fb006101b90020fd2f00f1ff2f004b
:100f080002014000838148001207980023079800d7
:100f1800b0002000010020001e019000ae019000ea
:100f2800800f5100818f590031003e001e00900053
:100f3800ae00900000600100290037002c00370047
:100f4800090037000b0037000d0037000f0037008d
:100f5800110037001300370015003700170037005d
:100f6800190037001b003700f003200050168800d6
:100f78002100370060002000501688001e0037004e
:100f8800b0052000501688001b003700f004200030
:100f98005016880018003700600620005016880098
:100fa80015003700d00620005016880012003700c0
:100fb800d0072000501688000f003700700020006e
:100fc800501688000c003700f007200050168800e3
:100fd8000900370070062000501688000600370008
:100fe800501680000008b000501688000200370034
:100ff8000000eb00501688000080fa000000060090
:101008000000fa0080ff2f00f01688000080fa0028
:10101800000006000200fa00600f20001017880088
:101028001041800010007800680060000000e000b7
:1010380003003a0010032000000f78006400370016
:101048001041800010007800700060000000e0008f
:1010580003003a0040032000000f78005c003700ce
:10106800104180009000780000022000008060009d
:101078000000e00003003a0070032000000f780031
:1010880053003700104180009000780000042000d1
:10109800008060000000e00003003a00a002200089
:1010a800000f78004a003700500f20001017880002
:1010b8001041800010007800680060000000e00027
:1010c80003003a0020032000000f7800400037009a
:1010d8001041800010007800700060000000e000ff
:1010e80003003a0050032000000f78003800370052
:1010f800104180009000780000022000008060000d
:101108000000e00003003a0080032000000f780090
:101118002f00370010418000900078000004200064
:10112800008060000000e00003003a000003200097
:10113800000f780026003700300f200010178800b5
:101148001041800010007800680060000000e00096
:1011580003003a0030032000000f78001c0037001d
:101168001041800010007800700060000000e0006e
:1011780003003a0060032000000f780014003700d5
:10118800104180009000780000022000008060007c
:101198000000e00003003a0090032000000f7800f0
:1011a8000b003700104180009000780000042000f8
:1011b800008060000000e00003003a0030022000d8
:1011c800000f7800020037000000eb00000f7800e5
:1011d8001e0078000080fa00000006000200fa00f5
:1011e800004f7800214180001e4178006f40610067
:1011f8000080fb006f01600000ff2f009108600075
:10120800910871001000200005ff0700dca2a8006b
:10121800200020000bff0700dca2a9000080fa00d4
:10122800000006000200fa00004f780011479800fd
:10123800200020000dff07009e40780061c060007c
:10124800614060004401dd00c12d2000914078001c
:10125800f0ceb30000c0600002407000dce2b700ce
:1012680010002000eefe0700dca2a9001e4090003e
:101278000080fb004400de00d8ff07001e409000fd
:101288006f406000d5ff07000080fa0000000600ec
:101298000200fa00d882a900d8a2a900dc82a9001d
:1012a80010002000defe0700dca2a900f0002000ec
:1012b800eefe07000040eb00004f78000500370005
:1012c80030c0b300c5ff0700f0002000e7fe0700ac
:1012d8001e4fe80020c0b3009e4f1000f8ff3600f4
:1012e80020c0b300bdff07000040eb00004f7800ae
:1012f800060037001e80fb0051522800e0c078002d
:101308000040eb00c7ff07001e4fe80030c0b300e5
:101318009e4f1000f7ff36000080fa00000006001c
:101328000400fa0020479800314798003e4090009a
:10133800e14f50000300320000c4b300004f7800b2
:10134800020037000040eb00004f78002e4090006c
:101358001e4040000040e900004f780000c8b3007c
:101368009e4070000040eb00aeff07000080fa00ce
:10137800000006000800fa0020479800210798009e
:101388002e4090000080fb00300798003e0090003f
:10139800e30f5000260032003e009000e30f50009b
:1013a8000a003c003e009000e10f50001800320097
:1013b8003e009000e10f500019003c003e009000f4
:1013c8000000e0000e0032002c0037003e009000c4
:1013d800e50f50001e0032003e009000e50f50005f
:1013e800170035003e009000e60f50001c00320048
:1013f8003e009000e70f50001d0032001f0037002c
:1014080001c4b3000040eb0086ff07001b00370053
:1014180081c4b3000040eb0082ff070017003700cb
:1014280001c5b3000040eb007eff07001300370042
:1014380081c5b3000040eb007aff07000f003700ba
:1014480001c6b3000040eb0076ff07000b00370031
:1014580081c6b3000040eb0072ff070007003700a9
:1014680001c7b3000040eb006eff07000300370020
:1014780081c7b3000040eb006aff07000040eb00a3
:10148800004f78000a0037001e80fb000000400073
:10149800800078002e009000008040001000780046
:1014a8008040780010c0b3005eff07001e4fe800c0
:1014b80070c0b3009e4f1000f3ff360001c8b300a0
:1014c8000040eb0057ff07000080fa00000006000c
:1014d8001200fa0000579800a052280007000900df
:1014e800301f78000e01b1008e0078000e50900079
:1014f800a0ff07000080fa00000006000200fa00c2
:10150800004f78009e40780010c0b30045ff0700e8
:101518000080fa00000006000400fa00004f78007e
:101528001e00fb00100798009e009000e88f5000f6
:10153800190032001e009000e80f500005003c0022
:1015480000fb2f009e009000808f50001600320094
:10155800190037001e009000ea0f50000a00320000
:101568009e009000ec8f50000100320012003700fe
:1015780011c0b3000040eb002aff07002000200044
:101588003afe07000f00370021c0b30010c0b300b7
:1015980063ff07000b00370001c1b3000040eb00f8
:1015a80020ff070007003700f1cdb30010c0b300db
:1015b8001cff0700030037009e40780010c0b300ee
:1015c80018ff07000080fa00000006000200fa0079
:1015d800000f7800040037001e00780010407800e3
:1015e800cdff07001e0fe8001e00780010407800ad
:1015f8000004e000f8ff3a000080fa00000006004e
:101608000200fa00004f78009e4078000040eb008e
:1016180004ff07000080fa00000006004000fa00fe
:1016280068005700300f9800910137004eb89700b6
:10163800104078008000fb0050022000808f50008e
:1016480001003200840137004eb897000000e8001e
:1016580040bf9f004eb897009040780050c7b30035
:1016680080cf50005d003a00f8004700a0532800e2
:10167800904878000100e8008040eb0001487800bd
:101688000000e8008040eb00014878000000e80016
:101698008040eb00014878000000e8008040eb0043
:1016a800014878000000e8008040eb00014878001d
:1016b8000000e8008040eb00014878000040eb00a3
:1016c800405798003e0890000080e900300f9800cd
:1016d8003e08900090007800110f98009e08900036
:1016e800f0702200808f50000300360040c0b30025
:1016f800405798002b0037009e089000703e20004d
:10170800808f50000300360030c0b3004057980067
:10171800240037009e08900030062000808f50007b
:101728000300360020c0b300405798001d00370062
:101738001e089000e90f50000300360010c0b300e7
:1017480040579800170037000040eb0040579800ba
:10175800140037004e5090008001fb001e089000d6
:10176800a2002000110009000280d8008000fd00be
:101778000043b000804078007800470000804100b6
:10178800014878001e089000a200200011000900fe
:101798000280d800100f98004e5090000040e900d9
:1017a800405798001e089000e90f5000e9ff3e00de
:1017b8004e5090000001fb001e0890000043b0004e
:1017c8008040780078004700000041000148780018
:1017d800780047007dff0700220137004eb89700c8
:1017e8009040780040c6b30080cf50006d003a00aa
:1017f800ff004700a0532800904878000100e80047
:101808008040eb00014878000000e8008040eb00d1
:10181800014878000000e8008040eb0001487800ab
:101828000000e8008040eb00014878000000e80074
:101838008040eb00014878000000e8008040eb00a1
:10184800014878000000e8008040eb00014878007b
:101858000000e8008040eb00014878000040eb0001
:10186800005798003e0890000080e900300f98006b
:101878003e08900010017800720798007e009000e2
:101888000000e00008003d007e0090000000ea0033
:1018980070079800ff004700d0c2b3008048780066
:1018a80010c0b30000579800fe009000f0702200ae
:1018b800808f5000040034000e50900064404000b7
:1018c800005798002a003700fe009000703e200064
:1018d800808f5000040034000e5090006340400098
:1018e8000057980022003700fe00900030062000c4
:1018f800808f5000040034000e50900000c0e800b3
:10190800005798001a0037007e009000e90f500039
:10191800170034000e5090000040e800005798006f
:10192800130037000e5090008001fb007e009000ed
:10193800a2002000110009000200d8008000fd006c
:1019480002c3b300824040007f00470081717800e5
:101958007e009000a2002000110009000200d800bb
:10196800700798000e5090000040e900005798005a
:101978007e009000e90f5000eaff3c000e509000f6
:101988000001fb007e00900003c3b30083404000c9
:101998007f004700017178007f0047000bff0700b8
:1019a800b00037004eb897009040780060c6b3008a
:1019b80080cf5000a4003a00810220008e804000b1
:1019c800a0532800904878000100e8003201200068
:1019d8008000eb0011fc07000040eb00504f98001e
:1019e80040c0b300404f98003e089000640050008b
:1019f800300f98003e0890001001be004207980082
:101a0800530798006011b8004e009000de00900067
:101a180043fa07000000e000010035000c00370021
:101a28004e009000de00900001f0a20040079800f0
:101a380051079800810220008e804000d0c2b30078
:101a4800804878005e4890000040e800504f9800b9
:101a5800c20320000e0141004e009000de009000fd
:101a680031fa070020079800310798006e18900097
:101a7800fe1890003afa0700100798009e009000a0
:101a8800f0702200808f5000040036005e489000fd
:101a980064404000504f9800160037009e009000a8
:101aa800703e2000808f5000040036005e48900091
:101ab80063404000504f98000e0037009e00900091
:101ac80030062000808f5000040036005e489000e9
:101ad80000c0e800504f9800060037001e00900034
:101ae800e90f5000030036005e4890000040e8000f
:101af800504f980002002000a34724002e009000b9
:101b0800be00900031fa07002007980031079800be
:101b18002e009000be00900011fa0700000f780018
:101b28005e4890000000fb008000e8008002200072
:101b38000e00400080804000e0c2b300804878007a
:101b4800180037005e4890008000fb004e48900067
:101b58000000fb00808140001e007800a2002000e9
:101b6800110009000280d8008000fd000043b00089
:101b780080407800800220000e0040000080410074
:101b8800014878001e007800a2002000110009001a
:101b98000280d800000f78004e4890000040e9000d
:101ba800404f98004e489000e14f5000e5ff3c0040
:101bb800150037005e4890008001fb001e00900071
:101bc800a2002000110009000280d8008000fd005a
:101bd8000043b00080407800800220000e004000e2
:101be80000804100014878001e009000a2002000fb
:101bf800110009000280d800100798005e48900084
:101c08000040e900504f98001e009000e90f500076
:101c1800e8ff3e005e4890000001fb001e009000b7
:101c28000043b00080407800800220000e00400091
:101c38000000410001487800800220000e004000aa
:101c480062fe0700070037004eb897001040780082
:101c580031fe0700030037004eb8970010407800a7
:101c68002dfe07004eb897000000e80040bf9f0017
:101c78004eb89700104078000004e0006bfe3a0070
:101c88000080fa00000006000000fa0011c0b3004e
:101c980010c0b300a2fd070010542800801f780070
:101ca8005efe07008f87e90011c0b30010c0b300c3
:101cb8009bfd07000080fa00000006000200fa0001
:101cc800000f78001e007800f01088000000eb007c
:101cd800b01088000000eb00c0108800400420000d
:101ce800000588008720a9008f20a9008700a90087
:101cf8008f00a80017a2a80017e2a8001942a800a0
:101d08000080fa00000006000200fa00004f780088
:101d180019c2bf00624060000004e000fcff3a0006
:101d28001e80fb00d01088000080fa00000006002a
:101d38000200fa00000f7800040037001e00780047
:101d480010407800f0ff07001e0fe8001e00780022
:101d5800104078000004e000f8ff3a000080fa0024
:101d6800000006000200fa0018c2bf0061406000cf
:101d78000004e000fcff3200e0108000004f780013
:101d88001e80fb000080fa00000006004000fa00f8
:101d980068005700300f9800910137004eb897003f
:101da800104078008000fb0050022000808f500017
:101db80001003200840137004eb897000000e800a7
:101dc80040bf9f004eb897009040780050c7b300be
:101dd80080cf50005d003a00f8004700a05328006b
:101de800904878000100e8008040eb000148780046
:101df8000000e8008040eb00014878000000e8009f
:101e08008040eb00014878000000e8008040eb00cb
:101e1800014878000000e8008040eb0001487800a5
:101e28000000e8008040eb00014878000040eb002b
:101e3800405798003e0890000080e900300f980055
:101e48003e08900090007800110f98009e089000be
:101e5800f0702200808f50000300360040c0b300ad
:101e6800405798002b0037009e089000703e2000d5
:101e7800808f50000300360030c0b30040579800f0
:101e8800240037009e08900030062000808f500004
:101e98000300360020c0b300405798001d003700eb
:101ea8001e089000e90f50000300360010c0b30070
:101eb80040579800170037000040eb004057980043
:101ec800140037004e5090008001fb001e0890005f
:101ed800a2002000110009000280d8008000fd0047
:101ee8000043b0008040780078004700008041003f
:101ef800014878001e089000a20020001100090087
:101f08000280d800100f98004e5090000040e90061
:101f1800405798001e089000e90f5000e9ff3e0066
:101f28004e5090000001fb001e0890000043b000d6
:101f380080407800780047000000410001487800a0
:101f4800780047007aff0700220137004eb8970053
:101f58009040780040c6b30080cf50006d003a0032
:101f6800ff004700a0532800904878000100e800cf
:101f78008040eb00014878000000e8008040eb005a
:101f8800014878000000e8008040eb000148780034
:101f98000000e8008040eb00014878000000e800fd
:101fa8008040eb00014878000000e8008040eb002a
:101fb800014878000000e8008040eb000148780004
:101fc8000000e8008040eb00014878000040eb008a
:101fd800005798003e0890000080e900300f9800f4
:101fe8003e08900010017800720798007e0090006b
:101ff8000000e00008003d007e0090000000ea00bc
:1020080070079800ff004700d0c2b30080487800ee
:1020180010c0b30000579800fe009000f070220036
:10202800808f5000040034000e509000644040003f
:10203800005798002a003700fe009000703e2000ec
:10204800808f5000040034000e5090006340400020
:102058000057980022003700fe009000300620004c
:10206800808f5000040034000e50900000c0e8003b
:10207800005798001a0037007e009000e90f5000c2
:10208800170034000e5090000040e80000579800f8
:10209800130037000e5090008001fb007e00900076
:1020a800a2002000110009000200d8008000fd00f5
:1020b80002c3b300824040007f004700817178006e
:1020c8007e009000a2002000110009000200d80044
:1020d800700798000e5090000040e90000579800e3
:1020e8007e009000e90f5000eaff3c000e5090007f
:1020f8000001fb007e00900003c3b3008340400052
:102108007f004700017178007f00470008ff070043
:10211800b00037004eb897009040780060c6b30012
:1021280080cf5000a4003a00810220008e80400039
:10213800a0532800904878000100e80032012000f0
:102148008000eb0035fa07000040eb00504f980084
:1021580040c0b300404f98003e0890006400500013
:10216800300f98003e0890001001be00420798000a
:10217800530798006011b8004e009000de009000f0
:1021880067f807000000e000010035000c00370088
:102198004e009000de00900001f0a2004007980079
:1021a80051079800810220008e804000d0c2b30001
:1021b800804878005e4890000040e800504f980042
:1021c800c20320000e0141004e009000de00900086
:1021d80055f8070020079800310798006e189000fe
:1021e800fe1890005ef80700100798009e00900007
:1021f800f0702200808f5000040036005e48900086
:1022080064404000504f9800160037009e00900030
:10221800703e2000808f5000040036005e48900019
:1022280063404000504f98000e0037009e00900019
:1022380030062000808f5000040036005e48900071
:1022480000c0e800504f9800060037001e009000bc
:10225800e90f5000030036005e4890000040e80097
:10226800504f980002002000a34724002e00900041
:10227800be00900055f80700200798003107980025
:102288002e009000be00900035f80700000f78007f
:102298005e4890000000fb008000e80080022000fb
:1022a8000e00400080804000e0c2b3008048780003
:1022b800180037005e4890008000fb004e489000f0
:1022c8000000fb00808140001e007800a200200072
:1022d800110009000280d8008000fd000043b00012
:1022e80080407800800220000e00400000804100fd
:1022f800014878001e007800a200200011000900a3
:102308000280d800000f78004e4890000040e90095
:10231800404f98004e489000e14f5000e5ff3c00c8
:10232800150037005e4890008001fb001e009000f9
:10233800a2002000110009000280d8008000fd00e2
:102348000043b00080407800800220000e0040006a
:1023580000804100014878001e009000a200200083
:10236800110009000280d800100798005e4890000c
:102378000040e900504f98001e009000e90f5000ff
:10238800e8ff3e005e4890000001fb001e00900040
:102398000043b00080407800800220000e0040001a
:1023a8000000410001487800800220000e00400033
:1023b8005ffe0700070037004eb89700104078000e
:1023c80051fe0700030037004eb897001040780010
:1023d8004dfe07004eb897000000e80040bf9f0080
:1023e8004eb89700104078000004e0006bfe3a00f9
:1023f8000080fa00000006000200fa00000f7800d2
:102408000b00370000000000000000000000000082
:1024180000000000000000000000000000000000b4
:102428000000000000000000000000001e0fe9008e
:102438001e00e000f3ff3c000080fa0000000600e8
:102448000200fa00000f780003003700803e2000e9
:10245800e9ff07001e0fe9001e00e000fbff3c003b
:102468000080fa00000006000200fa002040800008
:102478000000e80052062000110009000200d80000
:102488008000fd00204088002140800040418000fd
:10249800808f500003003c0010002000000f7800df
:1024a800020037000000eb00000f78001e007800e3
:1024b8000080fa00000006003600f800809fbe0089
:1024c800829fbe00849fbe00869fbe000000fa0067
:1024d80084c0a90050418000e10f50000c003a0070
:1024e800e1ff070061406000614060004301dd00da
:1024f800c12d20009140780070cfb30000c060006b
:1025080002407000dce2b7000000eb0030418800b8
:102518000080fa004f03be004f02be004f01be000c
:102528004f00be003600f90000400600809fbe0044
:10253800821f78000600fa008700a900e0108000da
:1025480000e8b70001802000914078000040eb00cf
:102558005047980000c6b30080cf500002003600f4
:1025680011c0b300514798000180200091407800c5
:102578000041eb0042479800b0c7b30080cf50003d
:1025880002003e0010c0b30040479800de409000b3
:102598004e41900002c060000004e00005003200d7
:1025a80000c8bf008040780000ceb30000c04000e3
:1025b80000e8b700100020003041880001802000aa
:1025c8009140780010c3b30080cf500002003a0059
:1025d8001000200080418800018020009140780090
:1025e80020c3b30080cf500002003a002000200032
:1025f8008041880000c8bf00fb4f500002003a002d
:102608000000eb00804188000180200091407800a4
:102618000040eb003047980000c4b30080cf500062
:102628000200360011c0b300314798000180200035
:10263800914078000041eb002247980050c4b30055
:1026480080cf500002003e0010c0b3002047980021
:10265800be4090002e41900002c060000004e000df
:102668000a00320030002000804188000000eb00a2
:102678003041880010002000e04188000000eb0095
:10268800000888000000eb00b041880001802000ad
:10269800914078000040eb001047980050c3b30009
:1026a80080cf50000200360011c0b30011479800d7
:1026b80001802000914078000041eb00024f780033
:1026c80080c3b30080cf500002003e0010c0b300aa
:1026d800004f78009e4090001e41780002c06000c4
:1026e8000004e0000a003200400020008041880019
:1026f8000000eb003041880010002000e041880015
:102708000000eb00000888000000eb00b0418800e2
:10271800018020009140780000c5b30080cf5000b0
:1027280004003a00100020005041880090418000c9
:1027380000e8b7000080fa004f0178004f00be00a3
:10274800004006003600f800809fbe00821f780017
:102758000000fa008460a900b04180000000e80091
:10276800b0418800f04180000000e80082072000a6
:10277800110009000200d8008000fd00f041880027
:10278800b0418000e10f500009003a0091418000fb
:1027980010042000808f500005003a00100020002f
:1027a800304088000000eb00b0418800020037008c
:1027b8000000eb0030408800b0418000e20f50007c
:1027c80009003a009141800020042000808f5000c9
:1027d80005003a0010002000404088000000eb008f
:1027e800b0418800020037000000eb00404088003c
:1027f800b0418000f40f500009003a009141800078
:1028080030042000808f500005003a00100020009e
:10281800504088000000eb00b041880002003700fb
:102828000000eb0050408800b14180008007200084
:10283800808f500009003a00914180004004200038
:10284800808f500005003a0010002000604088008a
:102858000000eb00b0418800020037000000eb00e8
:1028680060408800b141800000c22100808f500084
:1028780009003a009141800050042000808f5000e8
:1028880005003a0010002000704088000000eb00ae
:10289800b0418800020037000000eb00704088005b
:1028a8000080fa004f0178004f00be003600f900a2
:1028b800004006000200fa00000f78000000eb005c
:1028c8007041880000282000104088008560a90019
:1028d800a042a80085c0bf00684060000004e00076
:1028e800fcff3200a042a9001e0078000000400052
:1028f80080007800104080000080400010007800c0
:102908007041880010052000bbfe07007041800060
:102918000080fa00000006000400fa00881f780012
:10292800f0e72f00401588000000eb003016880003
:10293800c702a800c6e2a800d822a900dc22a90084
:102948000000eb00200488000000eb003004880041
:102958008c60a8008cc0a80000032800200888000c
:10296800000028008008880020a12700100888009f
:1029780000c8200060088800000e200000158800ac
:10298800212a200091407800c0c3b30000c0700025
:10299800a2e2b700a342a800f00121002015880098
:1029a800512a20009140780000ceb30000c060009a
:1029b800a5e2b7000000eb003015880000182000e1
:1029c80050158800a1e2a80030032000bbfc0700d6
:1029d8002ffa070000003700804180000000e00067
:1029e80008003a0030562800d1fc0700505628004d
:1029f800cffc070080582800cdfc0700007d200090
:102a08008ffe070030418000e10f50001a003a00a5
:102a180080418000e10f50000c003a003056280039
:102a2800c3fc0700a05a2800c1fc0700c05c2800ae
:102a3800bffc0700d05e2800bdfc0700006128002d
:102a4800bbfc0700e0622800b9fc07008041800059
:102a5800e20f500006003a0030562800b4fc070088
:102a6800a0642800b2fc070020662800b0fc07001c
:102a78000000eb003041880080418000e30f5000e7
:102a880042013a0000c8bf000080fb009041880066
:102a98009041800010079800300420009e009000ac
:102aa800808f500044003200300420009e009000c7
:102ab800808f500009003c00100420009e00900008
:102ac800808f50000e003200200420009e009000ed
:102ad800808f5000210032007b0037004004200026
:102ae8009e009000808f50004a0032005004200061
:102af8009e009000808f50005d0032007200370009
:102b080030408000e10f500011003a000000eb0057
:102b1800604188000b0037006841800060418000f8
:102b280064ff0700000178008800440080832000cb
:102b38000080400002087800604180000000e80042
:102b48006041880060418000e10f5000f2ff3400ce
:102b58000000eb00304088005b00370040408000f8
:102b6800e10f500011003a000000eb0060418800be
:102b78000b00370068418000604180004dff07006e
:102b88000001780088004400808320000080400015
:102b980002087800604180000000e8006041880079
:102ba80060418000e10f5000f2ff34000000eb00ac
:102bb800404088004400370050408000e10f50003a
:102bc80011003a000000eb00604188000b0037005c
:102bd800684180006041800036ff070000017800ee
:102be80088004400808320000080400002087800ac
:102bf800604180000000e80060418800604180007a
:102c0800e10f5000f2ff34000000eb005040880054
:102c18002d00370060408000e10f500011003a009d
:102c28000000eb00604188000b003700684180001d
:102c3800604180001fff0700000178008800440001
:102c480080832000008040000208780060418000f6
:102c58000000e8006041880060418000e10f5000fa
:102c6800f2ff34000000eb006040880016003700d7
:102c780070408000e10f500011003a000000eb00a6
:102c8800604188000b003700684180006041800087
:102c980008ff0700000178008800440080832000b6
:102ca8000080400002087800604180000000e800d1
:102cb8006041880060418000e10f5000f2ff34005d
:102cc8000000eb0070408800e0418000e10f5000f8
:102cd8001a003a0090408000e10f500004003a00ca
:102ce800a0672800801f780028fc07008f87e9006c
:102cf800a0408000e10f500004003a00506828000e
:102d0800801f780021fc07008f87e900a040800021
:102d18000000e00007003a00904080000000e0005a
:102d280004003a0000692800801f780017fc07009b
:102d38008f87e9000000eb00e041880090408000a8
:102d4800e10f50002d003a00c0418000cf80de0026
:102d5800d2f50700d0408800e1408800d0408000cc
:102d6800e140800002002000030a240097f50700d4
:102d7800d0408800e1408800d0408000e1408000d9
:102d880002002c00f3472400eff50700d04088002c
:102d9800e1408800d0408000e1408000809fbe0074
:102da800906a2800801f7800f8fb0700e687570024
:102db80011c0b30010c0b30059f90700506b2800c8
:102dc800801f780015fa07008f87e90021c0b3003b
:102dd80010c0b30052f90700d0408000e1408000e5
:102de800809fbe00606c2800801f78000bfa0700e7
:102df800e6875700c041800040418800a04080001d
:102e0800e10f50002b003a00d0418000cf80de0057
:102e1800a2f50700f040880001418800f0408000da
:102e28000141800002002000030a240067f5070022
:102e3800f040880001418800f04080000141800096
:102e480002002c00f3472400bff50700f04088007b
:102e580001418800f040800001418000809fbe0051
:102e6800906a2800801f7800c8fb0700e687570093
:102e780011c0b30010c0b30029f90700606d280025
:102e8800801f7800e5f907008f87e90021c0b300ab
:102e980010c0b30022f90700f04080000141800013
:102ea800809fbe00706e2800801f7800dbf9070045
:102eb800e6875700904080000000e00033003a00a9
:102ec800a04080000000e00030003a00c0418000cf
:102ed800cf80de0071f50700d0408800e14088000f
:102ee800d0408000e140800002002000030a240056
:102ef80036f50700d0408800e1408800d0408000c7
:102f0800e140800002002c00f34724008ef5070002
:102f1800d0408800e1408800d0418000cf80de00aa
:102f28005ef50700f040880001418800f04080000d
:102f38000141800002002000030a240023f5070055
:102f4800f040880001418800f04080000141800085
:102f580002002c00f34724007bf50700f0408800ae
:102f680001418800f040800001418000d24080008b
:102f7800e3408000809fbe00829fbe00806f2800d3
:102f8800801f780081fb0700ea8757008041800096
:102f9800e40f500090fe3a0000c8bf000080fb001c
:102fa800a0418800a0418000000f78007003200035
:102fb8009e007800808f50000500320080032000ba
:102fc8009e007800808f500006003200090037000c
:102fd80010002000904088000000eb00a04088000e
:102fe800040037000000eb0090408800100020002b
:102ff800a040880030002000804188009041800077
:0830080000e8b70074fe370078
:020000040000fa
:10301000220800002000000002000000e002ca00b8
:10302000020000000000000000000000000000009e
:103030000000000000000000000000000000000090
:103040000000000000000000000800002200000056
:08305000000000000000000078
:00000001FF
