:020000040000fa
:080000000001040000000000f3
:020000040000fa
:10020000af8120000eff20000e01880000000000da
:100210000c00070080782000010020001f0007006c
:10022000000020000000e000020032000000020098
:1002300000000000a4060200000000000040da00f8
:100240000000fe004440a900000020000000e00083
:100250000300320000002000a00188004440a800f4
:1002600000000600f03fb1000180b100060035003b
:10027000ee03090000000000403fb1000180b10022
:10028000fbff3d001000b000203fb0000200350031
:1002900000800900000000000000060091018800b5
:1002a000800078000000eb0015003700e28040007d
:1002b00032a0b4009101ba00e280400032a0b40044
:1002c0009102ba00e280400032a0b4000002eb00cc
:1002d000472bde00f507b200602ce10004003a0075
:1002e0000059eb008301e900fdff3e0004003700e8
:1002f0006128e100010032000082eb0004000700e9
:100300001101ba000200e000e8ff3a000000060018
:100310003159ba008301e9000c0032002159ba00ba
:100320008301e900080032000400e00003003a0005
:10033000e280400032a0b400f5ff370011d9ba00c6
:100340008301e900faff3a008100e800e180400003
:1003500032a0b400000006000040da000000fe00f9
:10036000889fbe008a9fbe00010578000100e00062
:100370000400350008003c000000e00020003200ce
:100380000500370060001000e080180002003b000c
:1003900001f02c001a0037000004be006011b80004
:1003a0006b0920000982cf00020039000882cf00cb
:1003b0000441b000694252000e00320008003b00c8
:1003c00082817100610164008904d1000884d30036
:1003d0008b05e8000442e800f9ff3a000500370009
:1003e0000804440089844c008b05e9000442e900bc
:1003f000fbff3a00540007000af0a70001f0a0003c
:100400004f05be004f04be0000000600889fbe00de
:100410008a9fbe008c1f78007100070078003300af
:1004200003866c006450e100240032006420e10087
:10043000270032006150e100220032006120e1001b
:10044000210032008b854200eb07b1000134b80077
:10045000003ab8000804420089844a00013ab80012
:100460000030b8008880400009014a0004003300d1
:100470000000400081804800020149008b05e9002e
:10048000c909dd0083017000010032001300200063
:10049000c814de004814dd004709de001200b20077
:1004a000c808de00088470002700070001f0a100e2
:1004b0000cf0a70001f0a0005a0037006120e10015
:1004c0005c0032000801be000200be00f7ff3700ea
:1004d0006150e100fcff3a00560037000001be0009
:1004e000570007000470a70003f0a10003f8a30061
:1004f00013003a006509b100100032000900350010
:100500006928e10002003500010028000000050014
:1005100000004000818048008502e900fcff3a00ad
:1005200000000600f88f4200050035008100d10070
:100530000080d3008502e800fcff3a0000000600be
:100540008000eb0000000500810020006180550064
:100550000b003d000b00200061fe2f000100e100b8
:100560001d00340082817100610164008904d100a2
:100570000884d3000000e800faff3a007100200070
:100580006100640003007000020060000900320096
:1005900061044400e0844c000988a5000500320095
:1005a0008b05e8006808e10002003a008904d100e8
:1005b0000884d300f20f20000258e10005003d003e
:1005c000c75ddd00f907b20089807500080078007a
:1005d000000006000bf827008b00780000000500e3
:1005e0000004be00160007000003be000405be00a4
:1005f0000200be0012000700844f750000000600d4
:100600000200be006450e100050036006420e100f5
:10061000020036000968a30001003a000800be008d
:100620000160a0004f0678004f05be004f04be00d9
:1006300000000600f0ff2f00f1ff2700f9ff370050
:10064000c70ade00f107b200f50fb2000800320061
:10065000e1cf4200020032000170a000240005003a
:10066000810f7000010032000408050044000500fd
:10067000810f700002003a00140005008502e900b5
:100680000000400081c04800fcff3b000170a0005a
:04069000240005003d
:020000040000fa
:0200000401f009
:04000000f6bf000047
:020000040000fa
:0200000401f009
:04000400ff7f00007a
:020000040000fa
:0200000401f009
:04000800fcff0000f9
:020000040000fa
:10000800ac010000ac010000ac010000ac01000034
:10001800ac010000ac010000ac010000ac01000024
:1000280040060000ac010000ac01000054050000cf
:10003800ac010000ac010000d4050000e60500009a
:10004800ac010000ac010000ac010000ac010000f4
:10005800ac010000ac010000ac010000ac010000e4
:100068007e060000ac010000ac010000ac010000fd
:10007800ac010000ac010000ac010000ac010000c4
:10008800ac010000ac010000ac010000ac010000b4
:10009800ac010000ac010000ac010000ac010000a4
:1000a800ac010000ac010000ac010000ac01000094
:1000b800ac010000ac010000ac010000ac01000084
:1000c800ac010000ac010000ac010000ac01000074
:1000d800ac010000ac010000ac010000ac01000064
:1000e800ac010000ac010000ac010000ac01000054
:0800f800ac010000ac010000a6
:020000040000fa
:10010800ac010000ac010000ac010000ac01000033
:10011800ac010000ac010000ac010000ac01000023
:1001280040060000ac010000ac01000054050000ce
:10013800ac010000ac010000d4050000e605000099
:10014800ac010000ac010000ac010000ac010000f3
:10015800ac010000ac010000ac010000ac010000e3
:100168007e060000ac010000ac010000ac010000fc
:10017800ac010000ac010000ac010000ac010000c3
:10018800ac010000ac010000ac010000ac010000b3
:10019800ac010000ac010000ac010000ac010000a3
:1001a800ac010000ac010000ac010000ac01000093
:1001b800ac010000ac010000ac010000ac01000083
:1001c800ac010000ac010000ac010000ac01000073
:1001d800ac010000ac010000ac010000ac01000063
:1001e800ac010000ac010000ac010000ac01000053
:0801f800ac010000ac010000a5
:020000040000fa
:100694000800fa00000f78001e0078006101b9001c
:1006a4001000200001002000020140008381480066
:1006b40022079800330798009007200001002000cb
:1006c4002e019000be019000800f5100818f5900cf
:1006d400c8003e002e009000be00900000600100a3
:1006e400790037007b0037007d0037007f0037003a
:1006f400810037008300370085003700870037000a
:10070400890037008b0037008d003700b9003700af
:10071400b8003700b7003700b6003700b50037001f
:10072400b4003700b3003700b2003700b10037001f
:10073400b0003700af003700ae003700ad0037001f
:10074400ac003700ab003700aa003700a90037001f
:10075400a8003700a7003700a6003700a50037001f
:10076400a4003700a3003700a2003700a10037001f
:10077400a00037009f0037009e0037009d0037001f
:100784009c0037009b0037009a003700990037001f
:10079400980037009700370096003700950037001f
:1007a400940037009300370092003700910037001f
:1007b400900037008f0037008e0037008d0037001f
:1007c4008c0037008b0037008a003700890037001f
:1007d400880037008700370086003700850037001f
:1007e400840037008300370076003700810037002b
:1007f400620037007f003700660037006200370070
:100804007c0037006c00370059003700790037004e
:100814007800370074003700760037007500370021
:10082400620037004f003700720037007100370054
:10083400490037006f0037006e0037006d00370045
:100844006c0037006b0037006a003700690037001e
:10085400680037006700370066003700650037001e
:10086400640037006300370062003700610037001e
:1008740060003700350037005e0037005d00370048
:100884005c0037005b0037005a003700590037001e
:100894005800370057003700560037004c00370027
:1008a4005400370053003700520037003c00370033
:1008b400500037004f0037004e0037004d0037001e
:1008c4004c00370045003700010420001107980050
:1008d4004a003700f203200012079800470037004f
:1008e400630020001307980044003700b00520007f
:1008f4001007980041003700f10420001107980008
:100904003e00370062062000120798003b003700c3
:10091400d30620001307980038003700d0072000c2
:100924001007980035003700710020001107980067
:1009340032003700f2072000120798002f0037001a
:10094400f3062000130798002c003700e005200070
:100954001007980029003700d106200011079800dd
:1009640026003700320720001207980023003700c2
:100974006300200013079800200037009003200034
:10098400100798001d003700110720001107980078
:100994001a0037009207200012079800170037004a
:1009a400030520001307980014003700f00320000b
:1009b4001007980011003700610720001107980004
:1009c4000e00370072072000120798000b00370052
:1009d4004305200013079800080037000000eb00cf
:1009e40010079800050037008103200011079800c4
:1009f40002003700f2032000120798001e00900046
:100a04000080fa00000006000800fa00000f7800d9
:100a1400110798002207980033079800d622a800ef
:100a24001e0078001aff07005016880000e8230013
:100a3400010020000afe0700d622a900d642a80021
:100a44001e00900012ff07005016880000e82300e3
:100a54000100200002fe0700d642a900d662a800c9
:100a64002e0090000aff07005016880000e82300bb
:100a740001002000fafd0700d662a900d1c2a80037
:100a84003e00900002ff07005016880000e8230093
:100a940001002000f2fd0700d1c2a9000080fa0085
:100aa400000006003600f800809fbe00829fbe0052
:100ab400849fbe00869fbe00889fbe000000fa008f
:100ac4008460a900dac2bf00614060000004e00055
:100ad40017003200dc02a900404080006a001000c8
:100ae4006104b90006408000174080008800780047
:100af40006007800000ab80007c0b90005017800b4
:100b04000001410009b0b9000001410082027800ef
:100b14000400be0011fe0700d2cc2c00c3dc23006d
:100b240039fe07006cfe0700100888001500370026
:100b3400dc02a800404080006104b9000640800047
:100b4400174080008800780006007800000ab8008a
:100b540007c0b900050178000001410009b0b900df
:100b640000014100820278000400be00fbfd070082
:100b7400d2cc2c00c3dc230023fe070056fe070062
:100b8400100888000080fa004f04be004f03be0026
:100b94004f02be004f01be004f00be003600f900f8
:100ba40000400600801f78000000fa0084c0a900fd
:100bb400204080000000e800204088000080fa0007
:100bc4004f007800004006003600f800809fbe0009
:100bd400821f78000000fa0084e0a9002040800011
:100be400a2002000110009000280d8008000fd004e
:100bf400c040880020408000a200200011000900ad
:100c04000280d800a2002000110009000280d80050
:100c14008000fd00b0408800204080004206200093
:100c2400110009000280d800a20020001100090070
:100c34000280d8008000fd00a04088002040800091
:100c4400823e2000110009000280d800a20020008a
:100c5400110009000280d8008000fd009040880047
:100c64000000eb00204088000080fa004f0178006b
:100c74004f00be003600f900004006003600f800c0
:100c8400809fbe00829fbe00849fbe00869fbe00e0
:100c94000000fa0000502300c100200070fd07008e
:100ca4008400a90060408000504088002108800032
:100cb400000028000080700020088800910880004f
:100cc4000003280000807000900888000000eb00fa
:100cd400000888000000eb00500888000080fa003b
:100ce4004f03be004f02be004f01be004f00be00c6
:100cf4003600f900004006003600f800809fbe0070
:100d0400829fbe00849fbe00869fbe000000fa0042
:100d140000502300c100200051fd07008600a900f7
:100d240080408000704088000080fa004f03be00bd
:100d34004f02be004f01be004f00be003600f90056
:100d4400004006000200fa000080eb004015880015
:100d54000000eb0030168800cda2a800cdc2a90087
:100d64001000200090168800d802a9000000eb00b3
:100d74002004880061048000900c20000080700032
:100d8400600488000000eb003004880070048000d8
:100d94000000a0007004880020002100a004880046
:100da400009021001008880070002000600888006e
:100db40040422f007008880000d027000100200066
:100dc40000408800114088000000eb0020088800e3
:100dd4002000280080088800000320009008880074
:100de4000000eb00000888000000eb0050088800b9
:100df40000003700c0408000b2408000a140800065
:100e0400944080008001780004007800fefe070012
:100e14001b00070050408000000f78001e0078007f
:100e2400e10f50000c0032001e007800e20f500069
:100e34000e0032001e0078000000e00001003200c5
:100e4400ecff3700100020006040880020002000e4
:100e540040408800e7ff3700200020006040880001
:100e64008000200040408800e2ff37000000eb00d3
:100e7400604088005000200040408800ddff3700bb
:100e84000200fa0070408000000f78001e00780015
:100e9400e10f50000e0032001e007800e20f5000f7
:100ea400120032001e0078000000e0000100320051
:100eb40014003700100020008040880000d0270074
:100ec4000100200000408800114088000d00370018
:100ed400200020008040880000e82300010020005a
:100ee4000040880011408800060037000000eb0035
:100ef4008040880000a02f000100200000408800ee
:0c0f0400114088000080fa000000060088
:020000040000fa
:100f100000080000120000000200000000000000b5
:100f200000000000000002000000000000000000bf
:100f3000000000001208000008000000000000008f
:040f400000000000ad
:00000001FF
