:020000040000fa
:080000000001040000000000f3
:020000040000fa
:100200000f8020000eff20000e018800000000007b
:100210000c000700e0e92000010020001f0007009b
:10022000000020000000e000020032000000020098
:1002300000000000160c0200000000000040da0080
:100240000000fe004440a900c00320000000e000c0
:100250000300320000002000a00188004440a800f4
:1002600000000600f03fb1000180b100060035003b
:10027000ee03090000000000403fb1000180b10022
:10028000fbff3d001000b000203fb0000200350031
:1002900000800900000000000000060091018800b5
:1002a000800078000000eb0015003700e28040007d
:1002b00032a0b4009101ba00e280400032a0b40044
:1002c0009102ba00e280400032a0b4000002eb00cc
:1002d000472bde00f507b200602ce10004003a0075
:1002e0000059eb008301e900fdff3e0004003700e8
:1002f0006128e100010032000082eb0004000700e9
:100300001101ba000200e000e8ff3a000000060018
:100310003159ba008301e9000c0032002159ba00ba
:100320008301e900080032000400e00003003a0005
:10033000e280400032a0b400f5ff370011d9ba00c6
:100340008301e900faff3a008100e800e180400003
:1003500032a0b400000006000040da000000fe00f9
:10036000889fbe008a9fbe008c1f78000205be00d9
:100370000004be000006eb00e00f5000e08f5800c4
:10038000e00f5900e08f590007003d006000b80001
:100390006011b80008045000898458000a0559000b
:1003a0008b8559001c002000e00f5200e08f5a009e
:1003b000e00f5b00e08f5b0002003d000f000700d4
:1003c0000c00a2000800be000a01be001d010700cb
:1003d0000203be000002be000c00e000010032007b
:1003e000060007000400be000601be004f067800ac
:1003f0004f05be004f04be00000006006000b800bc
:100400006011b800040250008582580006035900ac
:100410008783590000000600881f780000047800d8
:100420005001be004000be0004004000858048002e
:100430000601490087814900009cbe000294be006d
:100440000400e1000588e1000690e1000798e10062
:1004500002003100680044001008e8004f047800f2
:1004600000000600f4874700889fbe008a9fbe00f8
:100470008c9fbe008e1f78000205be000004be00e7
:10048000d4b79f00e5b79f00f6b79f0087bf9f00d6
:100490000000eb00c0b79f00b0b79f00a0b79f005f
:1004a00090b79f0080b79f000d042000bfb0970059
:1004b0004fb09700000140000000e0000f003d0039
:1004c0004f08de0000007100c0b79f009e000700cb
:1004d00001003d0012002000a100070001003d00c6
:1004e00012002000a6000700b1000700b6000700b8
:1004f0000f004000c8ff0700220037004f08de0051
:1005000000067100ccb79f008f00070001003d007e
:10051000120020009200070001003d0012002000a0
:1005200097000700a20007000fb297009fb2970044
:100530002fb39700bfb39700a90007000000520037
:1005400081805a0002015b0083815b0080b79f00bd
:1005500091b79f00a2b79f00b3b79f000007eb00c1
:100560009f0007000020e10001a8e10002b0e100c7
:1005700003b8e100010031001e0020000e0056000b
:10058000c0b79f004fb297000400e000070035009d
:1005900010002000010020006011b8000804700065
:1005a000898470000a0571008b8571008d06e90051
:1005b000beff3a000400e00003003d008200070097
:1005c0000f00400094ff07004fa897000000e000d4
:1005d00004003a000fb497009fb497002fb597001e
:1005e000bfb59700940007004f0778004f06be0084
:1005f0004f05be004f04be004f01b10000000600d1
:10060000881f780018002000881f780095ff0700d9
:100610008f87e9004f04780000000600801feb0080
:1006200090ff07008f87e90000000600889fbe004a
:100630008a9fbe008c1f78006e00070007003d00f7
:1006400073000700e00f5b00e08f5b0007003d00d8
:10065000320007000006eb000400370034000700fa
:1006600002003d002a0007001c0020007200070065
:10067000e3ff07000203be000002be000c00e00022
:1006800001003200220007000400be000601be0087
:100690004f0678004f05be004f04be000000060064
:1006a000889fbe008a9fbe008c1f78005100070003
:1006b00005003d0056000700e00f5b00e08f5b0087
:1006c00006003d00040037001900070003003d004c
:1006d0006000b8006011b800100007005600070065
:1006e000ceff07000203be000002be000c00e000c7
:1006f00001003200060007000400be000601be0033
:100700004f0678004f05be004f04be0000000600f3
:100710006000b8006011b80000003700040250000b
:10072000858258000603590087835900000006009f
:100730000006eb00e00f5200e08f5a00e00f5b0074
:10074000e08f5b00000006000180400090b79f0032
:100750000001eb008fb097000100e00000000600f0
:100760000200700090b79f000180400080b79f009a
:100770000001eb00ffa897000100e0000000060068
:100780000200700080b79f00018040006faa9700b0
:10079000cf20de0001007000f0af9f000402420095
:1007a000250007004f18de0000027200000006005e
:1007b000e4af9f000804440089844c000a054d0002
:1007c0008b854d00000006003fb29700cfb2970026
:1007d0005fb39700efb3970000fe2f000000060004
:1007e0003fb09700cfb097005fb19700efb197008f
:1007f000000006000205be000004be00e00f50002d
:10080000e08f5800e00f5900e08f5900000006000b
:100810006000b8006011b8000804500089845800d6
:100820000a0559008b8559001c002000e00f52007a
:10083000e08f5a00000006000800be000a01be005a
:1008400000000600889fbe008a9fbe008c9fbe00ed
:100850000404b8000506b8008904460060854e000f
:100860000606b8000a054600e0854e000706b800f7
:100870008b054600040eb800890446000a854e0028
:10088000e0854d00050eb8000a0546008b854e0038
:10089000060eb8008b0546000416b8000a0546008f
:1008a0008b854e000516b8008b054600041eb80067
:1008b0008b0546000800be000a01be004f06be00c0
:0c08c0004f05be004f04be000000060003
:020000040000fa
:0200000401f009
:04000000f6bf000047
:020000040000fa
:0200000401f009
:04000400ff7f00007a
:020000040000fa
:0200000401f009
:04000800fcff0000f9
:020000040000fa
:10000800ac010000ac010000ac010000ac01000034
:10001800ac010000ac010000ac010000ac01000024
:10002800ac010000ac010000ac010000ac01000014
:10003800ac010000ac010000ac010000ac01000004
:10004800ac010000ac010000ac010000ac010000f4
:10005800ac010000ac010000ac010000ac010000e4
:10006800ac010000ac010000ac010000ac010000d4
:10007800ac010000ac010000ac010000ac010000c4
:10008800ac010000ac010000ac010000ac010000b4
:10009800ac010000ac010000ac010000ac010000a4
:1000a800ac010000ac010000ac010000ac01000094
:1000b800ac010000ac010000ac010000ac01000084
:1000c800ac010000ac010000ac010000ac01000074
:1000d800ac010000ac010000ac010000ac01000064
:1000e800ac010000ac010000ac010000ac01000054
:0800f800ac010000ac010000a6
:020000040000fa
:10010800ac010000ac010000ac010000ac01000033
:10011800ac010000ac010000ac010000ac01000023
:10012800ac010000ac010000ac010000ac01000013
:10013800ac010000ac010000ac010000ac01000003
:10014800ac010000ac010000ac010000ac010000f3
:10015800ac010000ac010000ac010000ac010000e3
:10016800ac010000ac010000ac010000ac010000d3
:10017800ac010000ac010000ac010000ac010000c3
:10018800ac010000ac010000ac010000ac010000b3
:10019800ac010000ac010000ac010000ac010000a3
:1001a800ac010000ac010000ac010000ac01000093
:1001b800ac010000ac010000ac010000ac01000083
:1001c800ac010000ac010000ac010000ac01000073
:1001d800ac010000ac010000ac010000ac01000063
:1001e800ac010000ac010000ac010000ac01000053
:0801f800ac010000ac010000a5
:020000040000fa
:1008cc0006000000660000006d0000003f00000004
:1008dc005e0000006d00000073000000300000009e
:1008ec00390000004f0000003f00000071000000c4
:1008fc00660000003f00000006000000060000003b
:10090c0000000000000000000000000000000000db
:10091c003f000000060000005b0000004f000000dc
:10092c00660000006d0000007d0000000700000064
:08093c007f0000006f000000c5
:020000040000fa
:100944000200fa00000f7800d662a8001e007800aa
:10095400cf80de000101780082017800044022008b
:10096400450f20006033b8007cfe0700843e200061
:10097400050020006033b80020ff070038fe0700a0
:10098400d662a9000080fa00000006000e00fa00fa
:100994002007980031079800420798000000eb00f8
:1009a400100798000200370010002000100798007c
:1009b400d4c2bf00624060000004e000faff3200cd
:1009c4001e0090000000e000100032000000eb0068
:1009d400100798002e00900010007800e80f5000d7
:1009e40005003c002e009000100078000000e80094
:1009f40060079800020037000000eb0060079800d1
:100a04002e009000ee009000010878002e00900067
:100a140010007800e10f400005003a004e009000fd
:100a24000080e800100078005007980008003700a4
:100a34002e00900010007800000040008000780034
:100a44003e0090000080400010007800500798009d
:100a54005e009000000f78001e0078000080fa000d
:100a6400000006000c00fa00100798002107980007
:100a74003207980043079800540798005e009000de
:100a8400000f78001d003700d602a8001e00900059
:100a9400501688000088230011002000f0fd070094
:100aa400d602a900d642a8002e0090005016880055
:100ab4000088230011002000e9fd0700d642a900a8
:100ac400d1c2a8003e009000501688000088230080
:100ad40011002000e2fd0700d1c2a900d1a2a800a4
:100ae4004e0090005016880000882300110020005a
:100af400dbfd0700d1a2a9001e0fe9001e00e000e3
:100b0400e1ff3a000080fa00000006001a00fa0033
:100b140040079800510798006207980073079800ef
:100b2400040f9800150f9800260f9800370f9800af
:100b34007e009000400f9800ce089000e18f500096
:100b4400210032004e089000e10f500004003c00e8
:100b5400ce0890000100e000080032009e0037003b
:100b64004e089000e20f50003f003200ce08900083
:100b7400e38f500069003200970037006e00900048
:100b84000080e80010007800100798001e00900014
:100b940020079800ae009000310798006e01900085
:100ba400de0090004e00900078ff0700000f7800f0
:100bb400000420009e0f1000870032003e089000c1
:100bc4001e087800840037006e0090000080e80062
:100bd40010007800200798002e009000300798003d
:100be4004eb89700100078000000e00013003200b7
:100bf4003eb89700100078000000e0000f003a00b3
:100c04003e089000900078002e08900001087800bb
:100c14002e089000900078001107980040062000ec
:100c240047ff0700ceb897000000eb00800878006b
:100c3400beb8970010002000800878006e01900074
:100c4400de0090004e00900050ff0700000f780077
:100c5400000420009e0f10005f0032003e08900048
:100c64001e0878005c0037006e0090000080e800e9
:100c740010007800300798004eb8970010007800f4
:100c84000000e0001a0032003eb89700100078001f
:100c94000000e00016003a002e0890009000780052
:100ca4001e089000010878001e089000900078004b
:100cb400210798003e089000900078002e089000cc
:100cc400010878002e089000900078001107980021
:100cd400400620001aff0700ceb897000000eb0082
:100ce40080087800beb897001000200080087800c3
:100cf4006e019000de0090004e00900023ff07007c
:100d0400000f7800000420009e0f10003200320013
:100d14003e0890001e0878002f0037004eb8970058
:100d2400100078000000e000210032003eb8970077
:100d3400100078000000e0001d003a001e0890003a
:100d4400900078000e089000010878000e089000ca
:100d540090007800310798002e08900090007800e9
:100d64001e089000010878001e089000900078008a
:100d7400210798003e089000900078002e0890000b
:100d8400010878002e089000900078001107980060
:100d940040062000eafe0700ceb897000000eb00f2
:100da40080087800beb89700100020008008780002
:100db4006e019000de0090004e009000f3fe0700ec
:100dc400000f7800000420009e0f10000200320083
:100dd4003e0890001e087800440120009e0178001f
:100de4001e019000ae0090003e0090001dff070021
:100df4000080fa00000006000a00fa00000f7800e4
:100e0400110798002207980033079800600020001b
:100e14009e0f10000f003a009e0090006006200014
:100e2400808f50000b003a00ae009000d0062000e6
:100e3400808f500007003a00be009000f0032000ad
:100e4400808f500003003a001000200040079800f3
:100e5400020037000000eb00400798004e009000ad
:100e64000080fa00000006000800fa00100798004d
:100e74001e009000100f78001e0078006101b90078
:100e84002207980033079800f00120000100200099
:100e94002e019000be019000800f5100818f5900f7
:100ea40062013e002e009000be0090000060010030
:100eb4001f00370028003700310037003a003700a0
:100ec400430037004c003700550037005e00370000
:100ed4006700370070003700790037008200370060
:100ee4008b003700940037009d003700a6003700c0
:100ef400af003700b8003700c1003700ca00370020
:100f0400d3003700dc003700e5003700ee0037007f
:100f1400f7003700000137000901370012013700dc
:100f24001b013700240137002d013700360137003b
:100f34009e00900010002000800878002403200008
:100f4400f3032000d2062000610620006000200088
:100f5400c4fe0700350137009e00900020002000e9
:100f64008008780024032000230620003204200097
:100f74003100200020002000bafe07002b013700ba
:100f84009e00900030002000800878002403200098
:100f94004305200082052000c101200040002000fc
:100fa400b0fe0700210137009e00900040002000a1
:100fb4008008780024032000f3032000d2062000d8
:100fc4006106200060002000a6fe0700170137001c
:100fd4009e0090005000200080087800440120000a
:100fe400e3052000f2032000d10620006006200063
:100ff4009cfe07000d0137009e0090006000200059
:101004008008780044012000d3062000e205200077
:10101400f1032000d006200092fe070003013700f0
:101024009e00900070002000800878004401200099
:1010340033072000d2062000e1052000f003200041
:1010440088fe0700f90037009e0090008000200011
:1010540080087800240320000303200032072000c6
:10106400d1062000e00520007efe0700ef003700d7
:101074009e00900090002000800878002403200047
:101084000302200012022000310420003006200058
:1010940074fe0700e50037009e009000a0002000c9
:1010a400800878002403200003012000c2052000ea
:1010b40081052000c00020006afe0700db00370025
:1010c4009e009000b00020008008780024032000d7
:1010d4000303200032072000d1062000e005200091
:1010e40060fe0700d10037009e009000c000200081
:1010f40080087800440120009303200002032000ac
:1011040031072000d006200056fe0700c700370034
:101114009e009000d0002000800878004401200048
:10112400f304200092032000010320003007200074
:101134004cfe0700bd0037009e009000e000200038
:101144008008780044012000f3032000f20420000a
:10115400910320000003200042fe0700b300370083
:101164009e009000f00020008008780024032000f6
:1011740013072000f2032000f10420009003200054
:1011840038fe0700a90037009e00900000012000ef
:101194008008780024032000130220002206200087
:1011a40031042000000620002efe07009f003700b7
:1011b4009e00900010012000800878002403200085
:1011c4008305200042052000c10420000005200002
:1011d40024fe0700950037009e00900020012000a7
:1011e400800878002403200013072000f203200065
:1011f400f1042000900320001afe07008b00370042
:101204009e009000300120008008780044012000f6
:101214006306200012072000f1032000f0042000e0
:1012240010fe0700810037009e009000400120005e
:101234008008780044012000f303200062062000a7
:1012440011072000f003200006fe07007700370096
:101254009e00900050012000800878004401200086
:1012640063002000f2032000610620001007200024
:10127400fcfd07006d0037009e0090006001200017
:10128400800878002403200063002000620020000e
:10129400f103200060062000f2fd07006300370020
:1012a4009e00900070012000800878002403200034
:1012b400230020002200200021062000300020000e
:1012c400e8fd0700590037009e00900080012000cf
:1012d40080087800240320004300200042002000fe
:1012e40041052000c0012000defd07004f0037004b
:1012f4009e009000900120008008780024032000c4
:101304006300200062002000f1032000600620003a
:10131400d4fd0700450037009e009000a001200086
:1013240080087800440120008001eb006200200066
:1013340061002000f0032000cafd07003b003700d5
:101344009e009000b0012000800878004401200035
:101354008001eb000001eb00610020006000200030
:10136400c0fd0700310037009e009000c00120003e
:1013740080087800440120008001eb000001eb00ac
:101384008000eb0060002000b6fd07002700370056
:101394009e009000d00120008008780044012000c5
:1013a4008001eb000001eb008000eb000000eb008b
:1013b400acfd07001d0037009e009000e0012000f6
:1013c4008008780044012000630020000001eb0045
:1013d4008000eb000000eb00a2fd070013003700c3
:1013e4009e009000f0012000800878004401200055
:1013f40063062000620020008000eb000000eb0088
:1014040098fd0700090037009e0090000000eb00e3
:101414008008780044012000d306200062062000e2
:10142400610020000000eb008efd07000080fa0040
:10143400000006004200fa002017980031179800b7
:10144400421798005317980064179800751798006e
:10145400061f9800171f98003e1090001000780097
:10146400800078003e1090000080e80010007800b2
:10147400000178003e1090006400400010007800e5
:10148400800178003e109000660040001000780053
:10149400000278006c004700ce1290000508780026
:1014a4006c004700de129000150098006c004700a5
:1014b400ee129000250098006c004700fe12900088
:1014c400350098006c004700410098006c0047000c
:1014d400520098006c004700630098006c004700bd
:1014e40074009800ec0047000000eb0080089800ae
:1014f400ec0047000000eb0090089800ec00470067
:101504000000eb00a0089800ec0047000000eb008e
:10151400b00898000e189000002798000e21900043
:101524000200e000040032008e229000e18f52009d
:1015340059003200ba0037000000eb001007980091
:10154400510037001e009000ec00470000004000ee
:1015540060817800520798001e009000ea0f500046
:10156400070034001e0090006b005000ec004700a0
:101574000000400060807800701f9800060037006b
:101584001e0090000000e800ec004700000040004e
:1015940060807800701f9800fe1a9000450798003c
:1015a4001e009000e90f5000070034001e00900058
:1015b4006a005000ec0047000000400060807800a2
:1015c400601f9800060037001e0090000080e800ad
:1015d400ec0047000000400060807800601f980025
:1015e4006e189000300798001e009000e80f50001d
:1015f400070034001e00900069005000ec00470012
:101604000000400060807800501f980006003700fa
:101614001e00900063004000ec0047000000400002
:1016240060807800501f98005e199000220798008f
:1016340044012000ae0190003e019000ce009000d5
:101644005e00900007fd0700a0002000000f780056
:101654000400370000502300c100200000fb0700f5
:101664001e0fe9001e00e00004003200e0c2bf00cb
:101674000044b2000004e000f6ff3a001e009000af
:101684000000e800100798001e009000eb0f5000c7
:10169400acff340062003700d4c2bf006240600077
:1016a4000004e0005c0032000000eb00100798002a
:1016b400550037001e0090000000400080007800b4
:1016c4002e10900000804000100078005007980011
:1016d4001e009000f20f50000a0034001e0090001b
:1016e40000004000800078002e10900080804000b0
:1016f400a0fd2f000080400010007800401f9800db
:10170400080037001e0090000000400080007800b0
:101714002e109000008040000080e8001000780047
:10172400401f9800ce1a9000450798001e009000b4
:10173400f10f50000a0034001e0090000000400029
:10174400800078002e10900080804000c0fd2f00a3
:101754000080400010007800301f98000800370017
:101764001e00900000004000800078002e109000c1
:10177400008040006400400010007800301f980092
:101784003e189000300798001e009000f00f5000a3
:101794000a0034001e009000000040008000780021
:1017a4002e10900080804000e0fd2f00008040005b
:1017b40010007800201f9800080037001e009000d9
:1017c40000004000800078002e109000008040004f
:1017d4006600400010007800201f98002e19900029
:1017e4002207980044012000ae0190003e019000c1
:1017f400ce0090005e0090009afc07001e0090004e
:101804000000e800100798001e009000f30f50003d
:10181400a8ff3400020037001e18900092fd070054
:101824000080fa00000006006e00fa00889fbe00e7
:101834008a1f780066004700e14828000900090073
:10184400311878004001b10090072000500f980033
:1018540000052000600f980000052000700f98001c
:10186400f003200000179800200220000e00400022
:101874006146280013000900311878008002b10085
:101884000000eb0050279800000420006027980017
:101894000080eb00401588000000eb003016880043
:1018a400cda2a900cdc2a900d202a900d242a900aa
:1018b400d222a800dec2a800d262a9000000eb0078
:1018c400200798000000eb00100798000080eb0050
:1018d400702798000000eb00002f98000000eb0038
:1018e400000f78000000eb00102f98000000eb00c0
:1018f400202f98000000eb00302f98000000eb0030
:1019040000379800060037001e009000200798005a
:101914000080eb007027980010002000002f980032
:10192400e0c2bf000044b2000004e000f6ff320051
:10193400ae009000613798006e309000e20f5000c6
:1019440066003200ee309000e28f500007003c0049
:101954006e3090000000e0000b003200ee3090008a
:10196400e18f500032003200edff37006e309000fe
:10197400e30f500084003200ee309000e48f5000fa
:10198400ac003200e6ff3700e0c2bf000044b20002
:101994000004e000060032007e209000e10f4000c9
:1019a4000300320010002000503798000200370076
:1019b4008000eb00513798005e30900010079800cb
:1019c400e70520008e834300c10520008e8040007f
:1019d400a20520000e014100830520008e814100f4
:1019e400a80420000e044400e6044700ea04200092
:1019f4000e0545000000eb00801f78000005200064
:101a04000e004000801f78000103780082027800f5
:101a1400030278008001eb00080178008900780057
:101a24000a00780039fc0700e4875700bcff370040
:101a3400e0c2bf000044b2000004e000060032002f
:101a44007e209000e10f40000300320021002000be
:101a540041379800020037001000200040379800fa
:101a6400ce30900011079800e70520008e834300d4
:101a7400c10520008e804000a20520000e01410017
:101a8400830520008e814100a80420000e04440038
:101a9400e6044700ea0420000e0545002005200066
:101aa4000e004000801f7800000520000e0040005a
:101ab400801f780001037800820278000302780016
:101ac4001300200008017800890078000a007800db
:101ad4000efc0700e487570091ff3700e0c2bf0007
:101ae4000044b2000004e000060032007e209000b2
:101af400e10f40000300320030002000303798002e
:101b04000200370021002000313798003e30900059
:101b140010079800e70520008e834300c1052000cc
:101b24008e804000a20520000e01410083052000a4
:101b34008e814100a80420000e044400e6044700fe
:101b4400ea0420000e054500400520000e00400078
:101b5400801f7800000520000e004000801f7800e0
:101b64000103780082027800030278002300200039
:101b740008017800890078000a007800e3fb070078
:101b8400e487570066ff3700e0c2bf000044b2009c
:101b94000004e000060032007e209000e10f4000c7
:101ba4000300320041002000213798000200370072
:101bb4003000200020379800ae30900011079800c4
:101bc400e70520008e834300c10520008e8040007d
:101bd400a20520000e014100830520008e814100f2
:101be400a80420000e044400e6044700ea04200090
:101bf4000e054500600520000e004000801f78009f
:101c0400000520000e004000801f780001037800ca
:101c14008202780003027800330020000801780073
:101c2400890078000a007800b8fb0700e4875700b1
:101c34003bff3700e0c2bf000044b2000004e000f4
:101c4400030032000000eb00103798000200370058
:101c540041002000113798001e30900010079800b2
:101c64007e2890006e299000de2890004e2a900075
:101c740080017800040078005ffc07000000e000a9
:101c840006003a000e2890000000e0000300320035
:101c94001e0fe8000000eb00002f98003100200028
:101ca4009e8f100006003a000000eb00000f780041
:101cb4008038210022fb07000000eb002007980079
:101cc4007e2890006e299000de2890004e2a900015
:101cd400800178000400780047fc0700fe2890008b
:101ce4006e299000de2990004e2c900007062000fb
:101cf4008e834300fa0447002a0220000e054500a3
:101d0400000378008102780002027800080178005c
:101d1400890078000a007800c6fd07000000eb0087
:101d2400302f98003e289000202f98002e289000f5
:081d3400102f9800fafe3700a1
:020000040000fa
:041d3c0000000000a3
:00000001FF
