:020000040000fa
:080000000001040000000000f3
:020000040000fa
:100200000f8020000eff20000e018800000000007b
:100210000c000700a0712000010020001f00070053
:10022000000020000000e000020032000000020098
:1002300000000000fa050200000000000040da00a3
:100240000000fe004440a900200720000000e0005c
:100250000300320000002000a00188004440a800f4
:1002600000000600f03fb1000180b100060035003b
:10027000ee03090000000000403fb1000180b10022
:10028000fbff3d001000b000203fb0000200350031
:1002900000800900000000000000060091018800b5
:1002a000800078000000eb0015003700e28040007d
:1002b00032a0b4009101ba00e280400032a0b40044
:1002c0009102ba00e280400032a0b4000002eb00cc
:1002d000472bde00f507b200602ce10004003a0075
:1002e0000059eb008301e900fdff3e0004003700e8
:1002f0006128e100010032000082eb0004000700e9
:100300001101ba000200e000e8ff3a000000060018
:100310003159ba008301e9000c0032002159ba00ba
:100320008301e900080032000400e00003003a0005
:10033000e280400032a0b400f5ff370011d9ba00c6
:100340008301e900faff3a008100e800e180400003
:1003500032a0b400000006000040da000000fe00f9
:10036000889fbe008a9fbe008c1f78000205be00d9
:100370000004be000006eb00e00f5000e08f5800c4
:10038000e00f5900e08f590007003d006000b80001
:100390006011b80008045000898458000a0559000b
:1003a0008b8559001c002000e00f5200e08f5a009e
:1003b000e00f5b00e08f5b0002003d000f000700d4
:1003c0000c00a2000800be000a01be001d010700cb
:1003d0000203be000002be000c00e000010032007b
:1003e000060007000400be000601be004f067800ac
:1003f0004f05be004f04be00000006006000b800bc
:100400006011b800040250008582580006035900ac
:100410008783590000000600881f780000047800d8
:100420005001be004000be0004004000858048002e
:100430000601490087814900009cbe000294be006d
:100440000400e1000588e1000690e1000798e10062
:1004500002003100680044001008e8004f047800f2
:1004600000000600f4874700889fbe008a9fbe00f8
:100470008c9fbe008e1f78000205be000004be00e7
:10048000d4b79f00e5b79f00f6b79f0087bf9f00d6
:100490000000eb00c0b79f00b0b79f00a0b79f005f
:1004a00090b79f0080b79f000d042000bfb0970059
:1004b0004fb09700000140000000e0000f003d0039
:1004c0004f08de0000007100c0b79f009e000700cb
:1004d00001003d0012002000a100070001003d00c6
:1004e00012002000a6000700b1000700b6000700b8
:1004f0000f004000c8ff0700220037004f08de0051
:1005000000067100ccb79f008f00070001003d007e
:10051000120020009200070001003d0012002000a0
:1005200097000700a20007000fb297009fb2970044
:100530002fb39700bfb39700a90007000000520037
:1005400081805a0002015b0083815b0080b79f00bd
:1005500091b79f00a2b79f00b3b79f000007eb00c1
:100560009f0007000020e10001a8e10002b0e100c7
:1005700003b8e100010031001e0020000e0056000b
:10058000c0b79f004fb297000400e000070035009d
:1005900010002000010020006011b8000804700065
:1005a000898470000a0571008b8571008d06e90051
:1005b000beff3a000400e00003003d008200070097
:1005c0000f00400094ff07004fa897000000e000d4
:1005d00004003a000fb497009fb497002fb597001e
:1005e000bfb59700940007004f0778004f06be0084
:1005f0004f05be004f04be004f01b10000000600d1
:10060000881f780018002000881f780095ff0700d9
:100610008f87e9004f04780000000600801feb0080
:1006200090ff07008f87e90000000600889fbe004a
:100630008a9fbe008c1f78006e00070007003d00f7
:1006400073000700e00f5b00e08f5b0007003d00d8
:10065000320007000006eb000400370034000700fa
:1006600002003d002a0007001c0020007200070065
:10067000e3ff07000203be000002be000c00e00022
:1006800001003200220007000400be000601be0087
:100690004f0678004f05be004f04be000000060064
:1006a000889fbe008a9fbe008c1f78005100070003
:1006b00005003d0056000700e00f5b00e08f5b0087
:1006c00006003d00040037001900070003003d004c
:1006d0006000b8006011b800100007005600070065
:1006e000ceff07000203be000002be000c00e000c7
:1006f00001003200060007000400be000601be0033
:100700004f0678004f05be004f04be0000000600f3
:100710006000b8006011b80000003700040250000b
:10072000858258000603590087835900000006009f
:100730000006eb00e00f5200e08f5a00e00f5b0074
:10074000e08f5b00000006000180400090b79f0032
:100750000001eb008fb097000100e00000000600f0
:100760000200700090b79f000180400080b79f009a
:100770000001eb00ffa897000100e0000000060068
:100780000200700080b79f00018040006faa9700b0
:10079000cf20de0001007000f0af9f000402420095
:1007a000250007004f18de0000027200000006005e
:1007b000e4af9f000804440089844c000a054d0002
:1007c0008b854d00000006003fb29700cfb2970026
:1007d0005fb39700efb3970000fe2f000000060004
:1007e0003fb09700cfb097005fb19700efb197008f
:1007f000000006000205be000004be00e00f50002d
:10080000e08f5800e00f5900e08f5900000006000b
:100810006000b8006011b8000804500089845800d6
:100820000a0559008b8559001c002000e00f52007a
:10083000e08f5a00000006000800be000a01be005a
:1008400000000600889fbe008a9fbe008c9fbe00ed
:100850000404b8000506b8008904460060854e000f
:100860000606b8000a054600e0854e000706b800f7
:100870008b054600040eb800890446000a854e0028
:10088000e0854d00050eb8000a0546008b854e0038
:10089000060eb8008b0546000416b8000a0546008f
:1008a0008b854e000516b8008b054600041eb80067
:1008b0008b0546000800be000a01be004f06be00c0
:0c08c0004f05be004f04be000000060003
:020000040000fa
:0200000401f009
:04000000f6bf000047
:020000040000fa
:0200000401f009
:04000400ff7f00007a
:020000040000fa
:0200000401f009
:04000800fcff0000f9
:020000040000fa
:10000800ac010000ac010000ac010000ac01000034
:10001800ac010000ac010000ac010000ac01000024
:10002800ac010000ac010000ac010000ac01000014
:10003800ac010000ac010000ac010000ac01000004
:10004800ac010000ac010000ac010000ac010000f4
:10005800ac010000ac010000ac010000ac010000e4
:10006800ac010000ac010000ac010000ac010000d4
:10007800ac010000ac010000ac010000ac010000c4
:10008800ac010000ac010000ac010000ac010000b4
:10009800ac010000ac010000ac010000ac010000a4
:1000a800ac010000ac010000ac010000ac01000094
:1000b800ac010000ac010000ac010000ac01000084
:1000c800ac010000ac010000ac010000ac01000074
:1000d800ac010000ac010000ac010000ac01000064
:1000e800ac010000ac010000ac010000ac01000054
:0800f800ac010000ac010000a6
:020000040000fa
:10010800ac010000ac010000ac010000ac01000033
:10011800ac010000ac010000ac010000ac01000023
:10012800ac010000ac010000ac010000ac01000013
:10013800ac010000ac010000ac010000ac01000003
:10014800ac010000ac010000ac010000ac010000f3
:10015800ac010000ac010000ac010000ac010000e3
:10016800ac010000ac010000ac010000ac010000d3
:10017800ac010000ac010000ac010000ac010000c3
:10018800ac010000ac010000ac010000ac010000b3
:10019800ac010000ac010000ac010000ac010000a3
:1001a800ac010000ac010000ac010000ac01000093
:1001b800ac010000ac010000ac010000ac01000083
:1001c800ac010000ac010000ac010000ac01000073
:1001d800ac010000ac010000ac010000ac01000063
:1001e800ac010000ac010000ac010000ac01000053
:0801f800ac010000ac010000a5
:020000040000fa
:1008cc000400000004000000080000000800000004
:1008dc00080000000a0000000400000004000000f2
:1008ec000800000008000000080000000a000000da
:1008fc0004000000040000000800000008000000d4
:10090c0008000000080000000800000004000000bf
:10091c0004000000080000000800000008000000af
:10092c000c000000ba030000ba03000052030000e0
:10093c00ba030000cc020000f5020000ba0300006c
:10094c00ba03000052030000ba0300007d0200004d
:10095c00cc020000ba030000ba030000de01000064
:10096c0038020000cc020000f50200005203000027
:10097c00180200001802000038020000cc0200002f
:10098c007d020000cc0200003f00000006000000c9
:10099c005b0000004f000000660000006d000000ce
:0409ac007d000000ca
:020000040000fa
:1009b0000c00fa00100798002107980032079800f1
:1009c0004307980040012000000f78002600370000
:1009d000d1c2a8001e009000100078000000400066
:1009e000800078002e009000008040001000780009
:1009f00050168800008823001100200019fe07000f
:100a0000d1c2a900d1a2a8001e0090000080e80079
:100a10001000780000004000800078002e00900058
:100a200000804000100078005016880000882300e5
:100a3000110020000bfe0700d1a2a9003e0090008b
:100a40000000e000060032004e0090001000780028
:100a5000e90f500002003c00c1e1a800010037008e
:100a6000c1e1a9001e0fe9001e00e000d8ff3a0016
:100a70003e0090000000e000050032004e009000b3
:100a8000100078000000e8005007980002003700ce
:100a90000000eb00500798004e009000de00900030
:100aa000010878000080fa00000006000400fa0047
:100ab000100798000000eb00000f780004003700da
:100ac0000010270021002000e6fd07001e0fe800af
:100ad0001e0090009e0f1000f9ff39000080fa0000
:100ae000000006000400fa00000f780011079800cb
:100af0001e007800200e88001e007800b00e8800ce
:100b00001e009000cf80de00010178008201780095
:100b100004402200450f20006033b80010fe07009b
:100b2000843e2000050020006033b800b4fe0700ba
:100b3000ccfd07000080fa00000006006600fa0005
:100b40000e80e8008149280018000900311878005b
:100b50002003b100400320000e0040006146280041
:100b600018000900311878002003b1001b0037007d
:100b7000c1e1a8000000eb00000f78001100370071
:100b80001e007800410320008e80400000004000dd
:100b9000e0807800400620000088b900000178005d
:100ba0001e0078008e80e800000040006080780021
:100bb00082007800cbff070060002000bbff070029
:100bc0001e0fe800800120009e0f1000ecff360091
:100bd00040062000b5ff0700c1e1a900e0c2bf0048
:100be000614060000004e000e1ff32000080fa0094
:100bf000000006002400fa00a04c280006000900ae
:100c0000301f7800ee00b1000080eb004015880036
:100c10000000eb0030168800cda2a900cdc2a900cb
:100c2000d222a800dec2a800d262a900de02a8007b
:100c3000f00f2000400e8800c0c1bf00c040b300cc
:100c4000c0e1b70080382100200e88000000eb00d2
:100c5000100e8800200e8000b00e8800c1e1a900af
:100c60000000eb00700798000000eb00000f9800f8
:100c700000003700d4c2bf00624060000004e00002
:100c800018003a00e0c2bf000044b2000004e000d7
:100c900014003a00f40047000000eb0080087800e0
:100ca000f40047000000eb00900098000000eb000b
:100cb000000f980080382100200e8800200e800050
:100cc000b00e88006e004700740247008001780073
:100cd000120020008e0078000400780034ff070026
:100ce000e4ff3700d4c2bf00624060000004e000af
:100cf00018003a00e0c2bf000044b2000004e00067
:100d000014003200f800470010002000800878002e
:100d1000f800470020002000900098000000eb0041
:100d20007007980080382100200e8800200e800077
:100d3000b00e8800700047007802470080017800fc
:100d4000120020008e0078000400780018ff0700d1
:100d5000c8ff3700d4c2bf00624060000004e0005a
:100d600016003200e0c2bf000044b2000004e00000
:100d700012003a00fc004700300020008008780094
:100d8000fc00470040002000900098000000eb00ad
:100d9000000f98000e08900070079800720047003e
:100da0007c024700800178000001eb008e00780093
:100db00004007800fefe0700aeff3700d4c2bf007b
:100dc000624060000004e000aaff3200e0c2bf0001
:100dd0000044b2000004e000a6ff3200010220003f
:100de0008e80400050002000800878000102200022
:100df0008e80400060002000900098000000eb0012
:100e0000000f98000e0890007007980072004700cd
:100e1000040220000e024200800178000001eb0075
:100e20008e00780004007800e1fe070043ff070011
:040e300090ff3700f8
:020000040000fa
:040e340000000000ba
:00000001FF
