:020000040000fa
:080000000001040000000000f3
:020000040000fa
:100200000f8020000eff20000e018800000000007b
:100210000c000700e03d2000010020001f00070047
:10022000000020000000e000020032000000020098
:1002300000000000a4020200000000000040da00fc
:100240000000fe004440a900000020000000e00083
:100250000300320000002000a00188004440a800f4
:1002600000000600f03fb1000180b100060035003b
:10027000ee03090000000000403fb1000180b10022
:10028000fbff3d001000b000203fb0000200350031
:1002900000800900000000000000060091018800b5
:1002a000800078000000eb0015003700e28040007d
:1002b00032a0b4009101ba00e280400032a0b40044
:1002c0009102ba00e280400032a0b4000002eb00cc
:1002d000472bde00f507b200602ce10004003a0075
:1002e0000059eb008301e900fdff3e0004003700e8
:1002f0006128e100010032000082eb0004000700e9
:100300001101ba000200e000e8ff3a000000060018
:100310003159ba008301e9000c0032002159ba00ba
:100320008301e900080032000400e00003003a0005
:10033000e280400032a0b400f5ff370011d9ba00c6
:100340008301e900faff3a008100e800e180400003
:1003500032a0b400000006000040da000000fe00f9
:020000040000fa
:0200000401f009
:04000000f6bf000047
:020000040000fa
:0200000401f009
:04000400ff7f00007a
:020000040000fa
:0200000401f009
:04000800fcff0000f9
:020000040000fa
:10000800ac010000ac010000ac010000ac01000034
:10001800ac010000ac010000ac010000ac01000024
:10002800ac010000ac010000ac010000ac01000014
:10003800ac010000ac010000ac010000ac01000004
:10004800ac010000ac010000ac010000ac010000f4
:10005800ac010000ac010000ac010000ac010000e4
:10006800ac010000ac010000ac010000ac010000d4
:10007800ac010000ac010000ac010000ac010000c4
:10008800ac010000ac010000ac010000ac010000b4
:10009800ac010000ac010000ac010000ac010000a4
:1000a800ac010000ac010000ac010000ac01000094
:1000b800ac010000ac010000ac010000ac01000084
:1000c800ac010000ac010000ac010000ac01000074
:1000d800ac010000ac010000ac010000ac01000064
:1000e800ac010000ac010000ac010000ac01000054
:0800f800ac010000ac010000a6
:020000040000fa
:10010800ac010000ac010000ac010000ac01000033
:10011800ac010000ac010000ac010000ac01000023
:10012800ac010000ac010000ac010000ac01000013
:10013800ac010000ac010000ac010000ac01000003
:10014800ac010000ac010000ac010000ac010000f3
:10015800ac010000ac010000ac010000ac010000e3
:10016800ac010000ac010000ac010000ac010000d3
:10017800ac010000ac010000ac010000ac010000c3
:10018800ac010000ac010000ac010000ac010000b3
:10019800ac010000ac010000ac010000ac010000a3
:1001a800ac010000ac010000ac010000ac01000093
:1001b800ac010000ac010000ac010000ac01000083
:1001c800ac010000ac010000ac010000ac01000073
:1001d800ac010000ac010000ac010000ac01000063
:1001e800ac010000ac010000ac010000ac01000053
:0801f800ac010000ac010000a5
:020000040000fa
:100360000400fa00000f78001e00780010007800ea
:10037000501688001e007800100078008080d100a0
:100380001e007800010878001e0078001000780038
:100390000000e000040034001e0078001000780027
:1003a000100798000200370000082000100798008e
:1003b0001e0078009e009000010878000080fa007e
:1003c000000006000400fa00000f78001e0078000c
:1003d00010007800501688001e0078001000780089
:1003e00000004000800078001e00780001087800be
:1003f0001e0078009000780000082000808f5000d8
:1004000004003c001e0078001000780010079800df
:100410000200370010002000100798001e0078002e
:100420009e009000010878000080fa00000006009d
:100430000600fa00000f7800110798001e007800ef
:100440001000780000004000800078001e0090003e
:100450000080400010007800501688001e007800d0
:1004600010007800e20f500005003c001e007800ec
:10047000100078000000e800200798000200370014
:100480000000eb00200798001e007800ae009000ee
:10049000010878000080fa00000006000000fa0061
:1004a00023003700f00f200050168800201c200089
:1004b000b00e880000402200410f200069ff0700b5
:1004c000f00f200050168800e02e2000b00e8800ab
:1004d00000402200410f200062ff0700f00f2000c3
:1004e00050168800a0412000b00e88000040220075
:1004f000410f20005bff0700f00f2000501688001e
:1005000060542000b00e880000402200410f2000ff
:1005100054ff0700f00f200050168800200e8000c6
:10052000b00e880000402200410f20004dff070060
:10053000e0c2bf000044b2000004e000d9ff320076
:100540000080fa00000006001c00fa0010082000dd
:100550003007980020042000400798004002200047
:100560005007980080012000600798000000eb0011
:10057000200798000000eb00100798000080eb00b7
:10058000401588000000eb0030168800d222a80039
:10059000dec2a8000000eb0050168800f00f20001b
:1005a000400e8800c0c1bf00c040b300c0e1b7002a
:1005b00080382100200e88000000eb00100e88001b
:1005c000200e8000b00e8800c1e1a80010002000bd
:1005d000700798000000eb00000f98000200370041
:1005e0001e00900020079800d4c2bf006240600047
:1005f0000004e000faff32002e009000500f980037
:100600005e089000e20f50002f0032005e0890005c
:10061000e20f500007003c005e0890000000e00080
:100620000b0032005e089000e10f50001300320012
:10063000500037005e089000e30f50003000320099
:100640005e089000e40f50003b0032004900370084
:10065000d4c2bf00e24060000000eb001007980029
:100660000104e00002003200100020001007980092
:100670000000eb005016880042003700d4c2bf00d3
:10068000624060000004e00003003200200020000f
:10069000400f98000200370010002000400f980023
:1006a0004e08900010079800e0c2bf000044b2005e
:1006b0000004e00002003200f00f20005016880015
:1006c00076ff07002f003700d4c2bf0062406000f1
:1006d0000004e0000300320030002000300f9800da
:1006e0000200370020002000300f98003e089000e4
:1006f000100798006e00470032ff07002100370006
:10070000d4c2bf00624060000004e0000300320079
:1007100040002000200f9800020037003000200029
:10072000200f98002e089000100798006e004700d8
:100730000bff070013003700d4c2bf006240600007
:100740000004e0000300320010002000100f9800a9
:100750000200370040002000100f98001e08900093
:1007600010079800e60047007000470030ff0700c0
:10077000040037000000eb00100798000000eb00b9
:1007800050168800a0002000000f780004003700f9
:1007900000502300c1002000b2fe07001e0fe90038
:1007a0001e00e00090ff3200d4c2bf006240600033
:0c07b0000004e000f6ff3a008bff370069
:020000040000fa
:0407bc000000000039
:00000001FF
