:020000040000fa
:080000000001040000000000f3
:020000040000fa
:100200006f8120000eff20000e018800000000001a
:100210000c000700c0a62000010020001f000700fe
:10022000000020000000e000020032000000020098
:1002300000000000c0070200000000000040da00db
:100240000000fe004440a900000020000000e00083
:100250000300320000002000a00188004440a800f4
:1002600000000600f03fb1000180b100060035003b
:10027000ee03090000000000403fb1000180b10022
:10028000fbff3d001000b000203fb0000200350031
:1002900000800900000000000000060091018800b5
:1002a000800078000000eb0015003700e28040007d
:1002b00032a0b4009101ba00e280400032a0b40044
:1002c0009102ba00e280400032a0b4000002eb00cc
:1002d000472bde00f507b200602ce10004003a0075
:1002e0000059eb008301e900fdff3e0004003700e8
:1002f0006128e100010032000082eb0004000700e9
:100300001101ba000200e000e8ff3a000000060018
:100310003159ba008301e9000c0032002159ba00ba
:100320008301e900080032000400e00003003a0005
:10033000e280400032a0b400f5ff370011d9ba00c6
:100340008301e900faff3a008100e800e180400003
:1003500032a0b400000006000040da000000fe00f9
:10036000889fbe008a9fbe00010578000100e00062
:100370000400350008003c000000e00020003200ce
:100380000500370060001000e080180002003b000c
:1003900001f02c001a0037000004be006011b80004
:1003a0006b0920000982cf00020039000882cf00cb
:1003b0000441b000694252000e00320008003b00c8
:1003c00082817100610164008904d1000884d30036
:1003d0008b05e8000442e800f9ff3a000500370009
:1003e0000804440089844c008b05e9000442e900bc
:1003f000fbff3a00db0007000af0a70001f0a000b5
:100400004f05be004f04be0000000600889fbe00de
:100410008a9fbe008c1f7800f8000700ff003300a1
:1004200003866c006450e100240032006420e10087
:10043000270032006150e100220032006120e1001b
:10044000210032008b854200eb07b1000134b80077
:10045000003ab8000804420089844a00013ab80012
:100460000030b8008880400009014a0004003300d1
:100470000000400081804800020149008b05e9002e
:10048000c909dd0083017000010032001300200063
:10049000c814de004814dd004709de001200b20077
:1004a000c808de0008847000ae00070001f0a1005b
:1004b0000cf0a70001f0a000e10037006120e1008e
:1004c000e30032000801be000200be00f7ff370063
:1004d0006150e100fcff3a00dd0037000001be0082
:1004e000de0007000470a70003f0a10003f8a300da
:1004f00013003a006509b100100032000900350010
:100500006928e10002003500010028000000050014
:1005100000004000818048008502e900fcff3a00ad
:1005200000000600f88f4200050035008100d10070
:100530000080d3008502e800fcff3a0000000600be
:100540008000eb00000005000001eb00d800070070
:10055000040032000200200003f8230001f0a7008d
:10056000010007000000060003f0a200889fbe0003
:100570008a9fbe008c1f7800a0000700a7003300f0
:100580006450e1004f0032006420e100520032006c
:1005900003826c0007003b000905d0000306d00071
:1005a000820f54000c065d00020039000200320088
:1005b00089017800030678008582550004003d001b
:1005c0000003fd008103fd008502ea008b854200e7
:1005d000840f720002003b0060001000e0801800f1
:1005e0006011b8000005eb007a28e1000a0039002c
:1005f00006007800c75ddd00f707b2008780750050
:100600002d003700828171000a01780061056000c9
:100610008180d1000080d3008502e900f9ff3b0012
:10062000060440008784480002003b006004140078
:10063000e0841c000988a300070032008a81710051
:1006400082817100610164008904d1000884d300b3
:100650008b05e800170037000978a30013003a0063
:100660000b00e000130034008b05e900080444008f
:1006700089844c000a4474000978a3000d003a00f4
:100680000b00e000070034008b05e900080444007b
:1006900089844c0001003a000b0020000978a30077
:1006a000f7ff32000001eb00020037008281710089
:1006b0000a0178002b0007000cf0a70001f0a00051
:1006c0005f0037006420e10002003a00838f6c0075
:1006d0005f0033000801be000200be005800370072
:1006e0000001be005d0007000470a70003f0a10038
:1006f0006509b100160032000d0035006828e100e0
:1007000006003500f0ff2f00f1ff27000300e00096
:1007100013003b000100280000000500000040001d
:10072000818048008502e900fcff3a00080037009c
:10073000f88f420002003c008000eb000000050042
:100740008100d1000080d3008502e800fcff3a0060
:100750000300e00002003b0060001000e080180091
:100760000000060081002000618055000b003d0064
:100770000b00200061fe2f000100e1001d0034008d
:1007800082817100610164008904d1000884d30072
:100790000000e800faff3a007100200061006400e8
:1007a0000300700002006000090032006104440090
:1007b000e0844c000988a500050032008b05e800a4
:1007c0006808e10002003a008904d1000884d300df
:1007d000f20f20000258e10005003d00c75ddd007a
:1007e000f907b20089807500080078000000060053
:1007f0000bf827008b007800000005000004be0005
:10080000160007000003be000405be000200be0083
:1008100012000700844f7500000006000200be00b1
:100820006450e100050036006420e100020036005b
:100830000968a30001003a000800be000160a000a2
:100840004f0678004f05be004f04be0000000600b2
:10085000f0ff2f00f1ff2700f9ff3700c70ade0085
:10086000f107b200f50fb20008003200e1cf4200fc
:10087000020032000170a00024000500810f70000a
:10088000010032000408050044000500810f7000db
:1008900002003a00140005008502e9000000400053
:1008a00081c04800fcff3b000170a000240005004f
:1008b000889fbe008a9fbe000003be00e7ff0700be
:1008c0008505780082815200020020006220e1004c
:1008d00004003a00f307b100040035007718e10086
:1008e000040035000600be00140037006000b800a8
:1008f0000f003700f50f2000faff2f008502d1000e
:100900000a85d3008301e900fcff3b00818462007b
:1009100000046500890f7400f2ff32008582ea004e
:100920000a85ea0081846200000465008dff0700eb
:1009300007f0a70001f0a0000081eb000200e0003a
:0c0940004f05be004f04be000000060082
:020000040000fa
:0200000401f009
:04000000f6bf000047
:020000040000fa
:0200000401f009
:04000400ff7f00007a
:020000040000fa
:0200000401f009
:040008007cff000079
:020000040000fa
:0200000401f009
:04001400ffff0000ea
:020000040000fa
:10000800ac010000ac010000ac010000ac01000034
:10001800ac010000ac010000ac010000ac01000024
:100028005c070000ac010000ac010000bc06000049
:10003800ac010000ac010000ac010000ac01000004
:10004800ac010000ac010000ac010000ac010000f4
:10005800ac010000ac010000ac010000ac010000e4
:1000680086070000ac010000ac010000ac010000f4
:10007800ac010000ac010000ac010000ac010000c4
:10008800ac010000ac010000ac010000ac010000b4
:10009800ac010000ac010000ac010000ac010000a4
:1000a800ac010000ac010000ac010000ac01000094
:1000b800ac010000ac010000ac010000ac01000084
:1000c800ac010000ac010000ac010000ac01000074
:1000d800ac010000ac010000ac010000ac01000064
:1000e800ac010000ac010000ac010000ac01000054
:0800f800ac010000ac010000a6
:020000040000fa
:10010800ac010000ac010000ac010000ac01000033
:10011800ac010000ac010000ac010000ac01000023
:100128005c070000ac010000ac010000bc06000048
:10013800ac010000ac010000ac010000ac01000003
:10014800ac010000ac010000ac010000ac010000f3
:10015800ac010000ac010000ac010000ac010000e3
:1001680086070000ac010000ac010000ac010000f3
:10017800ac010000ac010000ac010000ac010000c3
:10018800ac010000ac010000ac010000ac010000b3
:10019800ac010000ac010000ac010000ac010000a3
:1001a800ac010000ac010000ac010000ac01000093
:1001b800ac010000ac010000ac010000ac01000083
:1001c800ac010000ac010000ac010000ac01000073
:1001d800ac010000ac010000ac010000ac01000063
:1001e800ac010000ac010000ac010000ac01000053
:0801f800ac010000ac010000a5
:020000040000fa
:10094c000800fa00000f78001e0078006101b90061
:10095c0010002000010020000201400083814800ab
:10096c002207980033079800900720000100200010
:10097c002e019000be019000800f5100818f590014
:10098c00ce003e002e009000be00900000600100e2
:10099c00790037007b0037007d0037007f0037007f
:1009ac00810037008300370085003700870037004f
:1009bc00890037008b0037008d003700bf003700ef
:1009cc00be003700bd003700bc003700bb0037004d
:1009dc00ba003700b9003700b8003700b70037004d
:1009ec00b6003700b5003700b4003700b30037004d
:1009fc00b2003700b1003700b0003700af0037004d
:100a0c00ae003700ad003700ac003700ab0037004c
:100a1c00aa003700a9003700a8003700a70037004c
:100a2c00a6003700a5003700a4003700a30037004c
:100a3c00a2003700a1003700a00037009f0037004c
:100a4c009e0037009d0037009c0037009b0037004c
:100a5c009a0037009900370098003700970037004c
:100a6c00960037009500370094003700930037004c
:100a7c009200370091003700900037008f0037004c
:100a8c008e0037008d0037008c0037008b0037004c
:100a9c008a0037008900370076003700870037005e
:100aac0062003700850037006600370062003700af
:100abc00820037006c003700590037007f00370088
:100acc007e003700740037007c0037007b00370055
:100adc00620037004f003700720037007700370094
:100aec004900370075003700740037007300370079
:100afc007200370071003700700037006f0037004c
:100b0c006e0037006d0037006c0037006b0037004b
:100b1c006a0037006900370068003700670037004b
:100b2c00660037003500370064003700630037007b
:100b3c006200370061003700600037005f0037004b
:100b4c005e0037005d0037005c0037004c0037005a
:100b5c005a00370059003700580037003c00370066
:100b6c00560037005200370054003700530037004e
:100b7c00520037004500370001042000110798008f
:100b8c0050003700f2032000120798004d00370088
:100b9c0063002000130798004a003700b0052000be
:100bac001007980047003700f10420001107980047
:100bbc0044003700620620001207980041003700fd
:100bcc00d3062000130798003e003700d007200002
:100bdc00100798003b0037007100200011079800a7
:100bec0038003700f2072000120798003500370054
:100bfc00f30620001307980032003700e0052000b0
:100c0c00100798002f003700d1062000110798001c
:100c1c002c003700320720001207980029003700fb
:100c2c006300200013079800260037009003200073
:100c3c0010079800230037001107200011079800b7
:100c4c002000370092072000120798001d00370083
:100c5c0003052000130798001a003700f00320004a
:100c6c001007980017003700610720001107980043
:100c7c00140037007207200012079800110037008b
:100c8c0043052000130798000e0037000000eb000e
:100c9c00100798000b003700810320001107980003
:100cac0008003700020820001207980005003700e2
:100cbc00830720001307980002003700f003200080
:100ccc00100798001e0090000080fa00000006003b
:100cdc000800fa00000f780011079800220798000e
:100cec0033079800d622a8001e00780014ff0700d6
:100cfc005016880000e823000100200056fd070074
:100d0c00d622a900d642a8001e0090000cff0700b6
:100d1c005016880000e82300010020004efd07005b
:100d2c00d642a900d662a8002e00900004ff07004e
:100d3c005016880000e823000100200046fd070043
:100d4c00d662a900d1a2a8003e009000fcfe0700cc
:100d5c005016880000e82300010020003efd07002b
:100d6c00d1a2a9000080fa00000006003600f800ad
:100d7c00809fbe00829fbe00849fbe00869fbe00e7
:100d8c00889fbe000000fa00dac2bf00614060001c
:100d9c000004e0002000320051408000400620009a
:100dac00808f500004003a001000200010088800ca
:100dbc00dc02a80034003700dc02a900514080009e
:100dcc0040062000010050006104b90096408000ec
:100ddc00a74080008800780006007800000ab80060
:100dec0007c0b900050178000001410009b0b90045
:100dfc0000014100820278000400be0055fd07008e
:100e0c00a2702d0033c223007dfd0700b0fd07004a
:100e1c00100888001c003700504080000000e000e3
:100e2c0004003a00dc02a900100020001008880021
:100e3c0015003700dc02a800504080006104b900a6
:100e4c0096408000a740800088007800060078005b
:100e5c00000ab80007c0b900050178000001410084
:100e6c0009b0b90000014100820278000400be0004
:100e7c0038fd0700a2702d0033c2230060fd07006f
:100e8c0093fd0700100888008460a9000080fa0018
:100e9c004f04be004f03be004f02be004f01be0008
:100eac004f00be003600f900004006003600f80086
:100ebc00809fbe00829fbe00849fbe00869fbe00a6
:100ecc000000fa0000502300c1002000e2fc0700e3
:100edc0010408000004088000080eb0060408800db
:100eec008400a9000080fa004f03be004f02be0030
:100efc004f01be004f00be003600f9000040060056
:100f0c003600f800809fbe00829fbe00849fbe000a
:100f1c00869fbe000200fa0000502300c100200092
:100f2c00cdfc07008600a900614080007040800065
:100f3c00808f500004003d00604080000000e800fd
:100f4c00000f7800020037000000eb00000f780063
:100f5c001e007800604088000080fa004f03be003d
:100f6c004f02be004f01be004f00be003600f9001c
:100f7c00004006000c00fa000080eb0040158800d1
:100f8c000000eb003016880010002000901688003e
:100f9c00d802a900de02a8000000eb006016880051
:100fac000000eb00200488000000eb0030048800f7
:100fbc00700480000000a0007004880060048000b1
:100fcc009000b300600488008200a9008220a90070
:100fdc000003280020088800a08621001008880043
:100fec00a08621000100200090408800a1408800cc
:100ffc000000eb00000f78000000eb0010079800d9
:10100c0000003700b7000700004080005007980030
:10101c005e009000e20f5000220032005e00900053
:10102c00e20f500007003e005e0090000000e00060
:10103c000b0032005e009000e10f50000b003200fc
:10104c00f0ff37005e009000e30f500023003200e9
:10105c005e009000e40f50002e003200e9ff3700d4
:10106c001000200010408800e6ff37006040800030
:10107c00e10f4000030032002000200040079800e0
:10108c000200370010002000400798004e0090002e
:10109c00104088008000eb000000eb0034000700db
:1010ac00d8ff370060408000e10f400003003200a1
:1010bc00300020003007980002003700200020008c
:1010cc00300798003e009000104088008e00780099
:1010dc001000200026000700caff37006040800087
:1010ec00e10f400003003200400020002007980070
:1010fc000200370030002000200798002e009000de
:10110c00104088008e80e8002000200018000700a6
:10111c00bcff3700100020001040880021408000e8
:10112c00400620000088b9000001780030408000a3
:10113c006a00b900800041004040800000804000ff
:10114c00504088000000eb00100798001e00900033
:10115c00000f780040408000324080002140800029
:10116c008001780080072000d9fe0700a5ff37001a
:10117c000c00fa0010079800210798001e00900040
:10118c00500798005e009000e10f500015003200ef
:10119c005e009000e20f50002f0032005e009000c5
:1011ac000000e00001003200470037000080eb0037
:1011bc003040880030408000204088001000200023
:1011cc007040880060408000000f78000080eb00c9
:1011dc009e0f10003c0032001e007800404088003a
:1011ec00390037000080eb00204088002e00900072
:1011fc00100078000000e0000f003a004040800032
:10120c0030408800ae00900010002000800878006c
:10121c00304080000000e00003003a009000200005
:10122c0040079800020037000000eb0040079800d0
:10123c004e0090007040880060408000000f7800e5
:10124c000080eb009e0f10001f0032001e00780083
:10125c00404088001c0037002e00900010007800e1
:10126c000000e00011003a0030408000204088006f
:10127c004040800030408800ae00900010002000fc
:10128c0080087800204080000000e00003003a0055
:10129c009000200030079800020037000000eb009f
:1012ac00300798003e00900070408800604080003d
:1012bc00000f78000080eb009e0f1000020032003f
:1012cc001e007800404088003240800021408000a1
:1012dc009e017800800720007dfe07000080fa0048
:1012ec00000006002a00fa000000eb00100f980026
:1012fc000000eb00000f980050408000cf80de0013
:10130c0014fc0700d2cc2c00c3d423003cfc0700f7
:10131c00008fbe001e00be0088fc0700400798002e
:10132c00510798004e019000de0190001e00be0097
:10133c008afc070020079800310798000200200063
:10134c00031224002e009000be0090002cfc07001d
:10135c0020079800310798004e009000de009000a6
:10136c00dcfc0700100f98002e009000be009000cf
:10137c00d8fc0700000f9800f4004700400720003d
:10138c0080087800f400470050042000900098007a
:10139c00f4004700e0062000a0009800f40047008d
:1013ac0030052000b0009800f40047001004200025
:1013bc00c0009800f4004700f0042000d000980012
:1013cc00f400470080072000e000980074004700fc
:1013dc009e08900071009800f40047001005200052
:1013ec0080089800740047008e089000110898003f
:1013fc00f400470080072000a00898002d0037005b
:10140c000000eb00700798000e00370074004700d6
:10141c0030019000740047002002900074004700d7
:10142c009000900074004700100078008201780052
:10143c000401780026fe07007e0090000000e80002
:10144c0070079800fe00900070072000808f5000fd
:10145c00eeff34007400470090007800610798009c
:10146c000000eb00700798000c003700fe019000a4
:10147c007e0090000000e800f400470000004000ef
:10148c0060817800f40047000380410002b07800ce
:10149c007e0090000000e800700798007e0090002d
:1014ac00e90f5000f1ff340074004700ee0090008b
:1014bc0021089800e0c2bf00614060000004e00019
:0c14cc00cfff32000080fa000000060094
:020000040000fa
:1014d80000080000100000000200000000000000ea
:1014e80000ffff00ffffff00ff000000ffff0900f3
:1014f80000000000100800000600000000000000c6
:0415080000000000df
:00000001FF
