:020000040000fa
:080000000001040000000000f3
:020000040000fa
:100200004f8320000eff20000e0188000000000038
:100210000c000700403f21000100200011000700f2
:10022000000020000000e000020032000000020098
:1002300000000000fc110200000000000040da0095
:100240000000fe004440a900e01320000000e00090
:100250000300320000002000a00188004440a800f4
:100260000000060091018800800078000000eb008b
:1002700015003700e280400032a0b4009101ba00be
:10028000e280400032a0b4009102ba00e280400057
:1002900032a0b4000002eb00472bde00f507b200ed
:1002a000602ce10004003a000059eb008301e900f2
:1002b000fdff3e00040037006128e100010032002c
:1002c0000082eb00040007001101ba000200e00008
:1002d000e8ff3a00000006003159ba008301e90046
:1002e0000c0032002159ba008301e90008003200f5
:1002f0000400e00003003a00e280400032a0b400b5
:10030000f5ff370011d9ba008301e900faff3a007e
:100310008100e800e180400032a0b4000000060047
:100320000040da000000fe00140020002801370021
:10033000809fbe00821f78000001eb003f01070094
:10034000cf027800808abe000001be004f00be00d0
:100350007f003a000470a6006000b80003f0a70018
:1003600001f0a000000006000001be005a010700d5
:100370000470a70003f0a10003f8a30013003a00e3
:100380006509b10010003200090035006928e1005c
:1003900002003500010028000000050000004000b8
:1003a000818048008502e900fcff3a000000060059
:1003b000f88f4200050035008100d1000080d30095
:1003c0008502e800fcff3a00000006008000eb0018
:1003d00000000500889fbe008a9fbe008c1f780029
:1003e000520107005901330003866c006450e1009c
:1003f000240032006420e100270032006150e10057
:10040000220032006120e100210032008b85420091
:10041000eb07b1000134b800003ab800080442000c
:1004200089844a00013ab8000030b8008880400052
:1004300009014a00040033000000400081804800a8
:10044000020149008b05e900c909dd008301700044
:100450000100320013002000c814de004814dd0043
:100460004709de001200b200c808de0008847000f0
:100470004601070001f0a1000cf0a70001f0a00068
:100480003b0137006120e1003d0132000801be0060
:100490000200be00f7ff37006150e100fcff3a00a8
:1004a00037013700889fbe008a9fbe000105780093
:1004b0000100e0000400350008003c000000e000fe
:1004c000200032000500370060001000e0801800b6
:1004d00002003b0001f02c001a0037000004be00af
:1004e0006011b8006b0920000982cf0002003900ba
:1004f0000882cf000441b000694252000e00320071
:1005000008003b0082817100610164008904d10010
:100510000884d3008b05e8000442e800f9ff3a00a4
:10052000050037000804440089844c008b05e9006d
:100530000442e900fbff3a00140107000af0a7009b
:1005400001f0a0004f05be004f04be0000000600f1
:1005500003f0a200889fbe008a9fbe008c1f780017
:10056000f2000700f90033006450e1004f00320050
:100570006420e1005200320003826c0007003b005f
:100580000905d0000306d000820f54000c065d0060
:100590000200390002003200890178000306780069
:1005a0008582550004003d000003fd008103fd002d
:1005b0008502ea008b854200840f720002003b0036
:1005c00060001000e08018006011b8000005eb002a
:1005d0007a28e1000a00390006007800c75ddd00d6
:1005e000f707b200878075002d0037008281710007
:1005f0000a017800610560008180d1000080d3008d
:100600008502e900f9ff3b000604400087844800aa
:1006100002003b0060041400e0841c000988a30071
:10062000070032008a8171008281710061016400db
:100630008904d1000884d3008b05e8001700370037
:100640000978a30013003a000b00e0001300340007
:100650008b05e9000804440089844c000a447400b6
:100660000978a3000d003a000b00e00007003400f9
:100670008b05e9000804440089844c0001003a001d
:100680000b0020000978a300f7ff32000001eb0007
:1006900002003700828171000a017800bb00070068
:1006a0000cf0a70001f0a000b10037006420e100c9
:1006b00002003a00838f6c00b10033000801be00d5
:1006c0000200be00aa003700889fbe008a9fbe00bd
:1006d0008c1f7800950007009c00330003866c0097
:1006e0006450e1002e0032006420e100330032004b
:1006f0006150e1002f0032006120e1003100320042
:1007000085855500eb07b000090020000804200093
:10071000050037000804440089844c000a003100b9
:100720000603430087834b000001530081815b0077
:10073000f8ff33000203be000800a00008044400d4
:1007400089844c00f6ff3900c639dd00830173004f
:1007500001003200130020008904d1000884d30076
:100760000998a300050032000800a7000300a000bc
:100770008904d1000884d3008b05e8008904d100e6
:100780000884d3000001eb000281d2007f00070043
:1007900001f0a1000cf0a70001f0a00074003700e8
:1007a0006420e100760032000801be000200be00b5
:1007b000f7ff37006120e100710032006000b800ef
:1007c000f3ff37000000200001f82700f0ff37009a
:1007d000889fbe008a9fbe00841f780053000700d8
:1007e0004f00780011003300f0ff2f00838f6c0062
:1007f00006003b00040565000a00a700080037005a
:1008000009f0a6001000200008003700820f5400f5
:10081000838f5c00030039001000200001003e00bf
:100820000000200009f0a7000000ea004f05be000c
:100830004f04be000000e00000000600889fbe00dc
:100840008a9fbe000003be002300070085057800d4
:1008500082815200020020006220e10004003a0080
:10086000f307b100040035007718e10004003500fb
:100870000600be00140037006000b8000f0037000b
:10088000f50f2000faff2f008502d1000a85d30062
:100890008301e900fcff3b008184620000046500e5
:1008a000890f7400f2ff32008582ea000a85ea00af
:1008b00081846200000465003400070007f0a7008f
:1008c00001f0a0000081eb000200e0004f05be0037
:1008d0004f04be0000000600c70ade00f107b200a8
:1008e000f50fb20008003200e1cf420002003200f2
:1008f0000170a00024000500810f7000010032008b
:100900000408050044000500810f700002003a0051
:10091000140005008502e9000000400081c0480085
:10092000fcff3b000170a000240005000004be0095
:10093000e9ff07000003be000405be000200be0080
:10094000e5ff0700844f7500000006000200be00ae
:100950006450e100050036006420e100020036002a
:100960000968a30001003a000800be000160a00071
:100970004f0678004f05be004f04be000000060081
:10098000f0ff2f00f1ff2700f9ff37008100200062
:10099000618055000b003d000b00200061fe2f0020
:1009a0000100e1001d0034008281710061016400da
:1009b0008904d1000884d3000000e800faff3a005f
:1009c00071002000610064000300700002006000fc
:1009d0000900320061044400e0844c000988a5004d
:1009e000050032008b05e8006808e10002003a00cb
:1009f0008904d1000884d300f20f20000258e100de
:100a000005003d00c75ddd00f907b2008980750073
:100a100008007800000006000bf827008b00780023
:100a2000000005008001eb000200370081717800b2
:100a30008301e800828f5100fcff3a0000000600ad
:020000040000fa
:0200000401f009
:04000000f6bf000047
:020000040000fa
:0200000401f009
:04000400ff7f00007a
:020000040000fa
:0200000401f009
:04000800fcff0000f9
:020000040000fa
:0200000401f009
:04001400ffff0000ea
:020000040000fa
:1000080090010000900100009001000090010000a4
:100018009001000090010000900100009001000094
:100028009001000090010000900100009001000084
:100038009001000090010000900100009001000074
:100048009001000090010000900100009001000064
:100058009001000090010000900100009001000054
:100068009001000090010000900100009001000044
:100078009001000090010000900100009001000034
:100088004a1100009001000090010000900100005a
:100098009001000090010000900100009001000014
:1000a8009001000090010000900100009001000004
:1000b80090010000900100009001000090010000f4
:1000c80090010000900100009001000090010000e4
:1000d80090010000900100009001000090010000d4
:1000e80090010000900100009001000090010000c4
:0800f8009001000090010000de
:020000040000fa
:1001080090010000900100009001000090010000a3
:100118009001000090010000900100009001000093
:100128009001000090010000900100009001000083
:100138009001000090010000900100009001000073
:100148009001000090010000900100009001000063
:100158009001000090010000900100009001000053
:100168009001000090010000900100009001000043
:100178009001000090010000900100009001000033
:100188004a11000090010000900100009001000059
:100198009001000090010000900100009001000013
:1001a8009001000090010000900100009001000003
:1001b80090010000900100009001000090010000f3
:1001c80090010000900100009001000090010000e3
:1001d80090010000900100009001000090010000d3
:1001e80090010000900100009001000090010000c3
:0801f8009001000090010000dd
:020000040000fa
:100a40000001000002040000082800000c01000062
:100a50000600000000000000000000000000000090
:100a60000000000000000000000000000000000086
:100a70000000000000000000000000000000000076
:100a80000020000020200000202000002020000086
:100a90002020000020200000202000002020000056
:100aa000200a00002020000020200000202000005c
:100ab0002020000020200000202000002020000036
:100ac0002020000000410000206300006f6e000045
:100ad0007665000072730000616f000020690000fd
:100ae0006e690000636900006f7500002c20000033
:100af000636f00006e6600006972000061200000f4
:100b00006e6f0000204c0000434400002c200000c9
:100b10006d6500007520000063610000726f0000c9
:100b20002e2e00002e0a00000d0000000d0c00000b
:100b300041200000636f00006e76000065720000c7
:100b4000736100006f20000070610000726f000090
:100b5000752c0000207000007265000073730000a7
:100b6000696f00006e6100007220000041200000eb
:100b70007061000072610000206300006f6d000072
:100b800065630000617200002064000065200000c1
:100b90006e6f0000766f00000a0d00000056000026
:100ba000616c00006f7200002025000064200000ce
:100bb000256600002009000025660000200d0000c9
:100bc0000a000000566100006c6f000072200000f7
:100bd000616d00006f7300007472000061640000ba
:100be0006f3a000000250000642000002020000073
:100bf00020200000202000002020000020200000f5
:100c0000200000000d0c000041200000636f000078
:100c10006e76000065720000736100006f200000b6
:100c200070610000726f0000752c000020700000e1
:100c30007265000073730000696f00006e61000050
:100c4000722000004120000070610000726100000d
:100c5000206300006f6d000065630000617200009a
:100c600020640000652000006e6f0000766f0000b9
:100c7000000a0000566100006c6f00007220000046
:100c80006d650000646900006f20000025660000ab
:100c90000d0a00000a0000000c560000616c000004
:100ca0006f720000206d000065640000696f000035
:0c0cb0003a0a0000002500006600000069
:020000040000fa
:100cbc000200fa00000f780002003700000000006c
:100ccc001e0fe9001e00e000fcff3a000080fa0055
:100cdc00000006000200fa00000f78000300370045
:100cec0080002000f2ff07001e0fe9001e00e0004c
:100cfc00fbff3a000080fa00000006000200fa0038
:100d0c00000f780003003700803e2000f1ff070041
:100d1c001e0fe9001e00e000fbff3a000080fa0005
:100d2c00000006000000fa000000eb0030168800fe
:100d3c000000eb00901688000080fa00000006000e
:100d4c000800fa00604798000052280004000900cf
:100d5c00305f78005e00b1006e4090000080fb00b8
:100d6c000e004000104078000080fb00b016880098
:100d7c000080fa00000006000600fa00004f780020
:100d8c001e00fb006101b90020fd2f00f1ff2f00b8
:100d9c000201400083814800120798002307980045
:100dac00b0002000010020001e019000ae01900058
:100dbc00800f5100818f590031003e001e009000c1
:100dcc00ae00900000600100290037002c003700b5
:100ddc00090037000b0037000d0037000f003700fb
:100dec0011003700130037001500370017003700cb
:100dfc00190037001b003700f00320005016880044
:100e0c002100370060002000501688001e003700bb
:100e1c00b0052000501688001b003700f00420009d
:100e2c005016880018003700600620005016880005
:100e3c0015003700d006200050168800120037002d
:100e4c00d0072000501688000f00370070002000db
:100e5c00501688000c003700f00720005016880050
:100e6c000900370070062000501688000600370075
:100e7c00501680000008b0005016880002003700a1
:100e8c000000eb00501688000080fa0000000600fd
:100e9c000000fa0080ff2f00f01688000080fa0096
:100eac00000006000200fa00600f200010178800f6
:100ebc000040800010007800680060000000e00036
:100ecc0003003a0010032000000f78006400370084
:100edc000040800010007800700060000000e0000e
:100eec0003003a0040032000000f78005c0037003c
:100efc00004080009000780000022000008060001c
:100f0c000000e00003003a0070032000000f78009e
:100f1c00530037000040800090007800000420004f
:100f2c00008060000000e00003003a00a0022000f6
:100f3c00000f78004a003700500f2000101788006f
:100f4c000040800010007800680060000000e000a5
:100f5c0003003a0020032000000f78004000370007
:100f6c000040800010007800700060000000e0007d
:100f7c0003003a0050032000000f780038003700bf
:100f8c00004080009000780000022000008060008b
:100f9c000000e00003003a0080032000000f7800fe
:100fac002f003700004080009000780000042000e3
:100fbc00008060000000e00003003a000003200005
:100fcc00000f780026003700300f20001017880023
:100fdc000040800010007800680060000000e00015
:100fec0003003a0030032000000f78001c0037008b
:100ffc000040800010007800700060000000e000ed
:10100c0003003a0060032000000f78001400370042
:10101c0000408000900078000002200000806000fa
:10102c000000e00003003a0090032000000f78005d
:10103c000b00370000408000900078000004200076
:10104c00008060000000e00003003a003002200045
:10105c00000f7800020037000000eb00000f780052
:10106c001e0078000080fa00000006000200fa0062
:10107c00004f7800114080001e4178006f406100e5
:10108c000080fb006f01600000ff2f0091086000e2
:10109c00910871001000200005ff0700dca2a800d9
:1010ac00200020000bff0700dca2a9000080fa0042
:1010bc00000006000200fa00004f7800114798006b
:1010cc00200020000dff07009e40780061c06000ea
:1010dc00614060004401dd00c12d2000914078008a
:1010ec00f0ceb30000c0600002407000dce2b7003c
:1010fc0010002000eefe0700dca2a9001e409000ac
:10110c000080fb004400de00d8ff07001e4090006a
:10111c006f406000d5ff07000080fa000000060059
:10112c000200fa00d882a900d8a2a900dc82a9008a
:10113c0010002000defe0700dca2a900f000200059
:10114c00eefe07000040eb00004f78000500370072
:10115c0030c0b300c5ff0700f0002000e7fe070019
:10116c001e4fe80020c0b3009e4f1000f8ff360061
:10117c0020c0b300bdff07000040eb00004f78001b
:10118c00060037001e80fb0051522800e0c078009a
:10119c000040eb00c7ff07001e4fe80030c0b30053
:1011ac009e4f1000f7ff36000080fa00000006008a
:1011bc000400fa0020479800314798003e40900008
:1011cc00e14f50000300320000c4b300004f780020
:1011dc00020037000040eb00004f78002e409000da
:1011ec001e4040000040e900004f780000c8b300ea
:1011fc009e4070000040eb00aeff07000080fa003c
:10120c00000006000800fa0020479800210798000b
:10121c002e4090000080fb00300798003e009000ac
:10122c00e30f5000260032003e009000e30f500008
:10123c000a003c003e009000e10f50001800320004
:10124c003e009000e10f500019003c003e00900061
:10125c000000e0000e0032002c0037003e00900031
:10126c00e50f50001e0032003e009000e50f5000cc
:10127c00170035003e009000e60f50001c003200b5
:10128c003e009000e70f50001d0032001f00370099
:10129c0001c4b3000040eb0086ff07001b003700c1
:1012ac0081c4b3000040eb0082ff07001700370039
:1012bc0001c5b3000040eb007eff070013003700b0
:1012cc0081c5b3000040eb007aff07000f00370028
:1012dc0001c6b3000040eb0076ff07000b0037009f
:1012ec0081c6b3000040eb0072ff07000700370017
:1012fc0001c7b3000040eb006eff0700030037008e
:10130c0081c7b3000040eb006aff07000040eb0010
:10131c00004f78000a0037001e80fb0000004000e0
:10132c00800078002e0090000080400010007800b3
:10133c008040780010c0b3005eff07001e4fe8002d
:10134c0070c0b3009e4f1000f3ff360001c8b3000d
:10135c000040eb0057ff07000080fa000000060079
:10136c001200fa0000579800a0522800070009004c
:10137c00301f78000e01b1008e0078000e509000e6
:10138c00a0ff07000080fa00000006000200fa002f
:10139c00004f78009e40780010c0b30045ff070056
:1013ac000080fa00000006000400fa00004f7800ec
:1013bc001e00fb00100798009e009000e88f500064
:1013cc00190032001e009000e80f500005003c0090
:1013dc0000fb2f009e009000808f50001600320002
:1013ec00190037001e009000ea0f50000a0032006e
:1013fc009e009000ec8f500001003200120037006c
:10140c0011c0b3000040eb002aff070020002000b1
:10141c003afe07000f00370021c0b30010c0b30024
:10142c0063ff07000b00370001c1b3000040eb0065
:10143c0020ff070007003700f1cdb30010c0b30048
:10144c001cff0700030037009e40780010c0b3005b
:10145c0018ff07000080fa00000006000200fa00e6
:10146c00000f7800040037001e0078001040780050
:10147c00cdff07001e0fe8001e007800104078001a
:10148c000004e000f8ff3a000080fa0000000600bb
:10149c000200fa00004f78009e4078000040eb00fc
:1014ac0004ff07000080fa00000006004000fa006c
:1014bc0068005700300f9800910137004eb8970024
:1014cc00104078008000fb0050022000808f5000fc
:1014dc0001003200840137004eb897000000e8008c
:1014ec0040bf9f004eb897009040780050c7b300a3
:1014fc0080cf50005d003a00f8004700a053280050
:10150c00904878000100e8008040eb00014878002a
:10151c000000e8008040eb00014878000000e80083
:10152c008040eb00014878000000e8008040eb00b0
:10153c00014878000000e8008040eb00014878008a
:10154c000000e8008040eb00014878000040eb0010
:10155c00405798003e0890000080e900300f98003a
:10156c003e08900090007800110f98009e089000a3
:10157c00f0702200808f50000300360040c0b30092
:10158c00405798002b0037009e089000703e2000ba
:10159c00808f50000300360030c0b30040579800d5
:1015ac00240037009e08900030062000808f5000e9
:1015bc000300360020c0b300405798001d003700d0
:1015cc001e089000e90f50000300360010c0b30055
:1015dc0040579800170037000040eb004057980028
:1015ec00140037004e5090008001fb001e08900044
:1015fc00a2002000110009000280d8008000fd002c
:10160c000043b00080407800780047000080410023
:10161c00014878001e089000a2002000110009006b
:10162c000280d800100f98004e5090000040e90046
:10163c00405798001e089000e90f5000e9ff3e004b
:10164c004e5090000001fb001e0890000043b000bb
:10165c008040780078004700000041000148780085
:10166c00780047007dff0700220137004eb8970035
:10167c009040780040c6b30080cf50006d003a0017
:10168c00ff004700a0532800904878000100e800b4
:10169c008040eb00014878000000e8008040eb003f
:1016ac00014878000000e8008040eb000148780019
:1016bc000000e8008040eb00014878000000e800e2
:1016cc008040eb00014878000000e8008040eb000f
:1016dc00014878000000e8008040eb0001487800e9
:1016ec000000e8008040eb00014878000040eb006f
:1016fc00005798003e0890000080e900300f9800d9
:10170c003e08900010017800720798007e0090004f
:10171c000000e00008003d007e0090000000ea00a0
:10172c0070079800ff004700d0c2b30080487800d3
:10173c0010c0b30000579800fe009000f07022001b
:10174c00808f5000040034000e5090006440400024
:10175c00005798002a003700fe009000703e2000d1
:10176c00808f5000040034000e5090006340400005
:10177c000057980022003700fe0090003006200031
:10178c00808f5000040034000e50900000c0e80020
:10179c00005798001a0037007e009000e90f5000a7
:1017ac00170034000e5090000040e80000579800dd
:1017bc00130037000e5090008001fb007e0090005b
:1017cc00a2002000110009000200d8008000fd00da
:1017dc0002c3b300824040007f0047008171780053
:1017ec007e009000a2002000110009000200d80029
:1017fc00700798000e5090000040e90000579800c8
:10180c007e009000e90f5000eaff3c000e50900063
:10181c000001fb007e00900003c3b3008340400036
:10182c007f004700017178007f0047000bff070025
:10183c00b00037004eb897009040780060c6b300f7
:10184c0080cf5000a4003a00810220008e8040001e
:10185c00a0532800904878000100e80032012000d5
:10186c008000eb006cfc07000040eb00504f980030
:10187c0040c0b300404f98003e08900064005000f8
:10188c00300f98003e0890001001be0042079800ef
:10189c00530798006011b8004e009000de009000d5
:1018ac009efa07000000e000010035000c00370034
:1018bc004e009000de00900001f0a200400798005e
:1018cc0051079800810220008e804000d0c2b300e6
:1018dc00804878005e4890000040e800504f980027
:1018ec00c20320000e0141004e009000de0090006b
:1018fc008cfa070020079800310798006e189000aa
:10190c00fe18900095fa0700100798009e009000b2
:10191c00f0702200808f5000040036005e4890006a
:10192c0064404000504f9800160037009e00900015
:10193c00703e2000808f5000040036005e489000fe
:10194c0063404000504f98000e0037009e009000fe
:10195c0030062000808f5000040036005e48900056
:10196c0000c0e800504f9800060037001e009000a1
:10197c00e90f5000030036005e4890000040e8007c
:10198c00504f980002002000a34724002e00900026
:10199c00be0090008cfa07002007980031079800d1
:1019ac002e009000be0090006cfa0700000f78002b
:1019bc005e4890000000fb008000e80080022000e0
:1019cc000e00400080804000e0c2b30080487800e8
:1019dc00180037005e4890008000fb004e489000d5
:1019ec000000fb00808140001e007800a200200057
:1019fc00110009000280d8008000fd000043b000f7
:101a0c0080407800800220000e00400000804100e1
:101a1c00014878001e007800a20020001100090087
:101a2c000280d800000f78004e4890000040e9007a
:101a3c00404f98004e489000e14f5000e5ff3c00ad
:101a4c00150037005e4890008001fb001e009000de
:101a5c00a2002000110009000280d8008000fd00c7
:101a6c000043b00080407800800220000e0040004f
:101a7c0000804100014878001e009000a200200068
:101a8c00110009000280d800100798005e489000f1
:101a9c000040e900504f98001e009000e90f5000e4
:101aac00e8ff3e005e4890000001fb001e00900025
:101abc000043b00080407800800220000e004000ff
:101acc000000410001487800800220000e00400018
:101adc0062fe0700070037004eb8970010407800f0
:101aec0031fe0700030037004eb897001040780015
:101afc002dfe07004eb897000000e80040bf9f0085
:101b0c004eb89700104078000004e0006bfe3a00dd
:101b1c000080fa00000006000000fa0011c0b300bb
:101b2c0010c0b300a2fd070010542800801f7800dd
:101b3c005efe07008f87e90011c0b30010c0b30030
:101b4c009bfd07000080fa00000006000200fa006e
:101b5c00000f78001e007800f01088000000eb00e9
:101b6c00b01088000000eb00c0108800400420007a
:101b7c00000588008720a9008f20a9008700a900f4
:101b8c008f00a80017a2a80017e2a8001942a8000d
:101b9c000080fa00000006000200fa00004f7800f6
:101bac0019c2bf00624060000004e000fcff3a0074
:101bbc001e80fb00d01088000080fa000000060098
:101bcc000200fa00000f7800040037001e007800b5
:101bdc0010407800f0ff07001e0fe8001e00780090
:101bec00104078000004e000f8ff3a000080fa0092
:101bfc00000006000200fa0018c2bf00614060003d
:101c0c000004e000fcff3200e0108000004f780080
:101c1c001e80fb000080fa00000006004000fa0065
:101c2c0068005700300f9800910137004eb89700ac
:101c3c00104078008000fb0050022000808f500084
:101c4c0001003200840137004eb897000000e80014
:101c5c0040bf9f004eb897009040780050c7b3002b
:101c6c0080cf50005d003a00f8004700a0532800d8
:101c7c00904878000100e8008040eb0001487800b3
:101c8c000000e8008040eb00014878000000e8000c
:101c9c008040eb00014878000000e8008040eb0039
:101cac00014878000000e8008040eb000148780013
:101cbc000000e8008040eb00014878000040eb0099
:101ccc00405798003e0890000080e900300f9800c3
:101cdc003e08900090007800110f98009e0890002c
:101cec00f0702200808f50000300360040c0b3001b
:101cfc00405798002b0037009e089000703e200043
:101d0c00808f50000300360030c0b300405798005d
:101d1c00240037009e08900030062000808f500071
:101d2c000300360020c0b300405798001d00370058
:101d3c001e089000e90f50000300360010c0b300dd
:101d4c0040579800170037000040eb0040579800b0
:101d5c00140037004e5090008001fb001e089000cc
:101d6c00a2002000110009000280d8008000fd00b4
:101d7c000043b000804078007800470000804100ac
:101d8c00014878001e089000a200200011000900f4
:101d9c000280d800100f98004e5090000040e900cf
:101dac00405798001e089000e90f5000e9ff3e00d4
:101dbc004e5090000001fb001e0890000043b00044
:101dcc00804078007800470000004100014878000e
:101ddc00780047007aff0700220137004eb89700c1
:101dec009040780040c6b30080cf50006d003a00a0
:101dfc00ff004700a0532800904878000100e8003d
:101e0c008040eb00014878000000e8008040eb00c7
:101e1c00014878000000e8008040eb0001487800a1
:101e2c000000e8008040eb00014878000000e8006a
:101e3c008040eb00014878000000e8008040eb0097
:101e4c00014878000000e8008040eb000148780071
:101e5c000000e8008040eb00014878000040eb00f7
:101e6c00005798003e0890000080e900300f980061
:101e7c003e08900010017800720798007e009000d8
:101e8c000000e00008003d007e0090000000ea0029
:101e9c0070079800ff004700d0c2b300804878005c
:101eac0010c0b30000579800fe009000f0702200a4
:101ebc00808f5000040034000e50900064404000ad
:101ecc00005798002a003700fe009000703e20005a
:101edc00808f5000040034000e509000634040008e
:101eec000057980022003700fe00900030062000ba
:101efc00808f5000040034000e50900000c0e800a9
:101f0c00005798001a0037007e009000e90f50002f
:101f1c00170034000e5090000040e8000057980065
:101f2c00130037000e5090008001fb007e009000e3
:101f3c00a2002000110009000200d8008000fd0062
:101f4c0002c3b300824040007f00470081717800db
:101f5c007e009000a2002000110009000200d800b1
:101f6c00700798000e5090000040e9000057980050
:101f7c007e009000e90f5000eaff3c000e509000ec
:101f8c000001fb007e00900003c3b30083404000bf
:101f9c007f004700017178007f00470008ff0700b1
:101fac00b00037004eb897009040780060c6b30080
:101fbc0080cf5000a4003a00810220008e804000a7
:101fcc00a0532800904878000100e800320120005e
:101fdc008000eb0090fa07000040eb00504f980097
:101fec0040c0b300404f98003e0890006400500081
:101ffc00300f98003e0890001001be004207980078
:10200c00530798006011b8004e009000de0090005d
:10201c00c2f807000000e000010035000c0037009a
:10202c004e009000de00900001f0a20040079800e6
:10203c0051079800810220008e804000d0c2b3006e
:10204c00804878005e4890000040e800504f9800af
:10205c00c20320000e0141004e009000de009000f3
:10206c00b0f8070020079800310798006e18900010
:10207c00fe189000b9f80700100798009e00900019
:10208c00f0702200808f5000040036005e489000f3
:10209c0064404000504f9800160037009e0090009e
:1020ac00703e2000808f5000040036005e48900087
:1020bc0063404000504f98000e0037009e00900087
:1020cc0030062000808f5000040036005e489000df
:1020dc0000c0e800504f9800060037001e0090002a
:1020ec00e90f5000030036005e4890000040e80005
:1020fc00504f980002002000a34724002e009000af
:10210c00be009000b0f80700200798003107980037
:10211c002e009000be00900090f80700000f780091
:10212c005e4890000000fb008000e8008002200068
:10213c000e00400080804000e0c2b3008048780070
:10214c00180037005e4890008000fb004e4890005d
:10215c000000fb00808140001e007800a2002000df
:10216c00110009000280d8008000fd000043b0007f
:10217c0080407800800220000e004000008041006a
:10218c00014878001e007800a20020001100090010
:10219c000280d800000f78004e4890000040e90003
:1021ac00404f98004e489000e14f5000e5ff3c0036
:1021bc00150037005e4890008001fb001e00900067
:1021cc00a2002000110009000280d8008000fd0050
:1021dc000043b00080407800800220000e004000d8
:1021ec0000804100014878001e009000a2002000f1
:1021fc00110009000280d800100798005e4890007a
:10220c000040e900504f98001e009000e90f50006c
:10221c00e8ff3e005e4890000001fb001e009000ad
:10222c000043b00080407800800220000e00400087
:10223c000000410001487800800220000e004000a0
:10224c005ffe0700070037004eb89700104078007b
:10225c0051fe0700030037004eb89700104078007d
:10226c004dfe07004eb897000000e80040bf9f00ed
:10227c004eb89700104078000004e0006bfe3a0066
:10228c000080fa0000000600809fbe00821f7800cc
:10229c000200fa008700a900e010800030e8b700c7
:1022ac0001832000914078000040eb00104798001b
:1022bc0000c6b30080cf50000200360011c0b3003e
:1022cc001147980001832000914078000041eb00f9
:1022dc00024f7800b0c7b30080cf500002003e0020
:1022ec0010c0b300004f78009e4090001e41780053
:1022fc0002c060000004e0000500320030c8bf00de
:10230c008040780000ceb30000c0400030e8b70039
:10231c0010002000204088000183200091407800ac
:10232c0010c3b30080cf500002003a000000eb0055
:10233c0030418800018320009140780020c3b30015
:10234c0080cf500002003a0010002000304188007d
:10235c00018320009140780030c3b30080cf50003f
:10236c0002003a0020002000304188000080fa0072
:10237c004f0178004f00be00004006000200fa003a
:10238c00000f78000b003700000000000000000078
:10239c000000000000000000000000000000000031
:1023ac000000000000000000000000000000000021
:1023bc001e0fe9001e00e000f3ff3c000080fa0055
:1023cc00000006000200fa00000f7800030037003e
:1023dc00803e2000e9ff07001e0fe9001e00e00010
:1023ec00fbff3c000080fa00000006000600fa002b
:1023fc00881f7800f0ef2f00401588000000eb00dc
:10240c0030168800c702a8000000eb00f016880008
:10241c000000eb00c01688000000eb0000158800df
:10242c00f0012100201588000000eb003015880019
:10243c00612a20009140780000cfb30000c06000fa
:10244c000034a000a6e2b7000000eb005015880095
:10245c00a1e2a80030032000bcfd070030fb070000
:10246c000000370020408000e10f50001c003a00b3
:10247c00018320009140780010c4b30080cf50003d
:10248c0007003a0030562800cdfd07001000200050
:10249c00704088001000200080408800a1e2a80055
:1024ac00018320009140780000c5b30080cf50001c
:1024bc0009003a000000eb0070408800a1e2a9007e
:1024cc0060592800befd07000000eb00804088002a
:1024dc00803e2000bbff07000000eb00204088007e
:1024ec0070408000e10f5000deff3a000000eb006e
:1024fc004040880010002000804088000000eb0065
:10250c00304088005b0037008560a900a022a8003d
:10251c002003200099ff0700a022a900a0c2bf0041
:10252c00614060000004e000fcff3200404080008d
:10253c00800078000014800000804000404088003b
:10254c0040408000cf80de00d3f70700e202290074
:10255c0003ba23009cf70700604188007141880092
:10256c00081480006140b900cbf7070010079800f1
:10257c00210798000800e00007003d000200200041
:10258c00037824001e009000ae009000eef70700c8
:10259c001007980021079800e202290003ba2300d3
:1025ac001e009000ae00900087f7070040418800a5
:1025bc0051418800404180005141800062418000bf
:1025cc007341800034408000809fbe00829fbe001b
:1025dc00841f7800f05c2800801f78008ffd0700b6
:1025ec00ec87570011c0b30010c0b300f0fa07001d
:1025fc00205e2800801f7800acfb07008f87e90065
:10260c0021c0b30010c0b300e9fa07000014800029
:10261c00801f7800305f2800801f7800a3fb070024
:10262c00e48757008006200054ff07000183200038
:10263c009140780000c5b30080cf50000a003a00ea
:10264c000000eb0070408800a1e2a9002060280087
:10265c005bfd0700803e20005aff07000000eb00e6
:10266c008040880006003700304080000000e80001
:10267c003040880030408000ef0f5000a2ff340043
:10268c00804080000000e00076ff32003041800086
:10269c00000f78001e007800e10f50001b00320084
:1026ac001e007800e20f50002c0032001e00780053
:1026bc000000e000010032002d0037004040800097
:1026cc00cf80de0074f7070050408800614088001e
:1026dc00504080006140800002002000030a24006a
:1026ec0039f7070050408800614088005040800056
:1026fc006140800002002c00f3672400eff7070014
:10270c00504088006140880019003700404080002c
:10271c00cf80de0060f707005040880061408800e1
:10272c00504080006140800002002000031424000f
:10273c0025f7070050408800614088005040800019
:10274c006140800002002c00f3672400dbf70700d7
:10275c0050408800614088000500370040408000f0
:10276c00cf80de004cf707005040880061408800a5
:10277c005040800061408000809fbe009063280024
:10278c00801f780025fd0700e687570011c0b300b5
:10279c0010c0b30086fa0700c0642800801f7800c0
:1027ac0042fb07008f87e90021c0b30010c0b300c3
:1027bc007ffa07005040800061408000809fbe007f
:1027cc00b0652800801f780038fb0700e6875700ab
:0c27dc00803e2000fbfe070022ff3700bb
:020000040000fa
:1027e800000800003000000002000000e002ca00fb
:1027f80002000000000000000000000000000000cf
:1028080000010000010002000004000008001000a0
:102818000020000040000000000000000000000050
:102828000000000000000000000000003008000068
:0c28380004000000000000000000000090
:00000001FF
