:020000040000fa
:080000000001040000000000f3
:020000040000fa
:100200006f8120000eff20000e018800000000001a
:100210000c000700405e2000010020001f000700c6
:10022000000020000000e000020032000000020098
:100230000000000086040200000000000040da0018
:100240000000fe004440a900000020000000e00083
:100250000300320000002000a00188004440a800f4
:1002600000000600f03fb1000180b100060035003b
:10027000ee03090000000000403fb1000180b10022
:10028000fbff3d001000b000203fb0000200350031
:1002900000800900000000000000060091018800b5
:1002a000800078000000eb0015003700e28040007d
:1002b00032a0b4009101ba00e280400032a0b40044
:1002c0009102ba00e280400032a0b4000002eb00cc
:1002d000472bde00f507b200602ce10004003a0075
:1002e0000059eb008301e900fdff3e0004003700e8
:1002f0006128e100010032000082eb0004000700e9
:100300001101ba000200e000e8ff3a000000060018
:100310003159ba008301e9000c0032002159ba00ba
:100320008301e900080032000400e00003003a0005
:10033000e280400032a0b400f5ff370011d9ba00c6
:100340008301e900faff3a008100e800e180400003
:1003500032a0b400000006000040da000000fe00f9
:10036000839f68000100e00002003d006000100073
:10037000e08018000300e00002003d006001110071
:10038000e0811900140007004f00e00002003b006c
:1003900060001000e080180000000600811f780057
:1003a0000100e00002003d0060001000e080180045
:1003b0000300e00002003d0060011100e08119002f
:1003c000150007004f00e00002003b006000100035
:1003d000e0801800000006006022b800060220003d
:1003e0000000d0008180d2000482d2008582d20039
:1003f0000000a0000202520083825a000300310074
:100400000202420083824a000000a1000603e900c4
:10041000f3ff3a0000000600efff07000400be00f3
:0404200000000600d2
:020000040000fa
:0200000401f009
:04000000f6bf000047
:020000040000fa
:0200000401f009
:04000400ff7f00007a
:020000040000fa
:0200000401f009
:040008007cff000079
:020000040000fa
:0200000401f009
:04001400ffff0000ea
:020000040000fa
:10000800ac010000ac010000ac010000ac01000034
:10001800ac010000ac010000ac010000ac01000024
:1000280058040000ac010000ac0100001c040000f2
:10003800ac010000ac010000ac010000500400005d
:10004800ac010000ac010000ac010000ac010000f4
:10005800ac010000ac010000ac010000ac010000e4
:10006800ac010000ac010000ac010000ac010000d4
:10007800ac010000ac010000ac010000ac010000c4
:10008800ac010000ac010000ac010000ac010000b4
:10009800ac010000ac010000ac010000ac010000a4
:1000a800ac010000ac010000ac010000ac01000094
:1000b800ac010000ac010000ac010000ac01000084
:1000c800ac010000ac010000ac010000ac01000074
:1000d800ac010000ac010000ac010000ac01000064
:1000e800ac010000ac010000ac010000ac01000054
:0800f800ac010000ac010000a6
:020000040000fa
:10010800ac010000ac010000ac010000ac01000033
:10011800ac010000ac010000ac010000ac01000023
:1001280058040000ac010000ac0100001c040000f1
:10013800ac010000ac010000ac010000500400005c
:10014800ac010000ac010000ac010000ac010000f3
:10015800ac010000ac010000ac010000ac010000e3
:10016800ac010000ac010000ac010000ac010000d3
:10017800ac010000ac010000ac010000ac010000c3
:10018800ac010000ac010000ac010000ac010000b3
:10019800ac010000ac010000ac010000ac010000a3
:1001a800ac010000ac010000ac010000ac01000093
:1001b800ac010000ac010000ac010000ac01000083
:1001c800ac010000ac010000ac010000ac01000073
:1001d800ac010000ac010000ac010000ac01000063
:1001e800ac010000ac010000ac010000ac01000053
:0801f800ac010000ac010000a5
:020000040000fa
:100424000800fa00000f78001e0078006101b9008e
:1004340010002000010020000201400083814800d8
:10044400220798003307980090072000010020003d
:100454002e019000be019000800f5100818f590041
:10046400c8003e002e009000be0090000060010015
:10047400790037007b0037007d0037007f003700ac
:10048400810037008300370085003700870037007c
:10049400890037008b0037008d003700b900370022
:1004a400b8003700b7003700b6003700b500370092
:1004b400b4003700b3003700b2003700b100370092
:1004c400b0003700af003700ae003700ad00370092
:1004d400ac003700ab003700aa003700a900370092
:1004e400a8003700a7003700a6003700a500370092
:1004f400a4003700a3003700a2003700a100370092
:10050400a00037009f0037009e0037009d00370091
:100514009c0037009b0037009a0037009900370091
:100524009800370097003700960037009500370091
:100534009400370093003700920037009100370091
:10054400900037008f0037008e0037008d00370091
:100554008c0037008b0037008a0037008900370091
:100564008800370087003700860037008500370091
:10057400840037008300370076003700810037009d
:10058400620037007f0037006600370062003700e2
:100594007c0037006c0037005900370079003700c1
:1005a4007800370074003700760037007500370094
:1005b400620037004f0037007200370071003700c7
:1005c400490037006f0037006e0037006d003700b8
:1005d4006c0037006b0037006a0037006900370091
:1005e4006800370067003700660037006500370091
:1005f4006400370063003700620037006100370091
:1006040060003700350037005e0037005d003700ba
:100614005c0037005b0037005a0037005900370090
:100624005800370057003700560037004c00370099
:100634005400370053003700520037003c003700a5
:10064400500037004f0037004e0037004d00370090
:100654004c003700450037000104200011079800c2
:100664004a003700f20320001207980047003700c1
:10067400630020001307980044003700b0052000f1
:100684001007980041003700f1042000110798007a
:100694003e00370062062000120798003b00370036
:1006a400d30620001307980038003700d007200035
:1006b40010079800350037007100200011079800da
:1006c40032003700f2072000120798002f0037008d
:1006d400f3062000130798002c003700e0052000e3
:1006e4001007980029003700d10620001107980050
:1006f4002600370032072000120798002300370035
:1007040063002000130798002000370090032000a6
:10071400100798001d0037001107200011079800ea
:100724001a003700920720001207980017003700bc
:10073400030520001307980014003700f00320007d
:100744001007980011003700610720001107980076
:100754000e00370072072000120798000b003700c4
:100764004305200013079800080037000000eb0041
:100774001007980005003700810320001107980036
:1007840002003700f2032000120798001e009000b8
:100794000080fa00000006000800fa00000f78004c
:1007a400110798002207980033079800d622a80062
:1007b4001e0078001aff07005016880000e8230086
:1007c40001002000a6fe0700d622a900d642a800f8
:1007d4001e00900012ff07005016880000e8230056
:1007e400010020009efe0700d642a900d662a800a0
:1007f4002e0090000aff07005016880000e823002e
:100804000100200096fe0700d662a900d602a800c7
:100814003e00900002ff07005016880000e8230005
:10082400010020008efe0700d602a9000080fa0015
:1008340000000600809fbe00829fbe000000fa00f8
:1008440050088000010020002040880031408800ca
:100854002040800031408000c001dd000200200003
:10086400300880000100200002004000838048001e
:1008740020408800314088000000eb0030088800e8
:100884000000eb00500888008460a9000080fa0092
:100894004f01be004f00be00004006000000fa00f9
:1008a40084e0a9000080fa00004006003600f80049
:1008b400809fbe00829fbe00849fbe00869fbe00b4
:1008c4000000fa0000502300c100200064fe07006d
:1008d40010408000004088008400a9000000eb0064
:1008e400300888000000eb00500888000080fa00ff
:1008f4004f03be004f02be004f01be004f00be00ba
:100904003600f900004006000200fa000080eb0007
:10091400401588000000eb00301688000000eb0052
:100924009016880000002200601688000000eb008a
:10093400200488006104800090082000008070007a
:10094400600488008200a9000003280020088800b1
:10095400a00028008008880040422f00100888006a
:100964000080eb00600888000080eb0070088800bd
:100974000000eb00500888000000eb0030088800fd
:100984000000370020408000314080004240800059
:100994005340800071fe0700a200200003002000e5
:1009a4007dfe0700a0408800204080003140800088
:1009b400424080005340800068fe0700a2002000ef
:1009c4000300200065fe0700a200200003002000b1
:1009d40071fe070090408800204080003140800074
:1009e40042408000534080005cfe07004206200025
:1009f4000300200059fe0700a2002000030020008d
:100a040065fe07008040880020408000314080005f
:100a1400424080005340800050fe0700823e200088
:100a2400030020004dfe0700a20020000300200068
:100a340059fe070070408800a0408000924080006a
:100a440081408000744080008001780004007800b8
:100a540051ff07002100070000408000000f7800cc
:100a64001e007800e10f50000e0032001e007800d6
:100a7400e10f5000040039001e007800e20f50001e
:100a84000f003200bfff3700100020001040880024
:100a940010002000010020004040880051408800e0
:100aa400b8ff37002000200010408800803e20005e
:100ab400010020004040880051408800b1ff370009
:100ac4000000eb001040880000242400f100200006
:100ad4004040880051408800aaff37000400fa0013
:100ae4006000b800008fbe00300037002040800056
:100af40031408000424080005340800017fe0700d0
:100b04000001be00703e200001002000800f510053
:100b1400818f59001c003400800720007040880039
:100b24005004200090408800204080003140800024
:100b3400424080005340800008fe0700008fbe0042
:100b4400080037001e00be00a200200003002000a1
:100b540002fe0700008fbe00604080000000e80035
:100b6400604088009000200001002000be0f1000ab
:100b7400ae8f1800f3ff3c001e0078008040880010
:100b840060408000a0408800a04080009240800027
:100b94008140800074408000800178000400780067
:100ba400fdfe07000000eb0060408800e0c2bf00cb
:100bb400614060000004e000ccff32000080fa00d5
:040bc4000000060027
:020000040000fa
:100bc800000800000e000000020000000000000005
:100bd800000000000000010000000000000000000c
:100be8000e080000080000000000000000000000df
:00000001FF
