:020000040000fa
:080000000001040000000000f3
:020000040000fa
:10020000af8320000eff20000e01880000000000d8
:100210000c000700007f21000100200011000700f2
:10022000000020000000e000020032000000020098
:1002300000000000b0100200000000000040da00e2
:100240000000fe004440a900a01920000000e000ca
:100250000300320000002000a00188004440a800f4
:100260000000060091018800800078000000eb008b
:1002700015003700e280400032a0b4009101ba00be
:10028000e280400032a0b4009102ba00e280400057
:1002900032a0b4000002eb00472bde00f507b200ed
:1002a000602ce10004003a000059eb008301e900f2
:1002b000fdff3e00040037006128e100010032002c
:1002c0000082eb00040007001101ba000200e00008
:1002d000e8ff3a00000006003159ba008301e90046
:1002e0000c0032002159ba008301e90008003200f5
:1002f0000400e00003003a00e280400032a0b400b5
:10030000f5ff370011d9ba008301e900faff3a007e
:100310008100e800e180400032a0b4000000060047
:1003200000000000000000000040da000000fe00b5
:10033000140020002a013700809fbe00821f780031
:100340000001eb0041010700cf027800808abe0067
:100350000001be004f00be007f003a000470a600fe
:100360006000b80003f0a70001f0a0000000060044
:100370000001be005c0107000470a70003f0a100ab
:1003800003f8a30013003a006509b1001000320021
:10039000090035006928e10002003500010028004d
:1003a0000000050000004000818048008502e9004f
:1003b000fcff3a0000000600f88f420005003500ff
:1003c0008100d1000080d3008502e800fcff3a00e4
:1003d000000006008000eb0000000500889fbe00c2
:1003e0008a9fbe008c1f7800540107005b01330018
:1003f00003866c006450e100240032006420e100b8
:10040000270032006150e100220032006120e1004b
:10041000210032008b854200eb07b1000134b800a7
:10042000003ab8000804420089844a00013ab80042
:100430000030b8008880400009014a000400330001
:100440000000400081804800020149008b05e9005e
:10045000c909dd0083017000010032001300200093
:10046000c814de004814dd004709de001200b200a7
:10047000c808de00088470004801070001f0a100f0
:100480000cf0a70001f0a0003d0137006120e10061
:100490003f0132000801be000200be00f7ff370036
:1004a0006150e100fcff3a0039013700889fbe002f
:1004b0008a9fbe00010578000100e00004003500bd
:1004c00008003c000000e00020003200050037007a
:1004d00060001000e080180002003b0001f02c00da
:1004e0001a0037000004be006011b8006b0920003c
:1004f0000982cf00020039000882cf000441b00019
:10050000694252000e00320008003b0082817100f7
:10051000610164008904d1000884d3008b05e800e0
:100520000442e800f9ff3a000500370008044400df
:1005300089844c008b05e9000442e900fbff3a0086
:10054000160107000af0a70001f0a0004f05be0049
:100550004f04be000000060003f0a200889fbe000a
:100560008a9fbe008c1f7800f4000700fb00330058
:100570006450e1004f0032006420e100520032007c
:1005800003826c0007003b000905d0000306d00081
:10059000820f54000c065d00020039000200320098
:1005a00089017800030678008582550004003d002b
:1005b0000003fd008103fd008502ea008b854200f7
:1005c000840f720002003b0060001000e080180001
:1005d0006011b8000005eb007a28e1000a0039003c
:1005e00006007800c75ddd00f707b2008780750060
:1005f0002d003700828171000a01780061056000da
:100600008180d1000080d3008502e900f9ff3b0022
:10061000060440008784480002003b006004140088
:10062000e0841c000988a300070032008a81710061
:1006300082817100610164008904d1000884d300c3
:100640008b05e800170037000978a30013003a0073
:100650000b00e000130034008b05e900080444009f
:1006600089844c000a4474000978a3000d003a0004
:100670000b00e000070034008b05e900080444008b
:1006800089844c0001003a000b0020000978a30087
:10069000f7ff32000001eb00020037008281710099
:1006a0000a017800bd0007000cf0a70001f0a000cf
:1006b000b30037006420e10002003a00838f6c0031
:1006c000b30033000801be000200be00ac003700da
:1006d000f4ff2f0042003700889fbe008a9fbe00b3
:1006e0008c1f7800950007009c00330003866c0087
:1006f0006450e1002e0032006420e100330032003b
:100700006150e1002f0032006120e1003100320031
:1007100085855500eb07b000090020000804200083
:10072000050037000804440089844c000a003100a9
:100730000603430087834b000001530081815b0067
:10074000f8ff33000203be000800a00008044400c4
:1007500089844c00f6ff3900c639dd00830173003f
:1007600001003200130020008904d1000884d30066
:100770000998a300050032000800a7000300a000ac
:100780008904d1000884d3008b05e8008904d100d6
:100790000884d3000001eb000281d2007f00070033
:1007a00001f0a1000cf0a70001f0a00074003700d8
:1007b0006420e100760032000801be000200be00a5
:1007c000f7ff37006120e100710032006000b800df
:1007d000f3ff37000000200001f82700f0ff37008a
:1007e000889fbe008a9fbe00841f780053000700c8
:1007f0004f00780011003300f0ff2f00838f6c0052
:1008000006003b00040565000a00a7000800370049
:1008100009f0a6001000200008003700820f5400e5
:10082000838f5c00030039001000200001003e00af
:100830000000200009f0a7000000ea004f05be00fc
:100840004f04be000000e00000000600889fbe00cc
:100850008a9fbe000003be002300070085057800c4
:1008600082815200020020006220e10004003a0070
:10087000f307b100040035007718e10004003500eb
:100880000600be00140037006000b8000f003700fb
:10089000f50f2000faff2f008502d1000a85d30052
:1008a0008301e900fcff3b008184620000046500d5
:1008b000890f7400f2ff32008582ea000a85ea009f
:1008c00081846200000465003400070007f0a7007f
:1008d00001f0a0000081eb000200e0004f05be0027
:1008e0004f04be0000000600c70ade00f107b20098
:1008f000f50fb20008003200e1cf420002003200e2
:100900000170a00024000500810f7000010032007a
:100910000408050044000500810f700002003a0041
:10092000140005008502e9000000400081c0480075
:10093000fcff3b000170a000240005000004be0085
:10094000e9ff07000003be000405be000200be0070
:10095000e5ff0700844f7500000006000200be009e
:100960006450e100050036006420e100020036001a
:100970000968a30001003a000800be000160a00061
:100980004f0678004f05be004f04be000000060071
:10099000f0ff2f00f1ff2700f9ff37008100200052
:1009a000618055000b003d000b00200061fe2f0010
:1009b0000100e1001d0034008281710061016400ca
:1009c0008904d1000884d3000000e800faff3a004f
:1009d00071002000610064000300700002006000ec
:1009e0000900320061044400e0844c000988a5003d
:1009f000050032008b05e8006808e10002003a00bb
:100a00008904d1000884d300f20f20000258e100cd
:100a100005003d00c75ddd00f907b2008980750063
:100a200008007800000006000bf827008b00780013
:100a3000000005008001eb000200370081717800a2
:100a40008301e800828f5100fcff3a00000006009d
:020000040000fa
:0200000401f009
:04000000f6bf000047
:020000040000fa
:0200000401f009
:04000400ff7f00007a
:020000040000fa
:0200000401f009
:04000800fcff0000f9
:020000040000fa
:0200000401f009
:04001400ffff0000ea
:020000040000fa
:100008009401000094010000940100009401000094
:100018009401000094010000940100009401000084
:1000280094010000fa0e000094010000a40f0000e3
:1000380094010000940100008c0f0000940100005e
:100048009401000094010000940100009401000054
:10005800940100009401000094010000360e000095
:100068009401000094010000940100009401000034
:100078009401000094010000940100009401000024
:100088009401000094010000940100009401000014
:100098009401000094010000940100009401000004
:1000a80094010000940100009401000094010000f4
:1000b80094010000940100009401000094010000e4
:1000c80094010000940100009401000094010000d4
:1000d80094010000940100009401000094010000c4
:1000e80094010000940100009401000094010000b4
:0800f8009401000094010000d6
:020000040000fa
:100108009401000094010000940100009401000093
:100118009401000094010000940100009401000083
:1001280094010000fa0e000094010000a40f0000e2
:1001380094010000940100008c0f0000940100005d
:100148009401000094010000940100009401000053
:10015800940100009401000094010000360e000094
:100168009401000094010000940100009401000033
:100178009401000094010000940100009401000023
:100188009401000094010000940100009401000013
:100198009401000094010000940100009401000003
:1001a80094010000940100009401000094010000f3
:1001b80094010000940100009401000094010000e3
:1001c80094010000940100009401000094010000d3
:1001d80094010000940100009401000094010000c3
:1001e80094010000940100009401000094010000b3
:0801f8009401000094010000d5
:020000040000fa
:100a50000001000002040000082800000c01000052
:100a60000600000000000000000000000000000080
:100a70000000000000000000000000000000000076
:100a80000000000000000000000000000000000066
:100a90000020000020200000202000002020000076
:100aa0002020000020200000202000002020000046
:100ab000200a00002020000020200000202000004c
:100ac0002020000020200000202000002020000026
:100ad0002020000000250000662c00002566000094
:100ae000206300006d200000202000002020000076
:100af00020200000202000002020000020200000f6
:100b00002000000020200000202000002020000005
:100b100020200000202000002020000020200000d5
:100b200020200000007c0000202000002020000089
:100b300020200000202000002020000020200000b5
:100b400020200000200000007c7c0000202000000d
:100b50002020000020200000202000002020000095
:100b60002020000020200000007c00007c7c000091
:100b70002020000020200000202000002020000075
:100b80002020000020200000200000007c7c0000cd
:100b90007c7c00002020000020200000202000009d
:100ba000202000002020000020200000007c000009
:100bb0007c7c00007c7c00002020000020200000c5
:100bc0002020000020200000202000002000000045
:100bd0007c7c00007c7c00007c7c000020200000ed
:100be0002020000020200000202000002020000005
:100bf000007c00007c7c00007c7c00007c7c000091
:100c000020200000202000002020000020200000e4
:100c1000200000007c7c00007c7c00007c7c0000cc
:100c20007c7c00002020000020200000202000000c
:100c300020200000007c00007c7c00007c7c000008
:100c40007c7c00007c7c0000202000002020000034
:100c500020200000200000007c7c00007c7c000044
:100c60007c7c00007c7c00007c7c0000202000005c
:100c70002020000020200000007c00007c7c000080
:100c80007c7c00007c7c00007c7c00007c7c000084
:100c90002020000020200000200000007c7c0000bc
:100ca0007c7c00007c7c00007c7c00007c7c000064
:100cb0007c7c00002020000020200000007c000040
:100cc0007c7c00007c7c00007c7c00007c7c000044
:100cd0007c7c00007c7c00002020000020000000c4
:100ce0007c7c00007c7c00007c7c00007c7c000024
:100cf0007c7c00007c7c00007c7c000020200000cc
:100d0000007c00007c7c00007c7c00007c7c00007f
:100d10007c7c00007c7c00007c7c00007c7c0000f3
:100d2000200000007c7c00007c7c00007c7c0000bb
:100d30007c7c00007c7c00007c7c00007c7c0000d3
:100d40007c7c0000004e00006f7600006f200000e9
:100d50004c6900006d690000746500003a250000d0
:100d60006620000020000000446900007374000049
:100d7000616e000063690000613a000025660000b2
:040d8000000000006f
:020000040000fa
:100d84000200fa00000f78000200370000000000a3
:100d94001e0fe9001e00e000fcff3a000080fa008c
:100da400000006000200fa00000f7800030037007c
:100db40080002000f2ff07001e0fe9001e00e00083
:100dc400fbff3a000080fa00000006000200fa006f
:100dd400000f780003003700803e2000f1ff070079
:100de4001e0fe9001e00e000fbff3a000080fa003d
:100df400000006000000fa000000eb003016880036
:100e04000000eb00901688000080fa000000060045
:100e14000800fa0060479800805228000400090086
:100e2400305f78005e00b1006e4090000080fb00ef
:100e34000e004000104078000080fb00b0168800cf
:100e44000080fa00000006000600fa00004f780057
:100e54001e00fb006101b90020fd2f00f1ff2f00ef
:100e6400020140008381480012079800230798007c
:100e7400b0002000010020001e019000ae0190008f
:100e8400800f5100818f590031003e001e009000f8
:100e9400ae00900000600100290037002c003700ec
:100ea400090037000b0037000d0037000f00370032
:100eb4001100370013003700150037001700370002
:100ec400190037001b003700f0032000501688007b
:100ed4002100370060002000501688001e003700f3
:100ee400b0052000501688001b003700f0042000d5
:100ef400501688001800370060062000501688003d
:100f040015003700d0062000501688001200370064
:100f1400d0072000501688000f0037007000200012
:100f2400501688000c003700f00720005016880087
:100f340009003700700620005016880006003700ac
:100f4400501680000008b0005016880002003700d8
:100f54000000eb00501688000080fa000000060034
:100f64000000fa0080ff2f00f01688000080fa00cd
:100f7400000006000200fa00600f2000101788002d
:100f84000040800010007800680060000000e0006d
:100f940003003a0010032000000f780064003700bb
:100fa4000040800010007800700060000000e00045
:100fb40003003a0040032000000f78005c00370073
:100fc4000040800090007800000220000080600053
:100fd4000000e00003003a0070032000000f7800d6
:100fe4005300370000408000900078000004200087
:100ff400008060000000e00003003a00a00220002e
:10100400000f78004a003700500f200010178800a6
:101014000040800010007800680060000000e000dc
:1010240003003a0020032000000f7800400037003e
:101034000040800010007800700060000000e000b4
:1010440003003a0050032000000f780038003700f6
:1010540000408000900078000002200000806000c2
:101064000000e00003003a0080032000000f780035
:101074002f0037000040800090007800000420001a
:10108400008060000000e00003003a00000320003c
:10109400000f780026003700300f2000101788005a
:1010a4000040800010007800680060000000e0004c
:1010b40003003a0030032000000f78001c003700c2
:1010c4000040800010007800700060000000e00024
:1010d40003003a0060032000000f7800140037007a
:1010e4000040800090007800000220000080600032
:1010f4000000e00003003a0090032000000f780095
:101104000b003700004080009000780000042000ad
:10111400008060000000e00003003a00300220007c
:10112400000f7800020037000000eb00000f780089
:101134001e0078000080fa00000006000200fa0099
:10114400004f7800114080001e4178006f4061001c
:101154000080fb006f01600000ff2f009108600019
:10116400910871001000200005ff0700dca2a80010
:10117400200020000bff0700dca2a9000080fa0079
:10118400000006000200fa00004f780011479800a2
:10119400200020000dff07009e40780061c0600021
:1011a400614060004401dd00c12d200091407800c1
:1011b400f0ceb30000c0600002407000dce2b70073
:1011c40010002000eefe0700dca2a9001e409000e3
:1011d4000080fb004400de00d8ff07001e409000a2
:1011e4006f406000d5ff07000080fa000000060091
:1011f4000200fa000080eb00401588000000eb00bc
:1012040030168800d882a900d8a2a900dc82a900df
:1012140010002000dafe0700dca2a900f000200084
:10122400eafe07000040eb00004f7800050037009d
:1012340030c0b300c1ff0700f0002000e3fe070048
:101244001e4fe80020c0b3009e4f1000f8ff360088
:1012540020c0b300b9ff07000040eb00004f780046
:10126400060037001e80fb00d1522800e0c0780041
:101274000040eb00c3ff07001e4fe80030c0b3007e
:101284009e4f1000f7ff36000080fa0000000600b1
:101294000400fa0020479800314798003e4090002f
:1012a400e14f50000300320000c4b300004f780047
:1012b400020037000040eb00004f78002e40900001
:1012c4001e4040000040e900004f780000c8b30011
:1012d4009e4070000040eb00aaff07000080fa0067
:1012e400000006000800fa00204798002107980033
:1012f4002e4090000080fb00300798003e009000d4
:10130400e30f5000260032003e009000e30f50002f
:101314000a003c003e009000e10f5000180032002b
:101324003e009000e10f500019003c003e00900088
:101334000000e0000e0032002c0037003e00900058
:10134400e50f50001e0032003e009000e50f5000f3
:10135400170035003e009000e60f50001c003200dc
:101364003e009000e70f50001d0032001f003700c0
:1013740001c4b3000040eb0082ff07001b003700ec
:1013840081c4b3000040eb007eff07001700370064
:1013940001c5b3000040eb007aff070013003700db
:1013a40081c5b3000040eb0076ff07000f00370053
:1013b40001c6b3000040eb0072ff07000b003700ca
:1013c40081c6b3000040eb006eff07000700370042
:1013d40001c7b3000040eb006aff070003003700b9
:1013e40081c7b3000040eb0066ff07000040eb003c
:1013f400004f78000a0037001e80fb000000400008
:10140400800078002e0090000080400010007800da
:101414008040780010c0b3005aff07001e4fe80058
:1014240070c0b3009e4f1000f3ff360001c8b30034
:101434000040eb0053ff07000080fa0000000600a4
:101444001200fa00005798002053280007000900f2
:10145400301f78000e01b1008e0078000e5090000d
:10146400a0ff07000080fa00000006000200fa0056
:10147400004f78009e40780010c0b30041ff070081
:101484000080fa00000006000400fa00004f780013
:101494001e00fb00100798009e009000e88f50008b
:1014a400190032001e009000e80f500005003c00b7
:1014b40000fb2f009e009000808f50001600320029
:1014c400190037001e009000ea0f50000a00320095
:1014d4009e009000ec8f5000010032001200370093
:1014e40011c0b3000040eb0026ff070020002000dd
:1014f40036fe07000f00370021c0b30010c0b30050
:1015040063ff07000b00370001c1b3000040eb008c
:101514001cff070007003700f1cdb30010c0b30073
:1015240018ff0700030037009e40780010c0b30086
:1015340014ff07000080fa00000006000200fa0011
:10154400000f7800040037001e0078001040780077
:10155400cdff07001e0fe8001e0078001040780041
:101564000004e000f8ff3a000080fa0000000600e2
:101574000200fa00004f78009e4078000040eb0023
:1015840000ff07000080fa00000006004000fa0097
:1015940068005700300f9800910137004eb897004b
:1015a400104078008000fb0050022000808f500023
:1015b40001003200840137004eb897000000e800b3
:1015c40040bf9f004eb897009040780050c7b300ca
:1015d40080cf50005d003a00f800470020542800f6
:1015e400904878000100e8008040eb000148780052
:1015f4000000e8008040eb00014878000000e800ab
:101604008040eb00014878000000e8008040eb00d7
:10161400014878000000e8008040eb0001487800b1
:101624000000e8008040eb00014878000040eb0037
:10163400405798003e0890000080e900300f980061
:101644003e08900090007800110f98009e089000ca
:10165400f0702200808f50000300360040c0b300b9
:10166400405798002b0037009e089000703e2000e1
:10167400808f50000300360030c0b30040579800fc
:10168400240037009e08900030062000808f500010
:101694000300360020c0b300405798001d003700f7
:1016a4001e089000e90f50000300360010c0b3007c
:1016b40040579800170037000040eb00405798004f
:1016c400140037004e5090008001fb001e0890006b
:1016d400a2002000110009000280d8008000fd0053
:1016e4000043b0008040780078004700008041004b
:1016f400014878001e089000a20020001100090093
:101704000280d800100f98004e5090000040e9006d
:10171400405798001e089000e90f5000e9ff3e0072
:101724004e5090000001fb001e0890000043b000e2
:1017340080407800780047000000410001487800ac
:10174400780047007dff0700220137004eb897005c
:101754009040780040c6b30080cf50006d003a003e
:10176400ff00470020542800904878000100e8005a
:101774008040eb00014878000000e8008040eb0066
:10178400014878000000e8008040eb000148780040
:101794000000e8008040eb00014878000000e80009
:1017a4008040eb00014878000000e8008040eb0036
:1017b400014878000000e8008040eb000148780010
:1017c4000000e8008040eb00014878000040eb0096
:1017d400005798003e0890000080e900300f980000
:1017e4003e08900010017800720798007e00900077
:1017f4000000e00008003d007e0090000000ea00c8
:1018040070079800ff004700d0c2b30080487800fa
:1018140010c0b30000579800fe009000f070220042
:10182400808f5000040034000e509000644040004b
:10183400005798002a003700fe009000703e2000f8
:10184400808f5000040034000e509000634040002c
:101854000057980022003700fe0090003006200058
:10186400808f5000040034000e50900000c0e80047
:10187400005798001a0037007e009000e90f5000ce
:10188400170034000e5090000040e8000057980004
:10189400130037000e5090008001fb007e00900082
:1018a400a2002000110009000200d8008000fd0001
:1018b40002c3b300824040007f004700817178007a
:1018c4007e009000a2002000110009000200d80050
:1018d400700798000e5090000040e90000579800ef
:1018e4007e009000e90f5000eaff3c000e5090008b
:1018f4000001fb007e00900003c3b300834040005e
:101904007f004700017178007f0047000bff07004c
:10191400b00037004eb897009040780060c6b3001e
:1019240080cf5000a4003a00810220008e80400045
:1019340020542800904878000100e800320120007b
:101944008000eb003afc07000040eb00504f980089
:1019540040c0b300404f98003e089000640050001f
:10196400300f98003e0890001001be004207980016
:10197400530798006011b8004e009000de009000fc
:101984006afa07000000e000010035000c0037008f
:101994004e009000de00900001f0a2004007980085
:1019a40051079800810220008e804000d0c2b3000d
:1019b400804878005e4890000040e800504f98004e
:1019c400c20320000e0141004e009000de00900092
:1019d40058fa070020079800310798006e18900005
:1019e400fe18900061fa0700100798009e0090000e
:1019f400f0702200808f5000040036005e48900092
:101a040064404000504f9800160037009e0090003c
:101a1400703e2000808f5000040036005e48900025
:101a240063404000504f98000e0037009e00900025
:101a340030062000808f5000040036005e4890007d
:101a440000c0e800504f9800060037001e009000c8
:101a5400e90f5000030036005e4890000040e800a3
:101a6400504f980002002000a34724002e0090004d
:101a7400be00900058fa070020079800310798002c
:101a84002e009000be00900038fa0700000f780086
:101a94005e4890000000fb008000e8008002200007
:101aa4000e00400080804000e0c2b300804878000f
:101ab400180037005e4890008000fb004e489000fc
:101ac4000000fb00808140001e007800a20020007e
:101ad400110009000280d8008000fd000043b0001e
:101ae40080407800800220000e0040000080410009
:101af400014878001e007800a200200011000900af
:101b04000280d800000f78004e4890000040e900a1
:101b1400404f98004e489000e14f5000e5ff3c00d4
:101b2400150037005e4890008001fb001e00900005
:101b3400a2002000110009000280d8008000fd00ee
:101b44000043b00080407800800220000e00400076
:101b540000804100014878001e009000a20020008f
:101b6400110009000280d800100798005e48900018
:101b74000040e900504f98001e009000e90f50000b
:101b8400e8ff3e005e4890000001fb001e0090004c
:101b94000043b00080407800800220000e00400026
:101ba4000000410001487800800220000e0040003f
:101bb40062fe0700070037004eb897001040780017
:101bc40031fe0700030037004eb89700104078003c
:101bd4002dfe07004eb897000000e80040bf9f00ac
:101be4004eb89700104078000004e0006bfe3a0005
:101bf4000080fa00000006000000fa0011c0b300e3
:101c040010c0b300a2fd070090542800801f780084
:101c14005efe07008f87e90011c0b30010c0b30057
:101c24009bfd07000080fa00000006000000fa0097
:101c34000000eb00804188001000200000068800ae
:101c440085e0a9008de0a8000080fa0000000600ed
:101c54000200fa00000f78001e007800a0418800fe
:101c64000080fa00000006003600f800809fbe00e5
:101c7400829fbe00849fbe00869fbe000200fa00c1
:101c8400cfc2bf000044b2000004e00050003a009c
:101c940040418000000f78001e007800e20f5000e1
:101ca4002c0032001e007800e30f50003c0032008c
:101cb4001e007800e10f50000b003200cfc2bf00bd
:101cc4000042b2000004e00041003a00800020001d
:101cd400604188000000eb00704188001000200083
:101ce400404188003a0037002ac8bf000080fb004a
:101cf4000000d1002ae8b700cfc2bf000042b20002
:101d04000004e000050032002ac8bf0080407800cb
:101d140000c8b30000c040002ae8b7002ac8bf00ca
:101d24008080fb0070418000008068007041880062
:101d3400604180000000e90060418800604180004b
:101d44000000e00022003a0020002000404188000a
:101d54001f003700cfc2bf000042b2000004e00001
:101d64000400320070418000010820000100680076
:101d740070418800704180004700de00610060000f
:101d84000004e000030032003000200040418800dd
:101d94000f0037000000eb00404188000c003700c2
:101da400cfc2bf000042b2000004e00006003200cf
:101db4002ac8bf0032e8b700100020008041880024
:101dc400a0418000000001000000eb0040418800b9
:101dd40085e0a9000080fa004f03be004f02be0058
:101de4004f01be004f00be003600f900004006005f
:101df4003600f800809fbe00829fbe00849fbe0014
:101e0400869fbe000800fa008420a90011e1a90001
:101e14001041800021418000c001dd00020020004b
:101e2400000a800001002000020040008380480076
:101e3400b0418800c1418800d6c2bf006140600043
:101e44000004e00026003a00b0418000c141800057
:101e540020079800310798002e029000be029000df
:101e6400e00f5200e08f5a00050035002e0090006c
:101e7400be0090008cf90700008fbe0012003700ee
:101e84002e009000610160006000b8000300200093
:101e940002007000838070002e029000be02900049
:101ea4008501d1000481d30002007000838070009a
:101eb4007df90700008fbe001e01be001e00be009b
:101ec400a5f90700008fbe00f22621003388230005
:101ed4001e00be0040f907005040880061408800a1
:101ee4000000eb00300888006000b8001041880052
:101ef4002141880011e1a8000080fa004f03be00d0
:101f04004f02be004f01be004f00be003600f90074
:101f140000400600809fbe000000fa0084c0a900b3
:101f2400104180002141800061004000e0804800b1
:101f340010418800214188000080fa004f00be0053
:101f440000400600809fbe00821f78000200fa0055
:101f54008460a90020408000000f78001e007800f3
:101f6400e30f5000360032001e007800e30f5000eb
:101f740007003c001e007800e10f50000e00320004
:101f84001e007800e20f50001c003200520037009f
:101f94001e007800e50f50004b0032001e00780050
:101fa400e50f5000370035001e007800e60f5000a2
:101fb4004700320048003700dcc2bf000080fb004d
:101fc4004300de006140600000c0ea006140600040
:101fd400614060004301dd00c12d20009140780084
:101fe40070cfb30000c0600002407000dce2b700b4
:101ff40040422f001008880038003700dcc2bf00c0
:102004000080fb004300de006140600000c0ea0085
:1020140061406000614060004301dd00c12d20008b
:102024009140780070cfb30000c06000024070009f
:10203400dce2b700b0712b001008880027003700dd
:10204400dcc2bf000080fb004300de006140600092
:1020540000c0ea0061406000614060004301dd00af
:10206400c12d20009140780070cfb30000c0600003
:1020740002407000dce2b70020a1270010088800ad
:1020840016003700dcc2bf000080fb004300de0006
:102094006140600000c0ea0061406000614060008f
:1020a4004301dd00c12d20009140780070cfb300c2
:1020b40000c0600002407000dce2b70090d0230052
:1020c4001008880005003700dc62a900030037000f
:1020d400dc62a80001003700dc62a8000080fa007e
:1020e4004f0178004f00be00004006000200fa00d5
:1020f400000f78000b003700000000000000000013
:1021040000000000000000000000000000000000cb
:1021140000000000000000000000000000000000bb
:102124001e0fe9001e00e000f3ff3c000080fa00ef
:10213400000006000200fa00000f780003003700d8
:10214400803e2000e9ff07001e0fe9001e00e000aa
:10215400fbff3c000080fa00000006000200fa00c9
:102164000080eb004015880000102000c016880095
:102174000000eb00100a880042e1a80021142000ae
:102184009140780080cfb30000c060000004a0003c
:1021940042e1b70000032800200888000080eb001b
:1021a4006008880010002000100888000000eb0080
:1021b400800888000000eb00300888000000eb0075
:1021c400200488008c20a8008cc0a8008c60a80083
:1021d40007fc070095fe0700c07721009cfe07005e
:1021e400704080008140800090408800a1408800b9
:1021f4008c00070070408800814088007040800097
:102204008140800002002000a33f24002ff9070032
:102214000000e00001003c00040037009040800012
:10222400a140800070408800814088007040800098
:1022340081408000020020006331240023f907005c
:102244000000e00001003c000200370060002000b4
:1022540020408800704080008140800002002000ff
:102264006331240031f807000000e000010034006d
:102274000a00370070408000814080000200200086
:10228400032f240011f907000000e00001003d00c5
:1022940002003700100020002040880070408000b9
:1022a4008140800002002000032f24001ff8070053
:1022b4000000e000010035000a0037007040800093
:1022c4008140800002002000432b2400fff8070017
:1022d4000000e00001003d00020037002000200063
:1022e400204088007040800081408000020020006f
:1022f400432b24000df807000000e0000100350026
:102304000a003700704080008140800002002000f5
:10231400c3282400edf807000000e00001003d00a0
:102324000200370030002000204088007040800008
:102334008140800002002000c3282400fbf707002e
:102344000000e000010035000a0037007040800002
:10235400814080000200200083242400dbf8070071
:102364000000e00001003d000200370040002000b2
:1023740020408800704080008140800002002000de
:1023840083242400e9f707000000e0000100350081
:1023940002003700500020002040880030418000b7
:1023a400000f78001e007800e10f50001700320083
:1023b4001e007800e10f5000040039001e00780070
:1023c400e20f5000130032001300370011c0b300b5
:1023d40010c0b300aefb0700704080008140800055
:1023e4005240800063408000809fbe00829fbe00f8
:1023f400b0562800801f780064fc0700ea87570065
:10240400a0c0b30020fc0700030037001b00070036
:1024140001003700f90107002003200045ff0700f1
:102424006fff37000000fa005040800061408000d8
:1024340002002000a3472400e7f70700304088008b
:10244400414088003040800041408000020020006c
:10245400333124009ff80700c2f52800230224002a
:10246400ddf707003040880041408800304080009c
:10247400414080000080fa00000006000000fa00dd
:10248400704080008140800002002000a3322400bc
:102494008ef807000000e00001003c000d0037004a
:1024a40011c0b30010c0b30079fb07002058280006
:1024b400801f780035fc07008f87e900a0c0b300b7
:1024c400f1fb070020582800801f78002ffc07002c
:1024d4008f87e90070408000814080000200200066
:1024e400a332240091f707000000e000010034004b
:1024f40015003700704080008140800002002000f9
:102504002332240071f807000000e00001003d00c0
:102514000d00370011c0b30010c0b3005cfb07000e
:1025240030592800801f780018fc07008f87e900c5
:10253400a0c0b300d4fb070030592800801f7800e6
:1025440012fc07008f87e900704080008140800002
:10255400020020002332240074f707000000e0008a
:102564000100350015003700704080008140800074
:1025740002002000b331240054f807000000e000fa
:1025840001003d000d00370011c0b30010c0b300be
:102594003ffb0700405a2800801f7800fbfb070020
:1025a4008f87e900a0c0b300b7fb0700405a28009a
:1025b400801f7800f5fb07008f87e90070408000da
:1025c4008140800002002000b331240057f7070047
:1025d4000000e00001003500150037007040800065
:1025e40081408000020020003331240037f80700c6
:1025f4000000e00001003d000d00370011c0b300f1
:1026040010c0b30022fb0700505b2800801f780035
:10261400defb07008f87e900a0c0b3009afb070028
:10262400505b2800801f7800d8fb07008f87e900e3
:10263400704080008140800002002000333124007b
:102644003af707000000e0000100350015003700ec
:10265400704080008140800002002000c3302400cc
:102664001af807000000e00001003d000d003700eb
:1026740011c0b30010c0b30005fb0700605c280064
:10268400801f7800c1fb07008f87e900a0c0b3005a
:102694007dfb0700605c2800801f7800bbfb0700ff
:1026a4008f87e90070408000814080000200200094
:1026b400c33024001df707000000e00001003500ce
:1026c4001500370070408000814080000200200027
:1026d40043302400fdf707000000e00001003d0046
:1026e4000d00370011c0b30010c0b300e8fa0700b2
:1026f400705d2800801f7800a4fb07008f87e90025
:10270400a0c0b30060fb0700705d2800801f780044
:102714009efb07008f87e9007040800081408000a5
:10272400020020004330240000f707000000e0000e
:1027340001003500150037007040800081408000a2
:1027440002002000a32f2400e0f707000000e000af
:1027540001003d000d00370011c0b30010c0b300ec
:10276400cbfa0700805e2800801f780087fb0700f3
:102774008f87e900a0c0b30043fb0700805e2800f8
:10278400801f780081fb07008f87e900704080007c
:102794008140800002002000a32f2400e3f60700fc
:1027a4000000e00001003500150037007040800093
:1027b4008140800002002000c32e2400c3f70700dc
:1027c4000000e00001003d000d00370011c0b3001f
:1027d40010c0b300aefa0700905f2800801f780095
:1027e4006afb07008f87e900a0c0b30026fb07003f
:1027f400905f2800801f780064fb07008f87e90042
:10280400704080008140800002002000c32e24001c
:10281400c6f607000000e00001003500150037008f
:10282400704080008140800002002000e32d2400dd
:10283400a6f707000000e00001003d000d0037008e
:1028440011c0b30010c0b30091fa0700a0602800c3
:10285400801f78004dfb07008f87e900a0c0b300fc
:1028640009fb0700a0602800801f780047fb0700d1
:102874008f87e900704080008140800002002000c2
:10288400e32d2400a9f607000000e0000100350054
:102894001500370070408000814080000200200055
:1028a400032d240089f707000000e00001003d002b
:1028b4000d00370011c0b30010c0b30074fa070054
:1028c400b0612800801f780030fb07008f87e90083
:1028d400a0c0b300ecfa0700b0612800801f7800a4
:1028e4002afb07008f87e900704080008140800048
:1028f40002002000e32c24008cf607000000e00016
:1029040001003500150037007040800081408000d0
:1029140002002000e32b24006cf707000000e00015
:1029240001003d000d00370011c0b30010c0b3001a
:1029340057fa0700c0622800801f780013fb0700c5
:102944008f87e900a0c0b300cffa0700c062280057
:10295400801f78000dfb07008f87e900704080001e
:102964008140800002002000e32b24006ff6070062
:102974000000e000010035001500370070408000c1
:102984008140800002002000e32a24004ff7070062
:102994000000e00001003d000d00370011c0b3004d
:1029a40010c0b3003afa0700d0632800801f7800f3
:1029b400f6fa07008f87e900a0c0b300b2fa070057
:1029c400d0632800801f7800f0fa07008f87e900a1
:1029d400704080008140800002002000e32a24002f
:1029e40052f607000000e000010035001500370032
:1029f400704080008140800002002000032a2400ef
:102a040032f707000000e00001003d000d00370030
:102a140011c0b30010c0b3001dfa0700e064280021
:102a2400801f7800d9fa07008f87e900a0c0b3009f
:102a340095fa0700e0642800801f7800d3fa0700a5
:102a44008f87e900704080008140800002002000f0
:102a5400032a240035f607000000e00001003500d9
:102a64001500370070408000814080000200200083
:102a74002329240015f707000000e00001003d00b1
:102a84000d00370011c0b30010c0b30000fa0700f6
:102a9400f0652800801f7800bcfa07008f87e900e2
:102aa400a0c0b30078fa0700f0652800801f780002
:102ab400b6fa07008f87e9007040800081408000eb
:102ac400020020002329240018f607000000e0007b
:102ad40001003500150037007040800081408000ff
:102ae4000200200043282400f8f607000000e0005c
:102af40001003d000d00370011c0b30010c0b30049
:102b0400e3f9070000672800801f78009ffa070098
:102b14008f87e900a0c0b3005bfa070000672800b4
:102b2400801f780099fa07008f87e90070408000c1
:102b3400814080000200200043282400fbf50700a8
:102b44000000e000010035001500370070408000ef
:102b5400814080000200200083242400dbf607006b
:102b64000000e00001003d000d00370011c0b3007b
:102b740010c0b300c6f9070010682800801f780051
:102b840082fa07008f87e900a0c0b3003efa07006d
:102b940010682800801f78007cfa07008f87e900fe
:102ba40070408000814080000200200083242400c3
:102bb400def507000000e000010035000d003700dd
:102bc40011c0b30010c0b300b1f907002069280098
:102bd400801f78006dfa07008f87e900a0c0b3005a
:102be40029fa070020692800801f780067fa070087
:102bf4008f87e9000080fa00000006000000fa0058
:102c0400d0408000e14080000200200053312400c5
:102c1400aef607000000e00001003c0004003700ad
:102c24000000200061312400d0408800e140880089
:102c3400d0408000e140800002002000c324240032
:102c4400baf507000000e000010035000400370079
:102c54000000200081242400d0408800e140880046
:102c6400d2408000e3408000000020006131240055
:102c740038f60700020020000308240095f6070038
:102c8400f04088000141880070408000814080004d
:102c940002002000633124008cf607000000e000ed
:102ca40001003c0002003700600020002040880042
:102cb40070408000814080000200200063312400c5
:102cc4009af507000000e000010034000d00370011
:102cd400f2408000034180000000200061312400a4
:102ce4001cf6070072408000834080008ff50700c7
:102cf4000000e00001003400020037001000200052
:102d040020408800f2408000034180000000200041
:102d1400613124000ff60700724080008340800078
:102d24006af607000000e00001003c0010003700d4
:102d3400f0408000014180000200200003002c00cc
:102d4400a5f50700020020006331240002f6070005
:102d5400724080008340800074f507000000e000aa
:102d640001003400020037002000200020408800c9
:102d7400f0408000014180000200200003002c008c
:102d840095f507000200200063312400f2f50700e6
:102d940072408000834080004cf607000000e00091
:102da40001003c0010003700f04080000141800029
:102db4000200200003042c0087f507000200200015
:102dc40063312400e4f507007240800083408000f2
:102dd40056f507000000e00001003400020037004f
:102de4003000200020408800f04080000141800035
:102df4000200200003042c0077f5070002002000e5
:102e040063312400d4f507007240800083408000c1
:102e14002ef607000000e00001003c00100037001f
:102e2400f0408000014180000200200003082c00d3
:102e340069f507000200200063312400c6f507008d
:102e4400724080008340800038f507000000e000f5
:102e540001003400020037004000200020408800b8
:102e6400f0408000014180000200200003082c0093
:102e740059f507000200200063312400b6f507006d
:102e8400724080008340800010f607000000e000dc
:102e940001003c0002003700500020002040880060
:102ea40011c0b30010c0b300f9f80700d04080008f
:102eb400e1408000809fbe00306a2800801f7800b7
:102ec400b2f90700e6875700a0c0b3006ef9070007
:102ed4007040800081408000809fbe00406b2800cd
:102ee400801f7800a9f90700e68757000080fa00e0
:102ef400000006000200fa000000eb008041880098
:102f040032c8bf000080fb00000f780020072000bb
:102f14009e007800808f50001900320020072000a6
:102f24009e007800808f500009003c00900620002d
:102f34009e007800808f50000e003200b006200002
:102f44009e007800808f500013003200210037006b
:102f5400300720009e007800808f50001600320059
:102f6400a00720009e007800808f500007003200e8
:102f74001800370010002000304188001500370089
:102f84002000200030418800120037000000eb00d0
:102f9400304188000f003700d0408000e1408000bd
:102fa40002002000030a24006bf50700d0408800cb
:102fb400e140880007003700d0408000e1408000f5
:102fc40002002000030a240062f50700d0408800b4
:0c2fd400e14088000080fa0000000600c8
:020000040000fa
:102fe000000800002800000002000000e002ca0003
:102ff00002000000000000000000000000000000cf
:1030000000000000000000000000000000000000c0
:103010000048420000000000000000000000000026
:10302000000000002808000012000000000000005e
:04303000000000009c
:00000001FF
